{"contracts/SudokuArena.sol":{"SudokuArena":{"abi":[{"anonymous":false,"inputs":[{"indexed":true,"internalType":"uint256","name":"matchId","type":"uint256"},{"indexed":true,"internalType":"address","name":"opponent","type":"address"}],"name":"MatchAccepted","type":"event"},{"anonymous":false,"inputs":[{"indexed":true,"internalType":"uint256","name":"matchId","type":"uint256"},{"indexed":true,"internalType":"address","name":"creator","type":"address"},{"indexed":true,"internalType":"address","name":"opponent","type":"address"},{"indexed":false,"internalType":"bool","name":"isPvp","type":"bool"},{"indexed":false,"internalType":"uint32","name":"gameId","type":"uint32"},{"indexed":false,"internalType":"uint64","name":"acceptBy","type":"uint64"},{"indexed":false,"internalType":"uint64","name":"resolveBy","type":"uint64"},{"indexed":false,"internalType":"uint8","name":"puzzleIndex","type":"uint8"},{"indexed":false,"internalType":"bytes32","name":"puzzleHash","type":"bytes32"}],"name":"MatchCreated","type":"event"},{"anonymous":false,"inputs":[{"indexed":true,"internalType":"uint256","name":"matchId","type":"uint256"},{"indexed":false,"internalType":"enum SudokuArena.State","name":"state","type":"uint8"}],"name":"MatchStateUpdated","type":"event"},{"anonymous":false,"inputs":[{"indexed":true,"internalType":"uint256","name":"matchId","type":"uint256"},{"indexed":true,"internalType":"address","name":"player","type":"address"},{"indexed":false,"internalType":"uint8","name":"row","type":"uint8"},{"indexed":false,"internalType":"uint8","name":"col","type":"uint8"},{"indexed":false,"internalType":"uint8","name":"value","type":"uint8"}],"name":"MoveSubmitted","type":"event"},{"inputs":[{"internalType":"uint256","name":"matchId","type":"uint256"}],"name":"acceptMatch","outputs":[],"stateMutability":"nonpayable","type":"function"},{"inputs":[{"internalType":"uint32","name":"gameId","type":"uint32"},{"internalType":"uint8","name":"puzzleIndex","type":"uint8"},{"internalType":"bytes32","name":"puzzleHash","type":"bytes32"},{"internalType":"bytes","name":"packedGivens","type":"bytes"}],"name":"createPveMatch","outputs":[{"internalType":"uint256","name":"matchId","type":"uint256"}],"stateMutability":"nonpayable","type":"function"},{"inputs":[{"internalType":"address","name":"opponent","type":"address"},{"internalType":"uint32","name":"gameId","type":"uint32"},{"internalType":"uint64","name":"acceptBy","type":"uint64"},{"internalType":"uint64","name":"resolveBy","type":"uint64"},{"internalType":"uint8","name":"puzzleIndex","type":"uint8"},{"internalType":"bytes32","name":"puzzleHash","type":"bytes32"},{"internalType":"bytes","name":"packedGivens","type":"bytes"}],"name":"createPvpMatch","outputs":[{"internalType":"uint256","name":"matchId","type":"uint256"}],"stateMutability":"nonpayable","type":"function"},{"inputs":[{"internalType":"uint256","name":"","type":"uint256"}],"name":"matches","outputs":[{"internalType":"address","name":"creator","type":"address"},{"internalType":"address","name":"opponent","type":"address"},{"internalType":"bool","name":"isPvp","type":"bool"},{"internalType":"enum SudokuArena.State","name":"state","type":"uint8"},{"internalType":"uint64","name":"createdAt","type":"uint64"},{"internalType":"uint64","name":"acceptBy","type":"uint64"},{"internalType":"uint64","name":"resolveBy","type":"uint64"},{"internalType":"uint32","name":"gameId","type":"uint32"},{"internalType":"uint256","name":"startBlock","type":"uint256"},{"internalType":"uint256","name":"creatorFinishBlock","type":"uint256"},{"internalType":"uint256","name":"opponentFinishBlock","type":"uint256"},{"internalType":"uint8","name":"puzzleIndex","type":"uint8"},{"internalType":"bytes32","name":"puzzleHash","type":"bytes32"},{"internalType":"bytes","name":"packedGivens","type":"bytes"}],"stateMutability":"view","type":"function"},{"inputs":[],"name":"nextMatchId","outputs":[{"internalType":"uint256","name":"","type":"uint256"}],"stateMutability":"view","type":"function"}],"evm":{"bytecode":{"linkReferences":{},"object":"6080806040523461001657610e7d908161001c8239f35b600080fdfe608080604052600436101561001357600080fd5b60003560e01c9081634768d4ef14610b4f575080636577247a14610625578063b47f0f031461026f578063bebcd21e146100795763c5adf7c91461005657600080fd5b34610074576000366003190112610074576020600054604051908152f35b600080fd5b3461007457602080600319360112610074576004359081600052600181526040600020600181019081549060ff8260a81c166008811015610259576001036102145760ff8260a01c16156101d8576001600160a01b038216330361019357600201546001600160401b031642101561014e5760ff60a81b1916600160a91b1790556040517f45b5b5df6725344da5e2d0acc43327098c83ee0a91e8a864693668ffb84e5c31919033847f3b8d451bc77cb8362426b579170661ca3515d7fa4c08b9627c660328f0311008600080a360028152a2005b60405162461bcd60e51b815260048101849052601b60248201527f5375646f6b754172656e613a20616363657074206578706972656400000000006044820152606490fd5b60405162461bcd60e51b815260048101859052601960248201527f5375646f6b754172656e613a206e6f74206f70706f6e656e74000000000000006044820152606490fd5b60405162461bcd60e51b815260048101859052601460248201527305375646f6b754172656e613a206e6f74207076760641b6044820152606490fd5b60405162461bcd60e51b815260048101859052601860248201527f5375646f6b754172656e613a206e6f74206372656174656400000000000000006044820152606490fd5b634e487b7160e01b600052602160045260246000fd5b346100745760803660031901126100745760043563ffffffff811681036100745760243560ff81168103610074576064356001600160401b038111610074576102bc903690600401610d8b565b9290916103526102cd600054610db8565b9384600055604051956102df87610d4e565b3387526000602088015260006040880152600160608801526001600160401b0342166080880152600060a0880152600060c088015263ffffffff851660e088015260006101008801526000610120880152600061014088015260ff84166101608801526044356101808801523691610ddd565b6101a0850152826000526001602052604060002060018060a01b03808651166001600160601b0360a01b83541617825560208601511660018201549060ff60a01b6040880151151560a01b16916affffffffffffffffffffff60a81b16171760018201556060850151600881101561025957816103d760089260016101a09501610e23565b60808701516001820154906001600160401b0360b01b9060b01b16906001600160401b0360b01b1916176001820155600281016001600160401b0360a08901511681549067ffffffffffffffff60401b60c08b015160401b169063ffffffff60801b60e08c015160801b16926001600160601b0360a01b1617171790556101008701516003820155610120870151600482015561014087015160058201556006810160ff6101608901511660ff198254161790556101808701516007820155019401519384516001600160401b03811161060f576104b58254610d14565b95601f87116105c7575b602096508690601f831160011461055b57918060ff949260009796948892610550575b50508160011b9187199060031b1c19161790555b63ffffffff60405193858552168684015283604084015283606084015216608082015260443560a0820152827fbe8aae938d8f8784025f4a2713894112d436ddc89db4ec90513469021655d33260c03393a4604051908152f35b0151905089806104e2565b90601f1983169184600052886000209260005b8181106105b05750926001928592600099989660ff989610610598575b505050811b0190556104f6565b0151881960f88460031b161c1916905589808061058b565b92938a60018192878601518155019501930161056e565b826000526020600020601f830160051c81019760208410610605575b601f0160051c01965b8781106105f957506104bf565b600081556001016105ec565b90975087906105e3565b634e487b7160e01b600052604160045260246000fd5b346100745760e0366003190112610074576004356001600160a01b03811681036100745760243563ffffffff8116810361007457604435906001600160401b038216820361007457606435926001600160401b03841684036100745760843560ff811681036100745760c4356001600160401b038111610074576106ad903690600401610d8b565b9590946001600160a01b03841615610b0a57426001600160401b0382161115610ac5576001600160401b0381166001600160401b0383161115610a81576107946106f8600054610db8565b96876000556040519861070a8a610d4e565b338a5260018060a01b03871660208b0152600160408b0152600160608b01526001600160401b03421660808b01526001600160401b03841660a08b01526001600160401b03851660c08b015263ffffffff881660e08b015260006101008b015260006101208b015260006101408b015260ff86166101608b015260a4356101808b01523691610ddd565b6101a088015285600052600160205260406000209660018060a01b038151166001600160601b0360a01b89541617885560018060a01b0360208201511660018901549060ff60a01b6040840151151560a01b16916affffffffffffffffffffff60a81b161717600189015560608101519060088210156102595761081e6101a09260018b01610e23565b608081015160018a0154906001600160401b0360b01b9060b01b16906001600160401b0360b01b19161760018a0155600289016001600160401b0360a08301511681549067ffffffffffffffff60401b60c085015160401b169063ffffffff60801b60e086015160801b16926001600160601b0360a01b16171717905561010081015160038a015561012081015160048a015561014081015160058a01556006890160ff6101608301511660ff1982541617905561018081015160078a015501519687516001600160401b03811161060f576108fd6008830154610d14565b98601f8a11610a36575b602099508990601f83116001146109bb57926008836001600160401b03969394879560ff9a99976000926109b0575b50508160011b916000199060031b1c1916179101555b63ffffffff6040519860018a52168a89015216604087015216606085015216608083015260a43560a083015260018060a01b031690827fbe8aae938d8f8784025f4a2713894112d436ddc89db4ec90513469021655d33260c03393a4604051908152f35b015190508e80610936565b90601f19831691600885016000528b6000209260005b818110610a1f5750846001600160401b03979460ff9a9997946008948a9860019510610a06575b505050811b0191015561094c565b015160001960f88460031b161c191690558e80806109f8565b92938d6001819287860151815501950193016109d1565b600883016000526020600020601f830160051c81019a60208410610a77575b601f0160051c01995b8a8110610a6b5750610907565b60008155600101610a5e565b909a508a90610a55565b606460405162461bcd60e51b815260206004820152602060248201527f5375646f6b754172656e613a207265736f6c7665427920746f6f206561726c796044820152fd5b60405162461bcd60e51b815260206004820152601d60248201527f5375646f6b754172656e613a20616363657074427920696e20706173740000006044820152606490fd5b60405162461bcd60e51b815260206004820152601d60248201527f5375646f6b754172656e613a206f70706f6e656e74206973207a65726f0000006044820152606490fd5b346100745760209081600319360112610074576004356000526001825260406000209160018060a01b039283815416936001820154600283015490600384015460048501549160058601549360ff600688015416956008600789015498018a6000825492610bbc84610d14565b938484528d600182169182600014610cf4575050600114610cb6575b50610be59250038b610d6a565b6040519a8b528216888b015260ff8260a01c16151560408b015260ff8260a81c169160088310156102595763ffffffff9260608c01526001600160401b03809160b01c1660808c015280821660a08c01528160401c1660c08b015260801c1660e08901526101008801526101208701526101408601526101608501526101808401526101c091826101a08501528051809385015260005b838110610ca157505050816101e0916000838284010152601f80199101168101030190f35b8181018301518582016101e001528201610c7c565b9150506000528a8a806000206000905b848210610cdc5750610be593508201018e610bd8565b8193836001938354920101520191018b908d92610cc6565b91509250610be594915060ff191682840152151560051b8201018e610bd8565b90600182811c92168015610d44575b6020831014610d2e57565b634e487b7160e01b600052602260045260246000fd5b91607f1691610d23565b6101c081019081106001600160401b0382111761060f57604052565b90601f801991011681019081106001600160401b0382111761060f57604052565b9181601f84011215610074578235916001600160401b038311610074576020838186019501011161007457565b6000198114610dc75760010190565b634e487b7160e01b600052601160045260246000fd5b9291926001600160401b03821161060f5760405191610e06601f8201601f191660200184610d6a565b829481845281830111610074578281602093846000960137010152565b90600881101561025957815460ff60a81b191660a89190911b60ff60a81b1617905556fea26469706673582212209a5bfe224979b2011465c50341aa6ac4c8f7381e8d52be7c9754fdbba96eb6f364736f6c63430008140033","opcodes":"PUSH1 0x80 DUP1 PUSH1 0x40 MSTORE CALLVALUE PUSH2 0x16 JUMPI PUSH2 0xE7D SWAP1 DUP2 PUSH2 0x1C DUP3 CODECOPY RETURN JUMPDEST PUSH1 0x0 DUP1 REVERT INVALID PUSH1 0x80 DUP1 PUSH1 0x40 MSTORE PUSH1 0x4 CALLDATASIZE LT ISZERO PUSH2 0x13 JUMPI PUSH1 0x0 DUP1 REVERT JUMPDEST PUSH1 0x0 CALLDATALOAD PUSH1 0xE0 SHR SWAP1 DUP2 PUSH4 0x4768D4EF EQ PUSH2 0xB4F JUMPI POP DUP1 PUSH4 0x6577247A EQ PUSH2 0x625 JUMPI DUP1 PUSH4 0xB47F0F03 EQ PUSH2 0x26F JUMPI DUP1 PUSH4 0xBEBCD21E EQ PUSH2 0x79 JUMPI PUSH4 0xC5ADF7C9 EQ PUSH2 0x56 JUMPI PUSH1 0x0 DUP1 REVERT JUMPDEST CALLVALUE PUSH2 0x74 JUMPI PUSH1 0x0 CALLDATASIZE PUSH1 0x3 NOT ADD SLT PUSH2 0x74 JUMPI PUSH1 0x20 PUSH1 0x0 SLOAD PUSH1 0x40 MLOAD SWAP1 DUP2 MSTORE RETURN JUMPDEST PUSH1 0x0 DUP1 REVERT JUMPDEST CALLVALUE PUSH2 0x74 JUMPI PUSH1 0x20 DUP1 PUSH1 0x3 NOT CALLDATASIZE ADD SLT PUSH2 0x74 JUMPI PUSH1 0x4 CALLDATALOAD SWAP1 DUP2 PUSH1 0x0 MSTORE PUSH1 0x1 DUP2 MSTORE PUSH1 0x40 PUSH1 0x0 KECCAK256 PUSH1 0x1 DUP2 ADD SWAP1 DUP2 SLOAD SWAP1 PUSH1 0xFF DUP3 PUSH1 0xA8 SHR AND PUSH1 0x8 DUP2 LT ISZERO PUSH2 0x259 JUMPI PUSH1 0x1 SUB PUSH2 0x214 JUMPI PUSH1 0xFF DUP3 PUSH1 0xA0 SHR AND ISZERO PUSH2 0x1D8 JUMPI PUSH1 0x1 PUSH1 0x1 PUSH1 0xA0 SHL SUB DUP3 AND CALLER SUB PUSH2 0x193 JUMPI PUSH1 0x2 ADD SLOAD PUSH1 0x1 PUSH1 0x1 PUSH1 0x40 SHL SUB AND TIMESTAMP LT ISZERO PUSH2 0x14E JUMPI PUSH1 0xFF PUSH1 0xA8 SHL NOT AND PUSH1 0x1 PUSH1 0xA9 SHL OR SWAP1 SSTORE PUSH1 0x40 MLOAD PUSH32 0x45B5B5DF6725344DA5E2D0ACC43327098C83EE0A91E8A864693668FFB84E5C31 SWAP2 SWAP1 CALLER DUP5 PUSH32 0x3B8D451BC77CB8362426B579170661CA3515D7FA4C08B9627C660328F0311008 PUSH1 0x0 DUP1 LOG3 PUSH1 0x2 DUP2 MSTORE LOG2 STOP JUMPDEST PUSH1 0x40 MLOAD PUSH3 0x461BCD PUSH1 0xE5 SHL DUP2 MSTORE PUSH1 0x4 DUP2 ADD DUP5 SWAP1 MSTORE PUSH1 0x1B PUSH1 0x24 DUP3 ADD MSTORE PUSH32 0x5375646F6B754172656E613A2061636365707420657870697265640000000000 PUSH1 0x44 DUP3 ADD MSTORE PUSH1 0x64 SWAP1 REVERT JUMPDEST PUSH1 0x40 MLOAD PUSH3 0x461BCD PUSH1 0xE5 SHL DUP2 MSTORE PUSH1 0x4 DUP2 ADD DUP6 SWAP1 MSTORE PUSH1 0x19 PUSH1 0x24 DUP3 ADD MSTORE PUSH32 0x5375646F6B754172656E613A206E6F74206F70706F6E656E7400000000000000 PUSH1 0x44 DUP3 ADD MSTORE PUSH1 0x64 SWAP1 REVERT JUMPDEST PUSH1 0x40 MLOAD PUSH3 0x461BCD PUSH1 0xE5 SHL DUP2 MSTORE PUSH1 0x4 DUP2 ADD DUP6 SWAP1 MSTORE PUSH1 0x14 PUSH1 0x24 DUP3 ADD MSTORE PUSH20 0x5375646F6B754172656E613A206E6F742070767 PUSH1 0x64 SHL PUSH1 0x44 DUP3 ADD MSTORE PUSH1 0x64 SWAP1 REVERT JUMPDEST PUSH1 0x40 MLOAD PUSH3 0x461BCD PUSH1 0xE5 SHL DUP2 MSTORE PUSH1 0x4 DUP2 ADD DUP6 SWAP1 MSTORE PUSH1 0x18 PUSH1 0x24 DUP3 ADD MSTORE PUSH32 0x5375646F6B754172656E613A206E6F7420637265617465640000000000000000 PUSH1 0x44 DUP3 ADD MSTORE PUSH1 0x64 SWAP1 REVERT JUMPDEST PUSH4 0x4E487B71 PUSH1 0xE0 SHL PUSH1 0x0 MSTORE PUSH1 0x21 PUSH1 0x4 MSTORE PUSH1 0x24 PUSH1 0x0 REVERT JUMPDEST CALLVALUE PUSH2 0x74 JUMPI PUSH1 0x80 CALLDATASIZE PUSH1 0x3 NOT ADD SLT PUSH2 0x74 JUMPI PUSH1 0x4 CALLDATALOAD PUSH4 0xFFFFFFFF DUP2 AND DUP2 SUB PUSH2 0x74 JUMPI PUSH1 0x24 CALLDATALOAD PUSH1 0xFF DUP2 AND DUP2 SUB PUSH2 0x74 JUMPI PUSH1 0x64 CALLDATALOAD PUSH1 0x1 PUSH1 0x1 PUSH1 0x40 SHL SUB DUP2 GT PUSH2 0x74 JUMPI PUSH2 0x2BC SWAP1 CALLDATASIZE SWAP1 PUSH1 0x4 ADD PUSH2 0xD8B JUMP JUMPDEST SWAP3 SWAP1 SWAP2 PUSH2 0x352 PUSH2 0x2CD PUSH1 0x0 SLOAD PUSH2 0xDB8 JUMP JUMPDEST SWAP4 DUP5 PUSH1 0x0 SSTORE PUSH1 0x40 MLOAD SWAP6 PUSH2 0x2DF DUP8 PUSH2 0xD4E JUMP JUMPDEST CALLER DUP8 MSTORE PUSH1 0x0 PUSH1 0x20 DUP9 ADD MSTORE PUSH1 0x0 PUSH1 0x40 DUP9 ADD MSTORE PUSH1 0x1 PUSH1 0x60 DUP9 ADD MSTORE PUSH1 0x1 PUSH1 0x1 PUSH1 0x40 SHL SUB TIMESTAMP AND PUSH1 0x80 DUP9 ADD MSTORE PUSH1 0x0 PUSH1 0xA0 DUP9 ADD MSTORE PUSH1 0x0 PUSH1 0xC0 DUP9 ADD MSTORE PUSH4 0xFFFFFFFF DUP6 AND PUSH1 0xE0 DUP9 ADD MSTORE PUSH1 0x0 PUSH2 0x100 DUP9 ADD MSTORE PUSH1 0x0 PUSH2 0x120 DUP9 ADD MSTORE PUSH1 0x0 PUSH2 0x140 DUP9 ADD MSTORE PUSH1 0xFF DUP5 AND PUSH2 0x160 DUP9 ADD MSTORE PUSH1 0x44 CALLDATALOAD PUSH2 0x180 DUP9 ADD MSTORE CALLDATASIZE SWAP2 PUSH2 0xDDD JUMP JUMPDEST PUSH2 0x1A0 DUP6 ADD MSTORE DUP3 PUSH1 0x0 MSTORE PUSH1 0x1 PUSH1 0x20 MSTORE PUSH1 0x40 PUSH1 0x0 KECCAK256 PUSH1 0x1 DUP1 PUSH1 0xA0 SHL SUB DUP1 DUP7 MLOAD AND PUSH1 0x1 PUSH1 0x1 PUSH1 0x60 SHL SUB PUSH1 0xA0 SHL DUP4 SLOAD AND OR DUP3 SSTORE PUSH1 0x20 DUP7 ADD MLOAD AND PUSH1 0x1 DUP3 ADD SLOAD SWAP1 PUSH1 0xFF PUSH1 0xA0 SHL PUSH1 0x40 DUP9 ADD MLOAD ISZERO ISZERO PUSH1 0xA0 SHL AND SWAP2 PUSH11 0xFFFFFFFFFFFFFFFFFFFFFF PUSH1 0xA8 SHL AND OR OR PUSH1 0x1 DUP3 ADD SSTORE PUSH1 0x60 DUP6 ADD MLOAD PUSH1 0x8 DUP2 LT ISZERO PUSH2 0x259 JUMPI DUP2 PUSH2 0x3D7 PUSH1 0x8 SWAP3 PUSH1 0x1 PUSH2 0x1A0 SWAP6 ADD PUSH2 0xE23 JUMP JUMPDEST PUSH1 0x80 DUP8 ADD MLOAD PUSH1 0x1 DUP3 ADD SLOAD SWAP1 PUSH1 0x1 PUSH1 0x1 PUSH1 0x40 SHL SUB PUSH1 0xB0 SHL SWAP1 PUSH1 0xB0 SHL AND SWAP1 PUSH1 0x1 PUSH1 0x1 PUSH1 0x40 SHL SUB PUSH1 0xB0 SHL NOT AND OR PUSH1 0x1 DUP3 ADD SSTORE PUSH1 0x2 DUP2 ADD PUSH1 0x1 PUSH1 0x1 PUSH1 0x40 SHL SUB PUSH1 0xA0 DUP10 ADD MLOAD AND DUP2 SLOAD SWAP1 PUSH8 0xFFFFFFFFFFFFFFFF PUSH1 0x40 SHL PUSH1 0xC0 DUP12 ADD MLOAD PUSH1 0x40 SHL AND SWAP1 PUSH4 0xFFFFFFFF PUSH1 0x80 SHL PUSH1 0xE0 DUP13 ADD MLOAD PUSH1 0x80 SHL AND SWAP3 PUSH1 0x1 PUSH1 0x1 PUSH1 0x60 SHL SUB PUSH1 0xA0 SHL AND OR OR OR SWAP1 SSTORE PUSH2 0x100 DUP8 ADD MLOAD PUSH1 0x3 DUP3 ADD SSTORE PUSH2 0x120 DUP8 ADD MLOAD PUSH1 0x4 DUP3 ADD SSTORE PUSH2 0x140 DUP8 ADD MLOAD PUSH1 0x5 DUP3 ADD SSTORE PUSH1 0x6 DUP2 ADD PUSH1 0xFF PUSH2 0x160 DUP10 ADD MLOAD AND PUSH1 0xFF NOT DUP3 SLOAD AND OR SWAP1 SSTORE PUSH2 0x180 DUP8 ADD MLOAD PUSH1 0x7 DUP3 ADD SSTORE ADD SWAP5 ADD MLOAD SWAP4 DUP5 MLOAD PUSH1 0x1 PUSH1 0x1 PUSH1 0x40 SHL SUB DUP2 GT PUSH2 0x60F JUMPI PUSH2 0x4B5 DUP3 SLOAD PUSH2 0xD14 JUMP JUMPDEST SWAP6 PUSH1 0x1F DUP8 GT PUSH2 0x5C7 JUMPI JUMPDEST PUSH1 0x20 SWAP7 POP DUP7 SWAP1 PUSH1 0x1F DUP4 GT PUSH1 0x1 EQ PUSH2 0x55B JUMPI SWAP2 DUP1 PUSH1 0xFF SWAP5 SWAP3 PUSH1 0x0 SWAP8 SWAP7 SWAP5 DUP9 SWAP3 PUSH2 0x550 JUMPI JUMPDEST POP POP DUP2 PUSH1 0x1 SHL SWAP2 DUP8 NOT SWAP1 PUSH1 0x3 SHL SHR NOT AND OR SWAP1 SSTORE JUMPDEST PUSH4 0xFFFFFFFF PUSH1 0x40 MLOAD SWAP4 DUP6 DUP6 MSTORE AND DUP7 DUP5 ADD MSTORE DUP4 PUSH1 0x40 DUP5 ADD MSTORE DUP4 PUSH1 0x60 DUP5 ADD MSTORE AND PUSH1 0x80 DUP3 ADD MSTORE PUSH1 0x44 CALLDATALOAD PUSH1 0xA0 DUP3 ADD MSTORE DUP3 PUSH32 0xBE8AAE938D8F8784025F4A2713894112D436DDC89DB4EC90513469021655D332 PUSH1 0xC0 CALLER SWAP4 LOG4 PUSH1 0x40 MLOAD SWAP1 DUP2 MSTORE RETURN JUMPDEST ADD MLOAD SWAP1 POP DUP10 DUP1 PUSH2 0x4E2 JUMP JUMPDEST SWAP1 PUSH1 0x1F NOT DUP4 AND SWAP2 DUP5 PUSH1 0x0 MSTORE DUP9 PUSH1 0x0 KECCAK256 SWAP3 PUSH1 0x0 JUMPDEST DUP2 DUP2 LT PUSH2 0x5B0 JUMPI POP SWAP3 PUSH1 0x1 SWAP3 DUP6 SWAP3 PUSH1 0x0 SWAP10 SWAP9 SWAP7 PUSH1 0xFF SWAP9 SWAP7 LT PUSH2 0x598 JUMPI JUMPDEST POP POP POP DUP2 SHL ADD SWAP1 SSTORE PUSH2 0x4F6 JUMP JUMPDEST ADD MLOAD DUP9 NOT PUSH1 0xF8 DUP5 PUSH1 0x3 SHL AND SHR NOT AND SWAP1 SSTORE DUP10 DUP1 DUP1 PUSH2 0x58B JUMP JUMPDEST SWAP3 SWAP4 DUP11 PUSH1 0x1 DUP2 SWAP3 DUP8 DUP7 ADD MLOAD DUP2 SSTORE ADD SWAP6 ADD SWAP4 ADD PUSH2 0x56E JUMP JUMPDEST DUP3 PUSH1 0x0 MSTORE PUSH1 0x20 PUSH1 0x0 KECCAK256 PUSH1 0x1F DUP4 ADD PUSH1 0x5 SHR DUP2 ADD SWAP8 PUSH1 0x20 DUP5 LT PUSH2 0x605 JUMPI JUMPDEST PUSH1 0x1F ADD PUSH1 0x5 SHR ADD SWAP7 JUMPDEST DUP8 DUP2 LT PUSH2 0x5F9 JUMPI POP PUSH2 0x4BF JUMP JUMPDEST PUSH1 0x0 DUP2 SSTORE PUSH1 0x1 ADD PUSH2 0x5EC JUMP JUMPDEST SWAP1 SWAP8 POP DUP8 SWAP1 PUSH2 0x5E3 JUMP JUMPDEST PUSH4 0x4E487B71 PUSH1 0xE0 SHL PUSH1 0x0 MSTORE PUSH1 0x41 PUSH1 0x4 MSTORE PUSH1 0x24 PUSH1 0x0 REVERT JUMPDEST CALLVALUE PUSH2 0x74 JUMPI PUSH1 0xE0 CALLDATASIZE PUSH1 0x3 NOT ADD SLT PUSH2 0x74 JUMPI PUSH1 0x4 CALLDATALOAD PUSH1 0x1 PUSH1 0x1 PUSH1 0xA0 SHL SUB DUP2 AND DUP2 SUB PUSH2 0x74 JUMPI PUSH1 0x24 CALLDATALOAD PUSH4 0xFFFFFFFF DUP2 AND DUP2 SUB PUSH2 0x74 JUMPI PUSH1 0x44 CALLDATALOAD SWAP1 PUSH1 0x1 PUSH1 0x1 PUSH1 0x40 SHL SUB DUP3 AND DUP3 SUB PUSH2 0x74 JUMPI PUSH1 0x64 CALLDATALOAD SWAP3 PUSH1 0x1 PUSH1 0x1 PUSH1 0x40 SHL SUB DUP5 AND DUP5 SUB PUSH2 0x74 JUMPI PUSH1 0x84 CALLDATALOAD PUSH1 0xFF DUP2 AND DUP2 SUB PUSH2 0x74 JUMPI PUSH1 0xC4 CALLDATALOAD PUSH1 0x1 PUSH1 0x1 PUSH1 0x40 SHL SUB DUP2 GT PUSH2 0x74 JUMPI PUSH2 0x6AD SWAP1 CALLDATASIZE SWAP1 PUSH1 0x4 ADD PUSH2 0xD8B JUMP JUMPDEST SWAP6 SWAP1 SWAP5 PUSH1 0x1 PUSH1 0x1 PUSH1 0xA0 SHL SUB DUP5 AND ISZERO PUSH2 0xB0A JUMPI TIMESTAMP PUSH1 0x1 PUSH1 0x1 PUSH1 0x40 SHL SUB DUP3 AND GT ISZERO PUSH2 0xAC5 JUMPI PUSH1 0x1 PUSH1 0x1 PUSH1 0x40 SHL SUB DUP2 AND PUSH1 0x1 PUSH1 0x1 PUSH1 0x40 SHL SUB DUP4 AND GT ISZERO PUSH2 0xA81 JUMPI PUSH2 0x794 PUSH2 0x6F8 PUSH1 0x0 SLOAD PUSH2 0xDB8 JUMP JUMPDEST SWAP7 DUP8 PUSH1 0x0 SSTORE PUSH1 0x40 MLOAD SWAP9 PUSH2 0x70A DUP11 PUSH2 0xD4E JUMP JUMPDEST CALLER DUP11 MSTORE PUSH1 0x1 DUP1 PUSH1 0xA0 SHL SUB DUP8 AND PUSH1 0x20 DUP12 ADD MSTORE PUSH1 0x1 PUSH1 0x40 DUP12 ADD MSTORE PUSH1 0x1 PUSH1 0x60 DUP12 ADD MSTORE PUSH1 0x1 PUSH1 0x1 PUSH1 0x40 SHL SUB TIMESTAMP AND PUSH1 0x80 DUP12 ADD MSTORE PUSH1 0x1 PUSH1 0x1 PUSH1 0x40 SHL SUB DUP5 AND PUSH1 0xA0 DUP12 ADD MSTORE PUSH1 0x1 PUSH1 0x1 PUSH1 0x40 SHL SUB DUP6 AND PUSH1 0xC0 DUP12 ADD MSTORE PUSH4 0xFFFFFFFF DUP9 AND PUSH1 0xE0 DUP12 ADD MSTORE PUSH1 0x0 PUSH2 0x100 DUP12 ADD MSTORE PUSH1 0x0 PUSH2 0x120 DUP12 ADD MSTORE PUSH1 0x0 PUSH2 0x140 DUP12 ADD MSTORE PUSH1 0xFF DUP7 AND PUSH2 0x160 DUP12 ADD MSTORE PUSH1 0xA4 CALLDATALOAD PUSH2 0x180 DUP12 ADD MSTORE CALLDATASIZE SWAP2 PUSH2 0xDDD JUMP JUMPDEST PUSH2 0x1A0 DUP9 ADD MSTORE DUP6 PUSH1 0x0 MSTORE PUSH1 0x1 PUSH1 0x20 MSTORE PUSH1 0x40 PUSH1 0x0 KECCAK256 SWAP7 PUSH1 0x1 DUP1 PUSH1 0xA0 SHL SUB DUP2 MLOAD AND PUSH1 0x1 PUSH1 0x1 PUSH1 0x60 SHL SUB PUSH1 0xA0 SHL DUP10 SLOAD AND OR DUP9 SSTORE PUSH1 0x1 DUP1 PUSH1 0xA0 SHL SUB PUSH1 0x20 DUP3 ADD MLOAD AND PUSH1 0x1 DUP10 ADD SLOAD SWAP1 PUSH1 0xFF PUSH1 0xA0 SHL PUSH1 0x40 DUP5 ADD MLOAD ISZERO ISZERO PUSH1 0xA0 SHL AND SWAP2 PUSH11 0xFFFFFFFFFFFFFFFFFFFFFF PUSH1 0xA8 SHL AND OR OR PUSH1 0x1 DUP10 ADD SSTORE PUSH1 0x60 DUP2 ADD MLOAD SWAP1 PUSH1 0x8 DUP3 LT ISZERO PUSH2 0x259 JUMPI PUSH2 0x81E PUSH2 0x1A0 SWAP3 PUSH1 0x1 DUP12 ADD PUSH2 0xE23 JUMP JUMPDEST PUSH1 0x80 DUP2 ADD MLOAD PUSH1 0x1 DUP11 ADD SLOAD SWAP1 PUSH1 0x1 PUSH1 0x1 PUSH1 0x40 SHL SUB PUSH1 0xB0 SHL SWAP1 PUSH1 0xB0 SHL AND SWAP1 PUSH1 0x1 PUSH1 0x1 PUSH1 0x40 SHL SUB PUSH1 0xB0 SHL NOT AND OR PUSH1 0x1 DUP11 ADD SSTORE PUSH1 0x2 DUP10 ADD PUSH1 0x1 PUSH1 0x1 PUSH1 0x40 SHL SUB PUSH1 0xA0 DUP4 ADD MLOAD AND DUP2 SLOAD SWAP1 PUSH8 0xFFFFFFFFFFFFFFFF PUSH1 0x40 SHL PUSH1 0xC0 DUP6 ADD MLOAD PUSH1 0x40 SHL AND SWAP1 PUSH4 0xFFFFFFFF PUSH1 0x80 SHL PUSH1 0xE0 DUP7 ADD MLOAD PUSH1 0x80 SHL AND SWAP3 PUSH1 0x1 PUSH1 0x1 PUSH1 0x60 SHL SUB PUSH1 0xA0 SHL AND OR OR OR SWAP1 SSTORE PUSH2 0x100 DUP2 ADD MLOAD PUSH1 0x3 DUP11 ADD SSTORE PUSH2 0x120 DUP2 ADD MLOAD PUSH1 0x4 DUP11 ADD SSTORE PUSH2 0x140 DUP2 ADD MLOAD PUSH1 0x5 DUP11 ADD SSTORE PUSH1 0x6 DUP10 ADD PUSH1 0xFF PUSH2 0x160 DUP4 ADD MLOAD AND PUSH1 0xFF NOT DUP3 SLOAD AND OR SWAP1 SSTORE PUSH2 0x180 DUP2 ADD MLOAD PUSH1 0x7 DUP11 ADD SSTORE ADD MLOAD SWAP7 DUP8 MLOAD PUSH1 0x1 PUSH1 0x1 PUSH1 0x40 SHL SUB DUP2 GT PUSH2 0x60F JUMPI PUSH2 0x8FD PUSH1 0x8 DUP4 ADD SLOAD PUSH2 0xD14 JUMP JUMPDEST SWAP9 PUSH1 0x1F DUP11 GT PUSH2 0xA36 JUMPI JUMPDEST PUSH1 0x20 SWAP10 POP DUP10 SWAP1 PUSH1 0x1F DUP4 GT PUSH1 0x1 EQ PUSH2 0x9BB JUMPI SWAP3 PUSH1 0x8 DUP4 PUSH1 0x1 PUSH1 0x1 PUSH1 0x40 SHL SUB SWAP7 SWAP4 SWAP5 DUP8 SWAP6 PUSH1 0xFF SWAP11 SWAP10 SWAP8 PUSH1 0x0 SWAP3 PUSH2 0x9B0 JUMPI JUMPDEST POP POP DUP2 PUSH1 0x1 SHL SWAP2 PUSH1 0x0 NOT SWAP1 PUSH1 0x3 SHL SHR NOT AND OR SWAP2 ADD SSTORE JUMPDEST PUSH4 0xFFFFFFFF PUSH1 0x40 MLOAD SWAP9 PUSH1 0x1 DUP11 MSTORE AND DUP11 DUP10 ADD MSTORE AND PUSH1 0x40 DUP8 ADD MSTORE AND PUSH1 0x60 DUP6 ADD MSTORE AND PUSH1 0x80 DUP4 ADD MSTORE PUSH1 0xA4 CALLDATALOAD PUSH1 0xA0 DUP4 ADD MSTORE PUSH1 0x1 DUP1 PUSH1 0xA0 SHL SUB AND SWAP1 DUP3 PUSH32 0xBE8AAE938D8F8784025F4A2713894112D436DDC89DB4EC90513469021655D332 PUSH1 0xC0 CALLER SWAP4 LOG4 PUSH1 0x40 MLOAD SWAP1 DUP2 MSTORE RETURN JUMPDEST ADD MLOAD SWAP1 POP DUP15 DUP1 PUSH2 0x936 JUMP JUMPDEST SWAP1 PUSH1 0x1F NOT DUP4 AND SWAP2 PUSH1 0x8 DUP6 ADD PUSH1 0x0 MSTORE DUP12 PUSH1 0x0 KECCAK256 SWAP3 PUSH1 0x0 JUMPDEST DUP2 DUP2 LT PUSH2 0xA1F JUMPI POP DUP5 PUSH1 0x1 PUSH1 0x1 PUSH1 0x40 SHL SUB SWAP8 SWAP5 PUSH1 0xFF SWAP11 SWAP10 SWAP8 SWAP5 PUSH1 0x8 SWAP5 DUP11 SWAP9 PUSH1 0x1 SWAP6 LT PUSH2 0xA06 JUMPI JUMPDEST POP POP POP DUP2 SHL ADD SWAP2 ADD SSTORE PUSH2 0x94C JUMP JUMPDEST ADD MLOAD PUSH1 0x0 NOT PUSH1 0xF8 DUP5 PUSH1 0x3 SHL AND SHR NOT AND SWAP1 SSTORE DUP15 DUP1 DUP1 PUSH2 0x9F8 JUMP JUMPDEST SWAP3 SWAP4 DUP14 PUSH1 0x1 DUP2 SWAP3 DUP8 DUP7 ADD MLOAD DUP2 SSTORE ADD SWAP6 ADD SWAP4 ADD PUSH2 0x9D1 JUMP JUMPDEST PUSH1 0x8 DUP4 ADD PUSH1 0x0 MSTORE PUSH1 0x20 PUSH1 0x0 KECCAK256 PUSH1 0x1F DUP4 ADD PUSH1 0x5 SHR DUP2 ADD SWAP11 PUSH1 0x20 DUP5 LT PUSH2 0xA77 JUMPI JUMPDEST PUSH1 0x1F ADD PUSH1 0x5 SHR ADD SWAP10 JUMPDEST DUP11 DUP2 LT PUSH2 0xA6B JUMPI POP PUSH2 0x907 JUMP JUMPDEST PUSH1 0x0 DUP2 SSTORE PUSH1 0x1 ADD PUSH2 0xA5E JUMP JUMPDEST SWAP1 SWAP11 POP DUP11 SWAP1 PUSH2 0xA55 JUMP JUMPDEST PUSH1 0x64 PUSH1 0x40 MLOAD PUSH3 0x461BCD PUSH1 0xE5 SHL DUP2 MSTORE PUSH1 0x20 PUSH1 0x4 DUP3 ADD MSTORE PUSH1 0x20 PUSH1 0x24 DUP3 ADD MSTORE PUSH32 0x5375646F6B754172656E613A207265736F6C7665427920746F6F206561726C79 PUSH1 0x44 DUP3 ADD MSTORE REVERT JUMPDEST PUSH1 0x40 MLOAD PUSH3 0x461BCD PUSH1 0xE5 SHL DUP2 MSTORE PUSH1 0x20 PUSH1 0x4 DUP3 ADD MSTORE PUSH1 0x1D PUSH1 0x24 DUP3 ADD MSTORE PUSH32 0x5375646F6B754172656E613A20616363657074427920696E2070617374000000 PUSH1 0x44 DUP3 ADD MSTORE PUSH1 0x64 SWAP1 REVERT JUMPDEST PUSH1 0x40 MLOAD PUSH3 0x461BCD PUSH1 0xE5 SHL DUP2 MSTORE PUSH1 0x20 PUSH1 0x4 DUP3 ADD MSTORE PUSH1 0x1D PUSH1 0x24 DUP3 ADD MSTORE PUSH32 0x5375646F6B754172656E613A206F70706F6E656E74206973207A65726F000000 PUSH1 0x44 DUP3 ADD MSTORE PUSH1 0x64 SWAP1 REVERT JUMPDEST CALLVALUE PUSH2 0x74 JUMPI PUSH1 0x20 SWAP1 DUP2 PUSH1 0x3 NOT CALLDATASIZE ADD SLT PUSH2 0x74 JUMPI PUSH1 0x4 CALLDATALOAD PUSH1 0x0 MSTORE PUSH1 0x1 DUP3 MSTORE PUSH1 0x40 PUSH1 0x0 KECCAK256 SWAP2 PUSH1 0x1 DUP1 PUSH1 0xA0 SHL SUB SWAP3 DUP4 DUP2 SLOAD AND SWAP4 PUSH1 0x1 DUP3 ADD SLOAD PUSH1 0x2 DUP4 ADD SLOAD SWAP1 PUSH1 0x3 DUP5 ADD SLOAD PUSH1 0x4 DUP6 ADD SLOAD SWAP2 PUSH1 0x5 DUP7 ADD SLOAD SWAP4 PUSH1 0xFF PUSH1 0x6 DUP9 ADD SLOAD AND SWAP6 PUSH1 0x8 PUSH1 0x7 DUP10 ADD SLOAD SWAP9 ADD DUP11 PUSH1 0x0 DUP3 SLOAD SWAP3 PUSH2 0xBBC DUP5 PUSH2 0xD14 JUMP JUMPDEST SWAP4 DUP5 DUP5 MSTORE DUP14 PUSH1 0x1 DUP3 AND SWAP2 DUP3 PUSH1 0x0 EQ PUSH2 0xCF4 JUMPI POP POP PUSH1 0x1 EQ PUSH2 0xCB6 JUMPI JUMPDEST POP PUSH2 0xBE5 SWAP3 POP SUB DUP12 PUSH2 0xD6A JUMP JUMPDEST PUSH1 0x40 MLOAD SWAP11 DUP12 MSTORE DUP3 AND DUP9 DUP12 ADD MSTORE PUSH1 0xFF DUP3 PUSH1 0xA0 SHR AND ISZERO ISZERO PUSH1 0x40 DUP12 ADD MSTORE PUSH1 0xFF DUP3 PUSH1 0xA8 SHR AND SWAP2 PUSH1 0x8 DUP4 LT ISZERO PUSH2 0x259 JUMPI PUSH4 0xFFFFFFFF SWAP3 PUSH1 0x60 DUP13 ADD MSTORE PUSH1 0x1 PUSH1 0x1 PUSH1 0x40 SHL SUB DUP1 SWAP2 PUSH1 0xB0 SHR AND PUSH1 0x80 DUP13 ADD MSTORE DUP1 DUP3 AND PUSH1 0xA0 DUP13 ADD MSTORE DUP2 PUSH1 0x40 SHR AND PUSH1 0xC0 DUP12 ADD MSTORE PUSH1 0x80 SHR AND PUSH1 0xE0 DUP10 ADD MSTORE PUSH2 0x100 DUP9 ADD MSTORE PUSH2 0x120 DUP8 ADD MSTORE PUSH2 0x140 DUP7 ADD MSTORE PUSH2 0x160 DUP6 ADD MSTORE PUSH2 0x180 DUP5 ADD MSTORE PUSH2 0x1C0 SWAP2 DUP3 PUSH2 0x1A0 DUP6 ADD MSTORE DUP1 MLOAD DUP1 SWAP4 DUP6 ADD MSTORE PUSH1 0x0 JUMPDEST DUP4 DUP2 LT PUSH2 0xCA1 JUMPI POP POP POP DUP2 PUSH2 0x1E0 SWAP2 PUSH1 0x0 DUP4 DUP3 DUP5 ADD ADD MSTORE PUSH1 0x1F DUP1 NOT SWAP2 ADD AND DUP2 ADD SUB ADD SWAP1 RETURN JUMPDEST DUP2 DUP2 ADD DUP4 ADD MLOAD DUP6 DUP3 ADD PUSH2 0x1E0 ADD MSTORE DUP3 ADD PUSH2 0xC7C JUMP JUMPDEST SWAP2 POP POP PUSH1 0x0 MSTORE DUP11 DUP11 DUP1 PUSH1 0x0 KECCAK256 PUSH1 0x0 SWAP1 JUMPDEST DUP5 DUP3 LT PUSH2 0xCDC JUMPI POP PUSH2 0xBE5 SWAP4 POP DUP3 ADD ADD DUP15 PUSH2 0xBD8 JUMP JUMPDEST DUP2 SWAP4 DUP4 PUSH1 0x1 SWAP4 DUP4 SLOAD SWAP3 ADD ADD MSTORE ADD SWAP2 ADD DUP12 SWAP1 DUP14 SWAP3 PUSH2 0xCC6 JUMP JUMPDEST SWAP2 POP SWAP3 POP PUSH2 0xBE5 SWAP5 SWAP2 POP PUSH1 0xFF NOT AND DUP3 DUP5 ADD MSTORE ISZERO ISZERO PUSH1 0x5 SHL DUP3 ADD ADD DUP15 PUSH2 0xBD8 JUMP JUMPDEST SWAP1 PUSH1 0x1 DUP3 DUP2 SHR SWAP3 AND DUP1 ISZERO PUSH2 0xD44 JUMPI JUMPDEST PUSH1 0x20 DUP4 LT EQ PUSH2 0xD2E JUMPI JUMP JUMPDEST PUSH4 0x4E487B71 PUSH1 0xE0 SHL PUSH1 0x0 MSTORE PUSH1 0x22 PUSH1 0x4 MSTORE PUSH1 0x24 PUSH1 0x0 REVERT JUMPDEST SWAP2 PUSH1 0x7F AND SWAP2 PUSH2 0xD23 JUMP JUMPDEST PUSH2 0x1C0 DUP2 ADD SWAP1 DUP2 LT PUSH1 0x1 PUSH1 0x1 PUSH1 0x40 SHL SUB DUP3 GT OR PUSH2 0x60F JUMPI PUSH1 0x40 MSTORE JUMP JUMPDEST SWAP1 PUSH1 0x1F DUP1 NOT SWAP2 ADD AND DUP2 ADD SWAP1 DUP2 LT PUSH1 0x1 PUSH1 0x1 PUSH1 0x40 SHL SUB DUP3 GT OR PUSH2 0x60F JUMPI PUSH1 0x40 MSTORE JUMP JUMPDEST SWAP2 DUP2 PUSH1 0x1F DUP5 ADD SLT ISZERO PUSH2 0x74 JUMPI DUP3 CALLDATALOAD SWAP2 PUSH1 0x1 PUSH1 0x1 PUSH1 0x40 SHL SUB DUP4 GT PUSH2 0x74 JUMPI PUSH1 0x20 DUP4 DUP2 DUP7 ADD SWAP6 ADD ADD GT PUSH2 0x74 JUMPI JUMP JUMPDEST PUSH1 0x0 NOT DUP2 EQ PUSH2 0xDC7 JUMPI PUSH1 0x1 ADD SWAP1 JUMP JUMPDEST PUSH4 0x4E487B71 PUSH1 0xE0 SHL PUSH1 0x0 MSTORE PUSH1 0x11 PUSH1 0x4 MSTORE PUSH1 0x24 PUSH1 0x0 REVERT JUMPDEST SWAP3 SWAP2 SWAP3 PUSH1 0x1 PUSH1 0x1 PUSH1 0x40 SHL SUB DUP3 GT PUSH2 0x60F JUMPI PUSH1 0x40 MLOAD SWAP2 PUSH2 0xE06 PUSH1 0x1F DUP3 ADD PUSH1 0x1F NOT AND PUSH1 0x20 ADD DUP5 PUSH2 0xD6A JUMP JUMPDEST DUP3 SWAP5 DUP2 DUP5 MSTORE DUP2 DUP4 ADD GT PUSH2 0x74 JUMPI DUP3 DUP2 PUSH1 0x20 SWAP4 DUP5 PUSH1 0x0 SWAP7 ADD CALLDATACOPY ADD ADD MSTORE JUMP JUMPDEST SWAP1 PUSH1 0x8 DUP2 LT ISZERO PUSH2 0x259 JUMPI DUP2 SLOAD PUSH1 0xFF PUSH1 0xA8 SHL NOT AND PUSH1 0xA8 SWAP2 SWAP1 SWAP2 SHL PUSH1 0xFF PUSH1 0xA8 SHL AND OR SWAP1 SSTORE JUMP INVALID LOG2 PUSH5 0x6970667358 0x22 SLT KECCAK256 SWAP11 JUMPDEST INVALID 0x22 0x49 PUSH26 0xB2011465C50341AA6AC4C8F7381E8D52BE7C9754FDBBA96EB6F3 PUSH5 0x736F6C6343 STOP ADDMOD EQ STOP CALLER "},"methodIdentifiers":{"acceptMatch(uint256)":"bebcd21e","createPveMatch(uint32,uint8,bytes32,bytes)":"b47f0f03","createPvpMatch(address,uint32,uint64,uint64,uint8,bytes32,bytes)":"6577247a","matches(uint256)":"4768d4ef","nextMatchId()":"c5adf7c9"}}}}}