{"contracts/ArcadeEscrow.sol":{"ArcadeEscrow":{"abi":[{"inputs":[],"stateMutability":"nonpayable","type":"constructor"},{"inputs":[],"name":"AccessControlBadConfirmation","type":"error"},{"inputs":[{"internalType":"address","name":"account","type":"address"},{"internalType":"bytes32","name":"neededRole","type":"bytes32"}],"name":"AccessControlUnauthorizedAccount","type":"error"},{"inputs":[],"name":"ReentrancyGuardReentrantCall","type":"error"},{"anonymous":false,"inputs":[{"indexed":true,"internalType":"uint256","name":"matchId","type":"uint256"},{"indexed":true,"internalType":"address","name":"opponent","type":"address"}],"name":"ChallengeAccepted","type":"event"},{"anonymous":false,"inputs":[{"indexed":true,"internalType":"uint256","name":"matchId","type":"uint256"},{"indexed":true,"internalType":"address","name":"creator","type":"address"},{"indexed":true,"internalType":"address","name":"opponent","type":"address"},{"indexed":false,"internalType":"uint256","name":"wager","type":"uint256"},{"indexed":false,"internalType":"uint32","name":"gameId","type":"uint32"},{"indexed":false,"internalType":"uint64","name":"acceptBy","type":"uint64"},{"indexed":false,"internalType":"uint64","name":"resolveBy","type":"uint64"},{"indexed":false,"internalType":"bytes32","name":"metaHash","type":"bytes32"}],"name":"ChallengeCreated","type":"event"},{"anonymous":false,"inputs":[{"indexed":true,"internalType":"uint256","name":"matchId","type":"uint256"}],"name":"MatchCanceled","type":"event"},{"anonymous":false,"inputs":[{"indexed":true,"internalType":"uint256","name":"matchId","type":"uint256"},{"indexed":true,"internalType":"address","name":"winner","type":"address"},{"indexed":false,"internalType":"bytes32","name":"metaHash","type":"bytes32"}],"name":"MatchFinalized","type":"event"},{"anonymous":false,"inputs":[{"indexed":true,"internalType":"uint256","name":"matchId","type":"uint256"},{"indexed":true,"internalType":"address","name":"recipient","type":"address"},{"indexed":false,"internalType":"uint256","name":"amount","type":"uint256"}],"name":"MatchRefunded","type":"event"},{"anonymous":false,"inputs":[{"indexed":true,"internalType":"bytes32","name":"role","type":"bytes32"},{"indexed":true,"internalType":"bytes32","name":"previousAdminRole","type":"bytes32"},{"indexed":true,"internalType":"bytes32","name":"newAdminRole","type":"bytes32"}],"name":"RoleAdminChanged","type":"event"},{"anonymous":false,"inputs":[{"indexed":true,"internalType":"bytes32","name":"role","type":"bytes32"},{"indexed":true,"internalType":"address","name":"account","type":"address"},{"indexed":true,"internalType":"address","name":"sender","type":"address"}],"name":"RoleGranted","type":"event"},{"anonymous":false,"inputs":[{"indexed":true,"internalType":"bytes32","name":"role","type":"bytes32"},{"indexed":true,"internalType":"address","name":"account","type":"address"},{"indexed":true,"internalType":"address","name":"sender","type":"address"}],"name":"RoleRevoked","type":"event"},{"inputs":[],"name":"DEFAULT_ADMIN_ROLE","outputs":[{"internalType":"bytes32","name":"","type":"bytes32"}],"stateMutability":"view","type":"function"},{"inputs":[],"name":"MIN_WAGER_WEI","outputs":[{"internalType":"uint256","name":"","type":"uint256"}],"stateMutability":"view","type":"function"},{"inputs":[],"name":"REFEREE_ROLE","outputs":[{"internalType":"bytes32","name":"","type":"bytes32"}],"stateMutability":"view","type":"function"},{"inputs":[{"internalType":"uint256","name":"matchId","type":"uint256"}],"name":"acceptChallenge","outputs":[],"stateMutability":"payable","type":"function"},{"inputs":[{"internalType":"uint256","name":"matchId","type":"uint256"}],"name":"cancel","outputs":[],"stateMutability":"nonpayable","type":"function"},{"inputs":[{"internalType":"address","name":"opponent","type":"address"},{"internalType":"uint32","name":"gameId","type":"uint32"},{"internalType":"uint64","name":"acceptBy","type":"uint64"},{"internalType":"uint64","name":"resolveBy","type":"uint64"},{"internalType":"bytes32","name":"metaHash","type":"bytes32"}],"name":"createChallenge","outputs":[{"internalType":"uint256","name":"matchId","type":"uint256"}],"stateMutability":"payable","type":"function"},{"inputs":[{"internalType":"uint256","name":"matchId","type":"uint256"},{"internalType":"address","name":"winner","type":"address"},{"internalType":"bytes32","name":"metaHash","type":"bytes32"}],"name":"finalize","outputs":[],"stateMutability":"nonpayable","type":"function"},{"inputs":[{"internalType":"bytes32","name":"role","type":"bytes32"}],"name":"getRoleAdmin","outputs":[{"internalType":"bytes32","name":"","type":"bytes32"}],"stateMutability":"view","type":"function"},{"inputs":[{"internalType":"bytes32","name":"role","type":"bytes32"},{"internalType":"address","name":"account","type":"address"}],"name":"grantRole","outputs":[],"stateMutability":"nonpayable","type":"function"},{"inputs":[{"internalType":"bytes32","name":"role","type":"bytes32"},{"internalType":"address","name":"account","type":"address"}],"name":"hasRole","outputs":[{"internalType":"bool","name":"","type":"bool"}],"stateMutability":"view","type":"function"},{"inputs":[{"internalType":"uint256","name":"","type":"uint256"}],"name":"matches","outputs":[{"internalType":"address","name":"creator","type":"address"},{"internalType":"address","name":"opponent","type":"address"},{"internalType":"uint96","name":"wager","type":"uint96"},{"internalType":"uint32","name":"gameId","type":"uint32"},{"internalType":"uint64","name":"createdAt","type":"uint64"},{"internalType":"uint64","name":"acceptBy","type":"uint64"},{"internalType":"uint64","name":"resolveBy","type":"uint64"},{"internalType":"enum ArcadeEscrow.State","name":"state","type":"uint8"},{"internalType":"address","name":"winner","type":"address"},{"internalType":"bytes32","name":"metaHash","type":"bytes32"}],"stateMutability":"view","type":"function"},{"inputs":[],"name":"nextMatchId","outputs":[{"internalType":"uint256","name":"","type":"uint256"}],"stateMutability":"view","type":"function"},{"inputs":[{"internalType":"uint256","name":"matchId","type":"uint256"}],"name":"refund","outputs":[],"stateMutability":"nonpayable","type":"function"},{"inputs":[{"internalType":"bytes32","name":"role","type":"bytes32"},{"internalType":"address","name":"callerConfirmation","type":"address"}],"name":"renounceRole","outputs":[],"stateMutability":"nonpayable","type":"function"},{"inputs":[{"internalType":"bytes32","name":"role","type":"bytes32"},{"internalType":"address","name":"account","type":"address"}],"name":"revokeRole","outputs":[],"stateMutability":"nonpayable","type":"function"},{"inputs":[{"internalType":"bytes4","name":"interfaceId","type":"bytes4"}],"name":"supportsInterface","outputs":[{"internalType":"bool","name":"","type":"bool"}],"stateMutability":"view","type":"function"}],"evm":{"bytecode":{"linkReferences":{},"object":"608060405234610030576001805561001633610035565b50610020336100b3565b5060405161124490816101548239f35b600080fd5b6001600160a01b031660008181527fad3228b676f7d3cd4284a5443f17f1962b36e491b30a40b2405849e597ba5fb5602052604081205490919060ff166100af57818052816020526040822081835260205260408220600160ff1982541617905533916000805160206113988339815191528180a4600190565b5090565b6001600160a01b031660008181527f1dcbb0d5b3899d261fb4614db5d133bc5b61db0ebd82cbc5812ce71c4e7d082f60205260408120549091907faef88082b8671e875d97d0d6c81d06fb9e76f97b3ad7523a55a378e5298aeeee9060ff1661014e57808352826020526040832082845260205260408320600160ff19825416179055600080516020611398833981519152339380a4600190565b50509056fe608080604052600436101561001357600080fd5b60003560e01c90816301ffc9a714610c8b575080631b0fc10614610b05578063248a9ca314610ad6578063278ecde114610aac5780632c0d89da1461087a5780632f2ff15d1461083b57806336568abe146107f457806340e58ee5146106f75780634768d4ef1461062a57806391d14854146105dd578063a217fddf146105c1578063af74bc1414610586578063c5adf7c914610568578063d547741f14610527578063d6adf4c8146105045763e61daca5146100cf57600080fd5b60a03660031901126104ff576004356001600160a01b03811681036104ff57602490813563ffffffff811681036104ff5760449182359367ffffffffffffffff9081861686036104ff5760649081359183831683036104ff57610130610e0d565b6001600160a01b038516156104be5742848916111561047d57838816848416111561043157670de0b6b3a764000034106103f0576001600160601b033416968734036103af57505060025495600019871461039a5760018701600255604051906101408201828110868211176103855760405233825260018060a01b0386166020830152604082015263ffffffff86166060820152834216608082015283881660a082015283831660c0820152600160e0820152600061010082015260843561012082015260018701600052600360205260406000209160018060a01b038251166001600160601b0360a01b84541617835560018060a01b036020830151166001600160601b0360a01b604084015160a01b1617600184015563ffffffff606083015116906002840154916bffffffffffffffff00000000608085015160201b1667ffffffffffffffff60601b60a086015160601b169167ffffffffffffffff60a01b60c087015160a01b169360e087015190600682101561037157506001600160e81b03199095161717171760e09190911b60ff60e01b161760028301556101008101516003830180546001600160a01b0319166001600160a01b0392831617905561012091909101516004909201919091556040805134815263ffffffff96909616602087810191909152978416908601529116606084015260843560808401521690339060018401907ff1e65d4e3be57d5a375b8ccfe5b1311c9405d79ed34d953b367e43e7b5a00b5f9060a090a460018055600160405191018152f35b634e487b7160e01b60009081526021600452fd5b83634e487b7160e01b60005260416004526000fd5b50634e487b7160e01b60009081526011600452fd5b7f417263616465457363726f773a20776167657220746f6f206c617267650000008391601d6040519362461bcd60e51b855260206004860152840152820152fd5b907f417263616465457363726f773a20776167657220746f6f20736d616c6c00000087601d6040519362461bcd60e51b855260206004860152840152820152fd5b90607960f81b6084927f417263616465457363726f773a207265736f6c7665427920746f6f206561726c8960216040519562461bcd60e51b875260206004880152860152840152820152fd5b907f417263616465457363726f773a20616363657074427920696e2070617374000087601e6040519362461bcd60e51b855260206004860152840152820152fd5b907f417263616465457363726f773a206f70706f6e656e74206973207a65726f000087601e6040519362461bcd60e51b855260206004860152840152820152fd5b600080fd5b346104ff5760003660031901126104ff576020604051670de0b6b3a76400008152f35b346104ff5760403660031901126104ff57610566600435610546610cde565b90806000526000602052610561600160406000200154610cf4565b610d98565b005b346104ff5760003660031901126104ff576020600254604051908152f35b346104ff5760003660031901126104ff5760206040517faef88082b8671e875d97d0d6c81d06fb9e76f97b3ad7523a55a378e5298aeeee8152f35b346104ff5760003660031901126104ff57602060405160008152f35b346104ff5760403660031901126104ff576105f6610cde565b600435600052600060205260406000209060018060a01b0316600052602052602060ff604060002054166040519015158152f35b346104ff5760203660031901126104ff576004356000526003602052604060002060018060a01b038082541690600183015492600281015460ff8160e01c1694600484600385015416930154936040519586528116602086015260a01c604085015263ffffffff8116606085015267ffffffffffffffff90818160201c166080860152818160601c1660a086015260a01c1660c084015260068410156106e1576101409360e0840152610100830152610120820152f35b634e487b7160e01b600052602160045260246000fd5b346104ff5760203660031901126104ff57600435610713610e0d565b3360009081527fad3228b676f7d3cd4284a5443f17f1962b36e491b30a40b2405849e597ba5fb5602052604090205460ff16156107d5578060005260036020526040600020600281019081549160ff8360e01c169260068410156106e15761078060016107aa9514610e30565b60ff60e01b1916600560e01b17905580546001919091015460a01c906001600160a01b0316611146565b7f9ec91d668286b4cab4fcb2ce5274f689be3b2b62812e94228d00a269ee768106600080a260018055005b60405163e2517d3f60e01b815233600482015260006024820152604490fd5b346104ff5760403660031901126104ff5761080d610cde565b336001600160a01b038216036108295761056690600435610d98565b60405163334bd91960e11b8152600490fd5b346104ff5760403660031901126104ff5761056660043561085a610cde565b90806000526000602052610875600160406000200154610cf4565b610d1a565b346104ff5760603660031901126104ff57600435610896610cde565b90604435916108a3610e0d565b3360009081527f1dcbb0d5b3899d261fb4614db5d133bc5b61db0ebd82cbc5812ce71c4e7d082f60209081526040909120547faef88082b8671e875d97d0d6c81d06fb9e76f97b3ad7523a55a378e5298aeeee9060ff1615610a8e57508260005260038152604060002093600285019485549560ff8760e01c1660068110156106e157600203610a495781546001600160a01b03868116989181168914908115610a39575b50156109f45760ff60e01b1916600360e01b1790556003810180546001600160a01b031916871790556004810182905560010154609f81901c6c01fffffffffffffffffffffffe16939060a01c801560029186049190911417156109de577ff7fb99b901f5e16ff008292461f8ae1bd28772ab94cd347ae111293ed9773d2c936109d191611146565b604051908152a360018055005b634e487b7160e01b600052601160045260246000fd5b60405162461bcd60e51b815260048101869052601c60248201527f417263616465457363726f773a20696e76616c69642077696e6e6572000000006044820152606490fd5b9050600184015416881489610948565b60405162461bcd60e51b815260048101859052601a60248201527f417263616465457363726f773a206e6f742061636365707465640000000000006044820152606490fd5b6044906040519063e2517d3f60e01b82523360048301526024820152fd5b346104ff5760203660031901126104ff57610ac5610e0d565b610ad0600435610ec1565b60018055005b346104ff5760203660031901126104ff5760043560005260006020526020600160406000200154604051908152f35b60203660031901126104ff57600435610b1c610e0d565b8060005260036020526040600020600281019081549060ff8260e01c169060068210156106e157610b506001809314610e30565b01546001600160a01b0381163303610c465767ffffffffffffffff8260601c16421015610c015760a01c3403610bbc5760ff60e01b1916600160e11b17905533907fd984ac8050a068db0ada14b33626b418e0cdfbad700867c1f3e0ab23cf123b33600080a360018055005b60405162461bcd60e51b815260206004820152601d60248201527f417263616465457363726f773a20696e636f72726563742077616765720000006044820152606490fd5b60405162461bcd60e51b815260206004820152601c60248201527f417263616465457363726f773a206163636570742065787069726564000000006044820152606490fd5b60405162461bcd60e51b815260206004820152601a60248201527f417263616465457363726f773a206e6f74206f70706f6e656e740000000000006044820152606490fd5b346104ff5760203660031901126104ff576004359063ffffffff60e01b82168092036104ff57602091637965db0b60e01b8114908115610ccd575b5015158152f35b6301ffc9a760e01b14905083610cc6565b602435906001600160a01b03821682036104ff57565b80600052600060205260406000203360005260205260ff6040600020541615610a8e5750565b9060009180835282602052604083209160018060a01b03169182845260205260ff60408420541615600014610d9357808352826020526040832082845260205260408320600160ff198254161790557f2f8788117e7eff1d82e926ec794901d17c78024a50270940304540a733656f0d339380a4600190565b505090565b9060009180835282602052604083209160018060a01b03169182845260205260ff604084205416600014610d935780835282602052604083208284526020526040832060ff1981541690557ff6391f5c32d9c69d2a47ea670b442974b53935d1edc7fd64eb21e047a839171b339380a4600190565b600260015414610e1e576002600155565b604051633ee5aeb560e01b8152600490fd5b15610e3757565b60405162461bcd60e51b815260206004820152601660248201527520b931b0b232a2b9b1b937bb9d103737ba1037b832b760511b6044820152606490fd5b15610e7c57565b60405162461bcd60e51b815260206004820152601960248201527f417263616465457363726f773a206e6f742063726561746f72000000000000006044820152606490fd5b90600091808352602091600383526040918285209460028601805460ff8160e01c16600681101561105e57600114611072575080549660ff8860e01c16600681101561105e57600214610f505760648787519062461bcd60e51b825280600483015260248201527f417263616465457363726f773a20726566756e6420756e617661696c61626c656044820152fd5b67ffffffffffffffff8860a0989596981c164211156110105780546001600160a01b0390811698909290610f85338b14610e75565b60ff60e01b1916600160e21b1790556001810154609f81901c6c01fffffffffffffffffffffffe16939060a01c80156002918604919091141715610ffc5750610ff2837f7e8d9d00c67d0eca419da2afaeb9897f1995ce74ca7e6e5dab3f4c85c40721b196979899611146565b54169451908152a3565b634e487b7160e01b81526011600452602490fd5b855162461bcd60e51b815260048101859052602160248201527f417263616465457363726f773a207265736f6c76652077696e646f77206f70656044820152603760f91b6064820152608490fd5b634e487b7160e01b84526021600452602484fd5b95939690915067ffffffffffffffff8660609694961c164211156111045780546001600160a01b03908116967f7e8d9d00c67d0eca419da2afaeb9897f1995ce74ca7e6e5dab3f4c85c40721b1959493919291906110d1338a14610e75565b60ff60e01b1916600160e21b17905560018101805490976110f59160a01c90611146565b5416945460a01c9051908152a3565b60648484519062461bcd60e51b825280600483015260248201527f417263616465457363726f773a206163636570742077696e646f77206f70656e6044820152fd5b60008080809481945af1903d156112085767ffffffffffffffff903d8281116111f45760405192601f8201601f19908116603f01168401908111848210176111e057604052825260203d92013e5b1561119b57565b60405162461bcd60e51b815260206004820152601d60248201527f417263616465457363726f773a207472616e73666572206661696c65640000006044820152606490fd5b634e487b7160e01b83526041600452602483fd5b634e487b7160e01b82526041600452602482fd5b5061119456fea264697066735822122030bc434b89130f77d25da776ef139b73c97dc36f83331ac405c4105c1881026d64736f6c634300081400332f8788117e7eff1d82e926ec794901d17c78024a50270940304540a733656f0d","opcodes":"PUSH1 0x80 PUSH1 0x40 MSTORE CALLVALUE PUSH2 0x30 JUMPI PUSH1 0x1 DUP1 SSTORE PUSH2 0x16 CALLER PUSH2 0x35 JUMP JUMPDEST POP PUSH2 0x20 CALLER PUSH2 0xB3 JUMP JUMPDEST POP PUSH1 0x40 MLOAD PUSH2 0x1244 SWAP1 DUP2 PUSH2 0x154 DUP3 CODECOPY RETURN JUMPDEST PUSH1 0x0 DUP1 REVERT JUMPDEST PUSH1 0x1 PUSH1 0x1 PUSH1 0xA0 SHL SUB AND PUSH1 0x0 DUP2 DUP2 MSTORE PUSH32 0xAD3228B676F7D3CD4284A5443F17F1962B36E491B30A40B2405849E597BA5FB5 PUSH1 0x20 MSTORE PUSH1 0x40 DUP2 KECCAK256 SLOAD SWAP1 SWAP2 SWAP1 PUSH1 0xFF AND PUSH2 0xAF JUMPI DUP2 DUP1 MSTORE DUP2 PUSH1 0x20 MSTORE PUSH1 0x40 DUP3 KECCAK256 DUP2 DUP4 MSTORE PUSH1 0x20 MSTORE PUSH1 0x40 DUP3 KECCAK256 PUSH1 0x1 PUSH1 0xFF NOT DUP3 SLOAD AND OR SWAP1 SSTORE CALLER SWAP2 PUSH1 0x0 DUP1 MLOAD PUSH1 0x20 PUSH2 0x1398 DUP4 CODECOPY DUP2 MLOAD SWAP2 MSTORE DUP2 DUP1 LOG4 PUSH1 0x1 SWAP1 JUMP JUMPDEST POP SWAP1 JUMP JUMPDEST PUSH1 0x1 PUSH1 0x1 PUSH1 0xA0 SHL SUB AND PUSH1 0x0 DUP2 DUP2 MSTORE PUSH32 0x1DCBB0D5B3899D261FB4614DB5D133BC5B61DB0EBD82CBC5812CE71C4E7D082F PUSH1 0x20 MSTORE PUSH1 0x40 DUP2 KECCAK256 SLOAD SWAP1 SWAP2 SWAP1 PUSH32 0xAEF88082B8671E875D97D0D6C81D06FB9E76F97B3AD7523A55A378E5298AEEEE SWAP1 PUSH1 0xFF AND PUSH2 0x14E JUMPI DUP1 DUP4 MSTORE DUP3 PUSH1 0x20 MSTORE PUSH1 0x40 DUP4 KECCAK256 DUP3 DUP5 MSTORE PUSH1 0x20 MSTORE PUSH1 0x40 DUP4 KECCAK256 PUSH1 0x1 PUSH1 0xFF NOT DUP3 SLOAD AND OR SWAP1 SSTORE PUSH1 0x0 DUP1 MLOAD PUSH1 0x20 PUSH2 0x1398 DUP4 CODECOPY DUP2 MLOAD SWAP2 MSTORE CALLER SWAP4 DUP1 LOG4 PUSH1 0x1 SWAP1 JUMP JUMPDEST POP POP SWAP1 JUMP INVALID PUSH1 0x80 DUP1 PUSH1 0x40 MSTORE PUSH1 0x4 CALLDATASIZE LT ISZERO PUSH2 0x13 JUMPI PUSH1 0x0 DUP1 REVERT JUMPDEST PUSH1 0x0 CALLDATALOAD PUSH1 0xE0 SHR SWAP1 DUP2 PUSH4 0x1FFC9A7 EQ PUSH2 0xC8B JUMPI POP DUP1 PUSH4 0x1B0FC106 EQ PUSH2 0xB05 JUMPI DUP1 PUSH4 0x248A9CA3 EQ PUSH2 0xAD6 JUMPI DUP1 PUSH4 0x278ECDE1 EQ PUSH2 0xAAC JUMPI DUP1 PUSH4 0x2C0D89DA EQ PUSH2 0x87A JUMPI DUP1 PUSH4 0x2F2FF15D EQ PUSH2 0x83B JUMPI DUP1 PUSH4 0x36568ABE EQ PUSH2 0x7F4 JUMPI DUP1 PUSH4 0x40E58EE5 EQ PUSH2 0x6F7 JUMPI DUP1 PUSH4 0x4768D4EF EQ PUSH2 0x62A JUMPI DUP1 PUSH4 0x91D14854 EQ PUSH2 0x5DD JUMPI DUP1 PUSH4 0xA217FDDF EQ PUSH2 0x5C1 JUMPI DUP1 PUSH4 0xAF74BC14 EQ PUSH2 0x586 JUMPI DUP1 PUSH4 0xC5ADF7C9 EQ PUSH2 0x568 JUMPI DUP1 PUSH4 0xD547741F EQ PUSH2 0x527 JUMPI DUP1 PUSH4 0xD6ADF4C8 EQ PUSH2 0x504 JUMPI PUSH4 0xE61DACA5 EQ PUSH2 0xCF JUMPI PUSH1 0x0 DUP1 REVERT JUMPDEST PUSH1 0xA0 CALLDATASIZE PUSH1 0x3 NOT ADD SLT PUSH2 0x4FF JUMPI PUSH1 0x4 CALLDATALOAD PUSH1 0x1 PUSH1 0x1 PUSH1 0xA0 SHL SUB DUP2 AND DUP2 SUB PUSH2 0x4FF JUMPI PUSH1 0x24 SWAP1 DUP2 CALLDATALOAD PUSH4 0xFFFFFFFF DUP2 AND DUP2 SUB PUSH2 0x4FF JUMPI PUSH1 0x44 SWAP2 DUP3 CALLDATALOAD SWAP4 PUSH8 0xFFFFFFFFFFFFFFFF SWAP1 DUP2 DUP7 AND DUP7 SUB PUSH2 0x4FF JUMPI PUSH1 0x64 SWAP1 DUP2 CALLDATALOAD SWAP2 DUP4 DUP4 AND DUP4 SUB PUSH2 0x4FF JUMPI PUSH2 0x130 PUSH2 0xE0D JUMP JUMPDEST PUSH1 0x1 PUSH1 0x1 PUSH1 0xA0 SHL SUB DUP6 AND ISZERO PUSH2 0x4BE JUMPI TIMESTAMP DUP5 DUP10 AND GT ISZERO PUSH2 0x47D JUMPI DUP4 DUP9 AND DUP5 DUP5 AND GT ISZERO PUSH2 0x431 JUMPI PUSH8 0xDE0B6B3A7640000 CALLVALUE LT PUSH2 0x3F0 JUMPI PUSH1 0x1 PUSH1 0x1 PUSH1 0x60 SHL SUB CALLVALUE AND SWAP7 DUP8 CALLVALUE SUB PUSH2 0x3AF JUMPI POP POP PUSH1 0x2 SLOAD SWAP6 PUSH1 0x0 NOT DUP8 EQ PUSH2 0x39A JUMPI PUSH1 0x1 DUP8 ADD PUSH1 0x2 SSTORE PUSH1 0x40 MLOAD SWAP1 PUSH2 0x140 DUP3 ADD DUP3 DUP2 LT DUP7 DUP3 GT OR PUSH2 0x385 JUMPI PUSH1 0x40 MSTORE CALLER DUP3 MSTORE PUSH1 0x1 DUP1 PUSH1 0xA0 SHL SUB DUP7 AND PUSH1 0x20 DUP4 ADD MSTORE PUSH1 0x40 DUP3 ADD MSTORE PUSH4 0xFFFFFFFF DUP7 AND PUSH1 0x60 DUP3 ADD MSTORE DUP4 TIMESTAMP AND PUSH1 0x80 DUP3 ADD MSTORE DUP4 DUP9 AND PUSH1 0xA0 DUP3 ADD MSTORE DUP4 DUP4 AND PUSH1 0xC0 DUP3 ADD MSTORE PUSH1 0x1 PUSH1 0xE0 DUP3 ADD MSTORE PUSH1 0x0 PUSH2 0x100 DUP3 ADD MSTORE PUSH1 0x84 CALLDATALOAD PUSH2 0x120 DUP3 ADD MSTORE PUSH1 0x1 DUP8 ADD PUSH1 0x0 MSTORE PUSH1 0x3 PUSH1 0x20 MSTORE PUSH1 0x40 PUSH1 0x0 KECCAK256 SWAP2 PUSH1 0x1 DUP1 PUSH1 0xA0 SHL SUB DUP3 MLOAD AND PUSH1 0x1 PUSH1 0x1 PUSH1 0x60 SHL SUB PUSH1 0xA0 SHL DUP5 SLOAD AND OR DUP4 SSTORE PUSH1 0x1 DUP1 PUSH1 0xA0 SHL SUB PUSH1 0x20 DUP4 ADD MLOAD AND PUSH1 0x1 PUSH1 0x1 PUSH1 0x60 SHL SUB PUSH1 0xA0 SHL PUSH1 0x40 DUP5 ADD MLOAD PUSH1 0xA0 SHL AND OR PUSH1 0x1 DUP5 ADD SSTORE PUSH4 0xFFFFFFFF PUSH1 0x60 DUP4 ADD MLOAD AND SWAP1 PUSH1 0x2 DUP5 ADD SLOAD SWAP2 PUSH12 0xFFFFFFFFFFFFFFFF00000000 PUSH1 0x80 DUP6 ADD MLOAD PUSH1 0x20 SHL AND PUSH8 0xFFFFFFFFFFFFFFFF PUSH1 0x60 SHL PUSH1 0xA0 DUP7 ADD MLOAD PUSH1 0x60 SHL AND SWAP2 PUSH8 0xFFFFFFFFFFFFFFFF PUSH1 0xA0 SHL PUSH1 0xC0 DUP8 ADD MLOAD PUSH1 0xA0 SHL AND SWAP4 PUSH1 0xE0 DUP8 ADD MLOAD SWAP1 PUSH1 0x6 DUP3 LT ISZERO PUSH2 0x371 JUMPI POP PUSH1 0x1 PUSH1 0x1 PUSH1 0xE8 SHL SUB NOT SWAP1 SWAP6 AND OR OR OR OR PUSH1 0xE0 SWAP2 SWAP1 SWAP2 SHL PUSH1 0xFF PUSH1 0xE0 SHL AND OR PUSH1 0x2 DUP4 ADD SSTORE PUSH2 0x100 DUP2 ADD MLOAD PUSH1 0x3 DUP4 ADD DUP1 SLOAD PUSH1 0x1 PUSH1 0x1 PUSH1 0xA0 SHL SUB NOT AND PUSH1 0x1 PUSH1 0x1 PUSH1 0xA0 SHL SUB SWAP3 DUP4 AND OR SWAP1 SSTORE PUSH2 0x120 SWAP2 SWAP1 SWAP2 ADD MLOAD PUSH1 0x4 SWAP1 SWAP3 ADD SWAP2 SWAP1 SWAP2 SSTORE PUSH1 0x40 DUP1 MLOAD CALLVALUE DUP2 MSTORE PUSH4 0xFFFFFFFF SWAP7 SWAP1 SWAP7 AND PUSH1 0x20 DUP8 DUP2 ADD SWAP2 SWAP1 SWAP2 MSTORE SWAP8 DUP5 AND SWAP1 DUP7 ADD MSTORE SWAP2 AND PUSH1 0x60 DUP5 ADD MSTORE PUSH1 0x84 CALLDATALOAD PUSH1 0x80 DUP5 ADD MSTORE AND SWAP1 CALLER SWAP1 PUSH1 0x1 DUP5 ADD SWAP1 PUSH32 0xF1E65D4E3BE57D5A375B8CCFE5B1311C9405D79ED34D953B367E43E7B5A00B5F SWAP1 PUSH1 0xA0 SWAP1 LOG4 PUSH1 0x1 DUP1 SSTORE PUSH1 0x1 PUSH1 0x40 MLOAD SWAP2 ADD DUP2 MSTORE RETURN JUMPDEST PUSH4 0x4E487B71 PUSH1 0xE0 SHL PUSH1 0x0 SWAP1 DUP2 MSTORE PUSH1 0x21 PUSH1 0x4 MSTORE REVERT JUMPDEST DUP4 PUSH4 0x4E487B71 PUSH1 0xE0 SHL PUSH1 0x0 MSTORE PUSH1 0x41 PUSH1 0x4 MSTORE PUSH1 0x0 REVERT JUMPDEST POP PUSH4 0x4E487B71 PUSH1 0xE0 SHL PUSH1 0x0 SWAP1 DUP2 MSTORE PUSH1 0x11 PUSH1 0x4 MSTORE REVERT JUMPDEST PUSH32 0x417263616465457363726F773A20776167657220746F6F206C61726765000000 DUP4 SWAP2 PUSH1 0x1D PUSH1 0x40 MLOAD SWAP4 PUSH3 0x461BCD PUSH1 0xE5 SHL DUP6 MSTORE PUSH1 0x20 PUSH1 0x4 DUP7 ADD MSTORE DUP5 ADD MSTORE DUP3 ADD MSTORE REVERT JUMPDEST SWAP1 PUSH32 0x417263616465457363726F773A20776167657220746F6F20736D616C6C000000 DUP8 PUSH1 0x1D PUSH1 0x40 MLOAD SWAP4 PUSH3 0x461BCD PUSH1 0xE5 SHL DUP6 MSTORE PUSH1 0x20 PUSH1 0x4 DUP7 ADD MSTORE DUP5 ADD MSTORE DUP3 ADD MSTORE REVERT JUMPDEST SWAP1 PUSH1 0x79 PUSH1 0xF8 SHL PUSH1 0x84 SWAP3 PUSH32 0x417263616465457363726F773A207265736F6C7665427920746F6F206561726C DUP10 PUSH1 0x21 PUSH1 0x40 MLOAD SWAP6 PUSH3 0x461BCD PUSH1 0xE5 SHL DUP8 MSTORE PUSH1 0x20 PUSH1 0x4 DUP9 ADD MSTORE DUP7 ADD MSTORE DUP5 ADD MSTORE DUP3 ADD MSTORE REVERT JUMPDEST SWAP1 PUSH32 0x417263616465457363726F773A20616363657074427920696E20706173740000 DUP8 PUSH1 0x1E PUSH1 0x40 MLOAD SWAP4 PUSH3 0x461BCD PUSH1 0xE5 SHL DUP6 MSTORE PUSH1 0x20 PUSH1 0x4 DUP7 ADD MSTORE DUP5 ADD MSTORE DUP3 ADD MSTORE REVERT JUMPDEST SWAP1 PUSH32 0x417263616465457363726F773A206F70706F6E656E74206973207A65726F0000 DUP8 PUSH1 0x1E PUSH1 0x40 MLOAD SWAP4 PUSH3 0x461BCD PUSH1 0xE5 SHL DUP6 MSTORE PUSH1 0x20 PUSH1 0x4 DUP7 ADD MSTORE DUP5 ADD MSTORE DUP3 ADD MSTORE REVERT JUMPDEST PUSH1 0x0 DUP1 REVERT JUMPDEST CALLVALUE PUSH2 0x4FF JUMPI PUSH1 0x0 CALLDATASIZE PUSH1 0x3 NOT ADD SLT PUSH2 0x4FF JUMPI PUSH1 0x20 PUSH1 0x40 MLOAD PUSH8 0xDE0B6B3A7640000 DUP2 MSTORE RETURN JUMPDEST CALLVALUE PUSH2 0x4FF JUMPI PUSH1 0x40 CALLDATASIZE PUSH1 0x3 NOT ADD SLT PUSH2 0x4FF JUMPI PUSH2 0x566 PUSH1 0x4 CALLDATALOAD PUSH2 0x546 PUSH2 0xCDE JUMP JUMPDEST SWAP1 DUP1 PUSH1 0x0 MSTORE PUSH1 0x0 PUSH1 0x20 MSTORE PUSH2 0x561 PUSH1 0x1 PUSH1 0x40 PUSH1 0x0 KECCAK256 ADD SLOAD PUSH2 0xCF4 JUMP JUMPDEST PUSH2 0xD98 JUMP JUMPDEST STOP JUMPDEST CALLVALUE PUSH2 0x4FF JUMPI PUSH1 0x0 CALLDATASIZE PUSH1 0x3 NOT ADD SLT PUSH2 0x4FF JUMPI PUSH1 0x20 PUSH1 0x2 SLOAD PUSH1 0x40 MLOAD SWAP1 DUP2 MSTORE RETURN JUMPDEST CALLVALUE PUSH2 0x4FF JUMPI PUSH1 0x0 CALLDATASIZE PUSH1 0x3 NOT ADD SLT PUSH2 0x4FF JUMPI PUSH1 0x20 PUSH1 0x40 MLOAD PUSH32 0xAEF88082B8671E875D97D0D6C81D06FB9E76F97B3AD7523A55A378E5298AEEEE DUP2 MSTORE RETURN JUMPDEST CALLVALUE PUSH2 0x4FF JUMPI PUSH1 0x0 CALLDATASIZE PUSH1 0x3 NOT ADD SLT PUSH2 0x4FF JUMPI PUSH1 0x20 PUSH1 0x40 MLOAD PUSH1 0x0 DUP2 MSTORE RETURN JUMPDEST CALLVALUE PUSH2 0x4FF JUMPI PUSH1 0x40 CALLDATASIZE PUSH1 0x3 NOT ADD SLT PUSH2 0x4FF JUMPI PUSH2 0x5F6 PUSH2 0xCDE JUMP JUMPDEST PUSH1 0x4 CALLDATALOAD PUSH1 0x0 MSTORE PUSH1 0x0 PUSH1 0x20 MSTORE PUSH1 0x40 PUSH1 0x0 KECCAK256 SWAP1 PUSH1 0x1 DUP1 PUSH1 0xA0 SHL SUB AND PUSH1 0x0 MSTORE PUSH1 0x20 MSTORE PUSH1 0x20 PUSH1 0xFF PUSH1 0x40 PUSH1 0x0 KECCAK256 SLOAD AND PUSH1 0x40 MLOAD SWAP1 ISZERO ISZERO DUP2 MSTORE RETURN JUMPDEST CALLVALUE PUSH2 0x4FF JUMPI PUSH1 0x20 CALLDATASIZE PUSH1 0x3 NOT ADD SLT PUSH2 0x4FF JUMPI PUSH1 0x4 CALLDATALOAD PUSH1 0x0 MSTORE PUSH1 0x3 PUSH1 0x20 MSTORE PUSH1 0x40 PUSH1 0x0 KECCAK256 PUSH1 0x1 DUP1 PUSH1 0xA0 SHL SUB DUP1 DUP3 SLOAD AND SWAP1 PUSH1 0x1 DUP4 ADD SLOAD SWAP3 PUSH1 0x2 DUP2 ADD SLOAD PUSH1 0xFF DUP2 PUSH1 0xE0 SHR AND SWAP5 PUSH1 0x4 DUP5 PUSH1 0x3 DUP6 ADD SLOAD AND SWAP4 ADD SLOAD SWAP4 PUSH1 0x40 MLOAD SWAP6 DUP7 MSTORE DUP2 AND PUSH1 0x20 DUP7 ADD MSTORE PUSH1 0xA0 SHR PUSH1 0x40 DUP6 ADD MSTORE PUSH4 0xFFFFFFFF DUP2 AND PUSH1 0x60 DUP6 ADD MSTORE PUSH8 0xFFFFFFFFFFFFFFFF SWAP1 DUP2 DUP2 PUSH1 0x20 SHR AND PUSH1 0x80 DUP7 ADD MSTORE DUP2 DUP2 PUSH1 0x60 SHR AND PUSH1 0xA0 DUP7 ADD MSTORE PUSH1 0xA0 SHR AND PUSH1 0xC0 DUP5 ADD MSTORE PUSH1 0x6 DUP5 LT ISZERO PUSH2 0x6E1 JUMPI PUSH2 0x140 SWAP4 PUSH1 0xE0 DUP5 ADD MSTORE PUSH2 0x100 DUP4 ADD MSTORE PUSH2 0x120 DUP3 ADD MSTORE RETURN JUMPDEST PUSH4 0x4E487B71 PUSH1 0xE0 SHL PUSH1 0x0 MSTORE PUSH1 0x21 PUSH1 0x4 MSTORE PUSH1 0x24 PUSH1 0x0 REVERT JUMPDEST CALLVALUE PUSH2 0x4FF JUMPI PUSH1 0x20 CALLDATASIZE PUSH1 0x3 NOT ADD SLT PUSH2 0x4FF JUMPI PUSH1 0x4 CALLDATALOAD PUSH2 0x713 PUSH2 0xE0D JUMP JUMPDEST CALLER PUSH1 0x0 SWAP1 DUP2 MSTORE PUSH32 0xAD3228B676F7D3CD4284A5443F17F1962B36E491B30A40B2405849E597BA5FB5 PUSH1 0x20 MSTORE PUSH1 0x40 SWAP1 KECCAK256 SLOAD PUSH1 0xFF AND ISZERO PUSH2 0x7D5 JUMPI DUP1 PUSH1 0x0 MSTORE PUSH1 0x3 PUSH1 0x20 MSTORE PUSH1 0x40 PUSH1 0x0 KECCAK256 PUSH1 0x2 DUP2 ADD SWAP1 DUP2 SLOAD SWAP2 PUSH1 0xFF DUP4 PUSH1 0xE0 SHR AND SWAP3 PUSH1 0x6 DUP5 LT ISZERO PUSH2 0x6E1 JUMPI PUSH2 0x780 PUSH1 0x1 PUSH2 0x7AA SWAP6 EQ PUSH2 0xE30 JUMP JUMPDEST PUSH1 0xFF PUSH1 0xE0 SHL NOT AND PUSH1 0x5 PUSH1 0xE0 SHL OR SWAP1 SSTORE DUP1 SLOAD PUSH1 0x1 SWAP2 SWAP1 SWAP2 ADD SLOAD PUSH1 0xA0 SHR SWAP1 PUSH1 0x1 PUSH1 0x1 PUSH1 0xA0 SHL SUB AND PUSH2 0x1146 JUMP JUMPDEST PUSH32 0x9EC91D668286B4CAB4FCB2CE5274F689BE3B2B62812E94228D00A269EE768106 PUSH1 0x0 DUP1 LOG2 PUSH1 0x1 DUP1 SSTORE STOP JUMPDEST PUSH1 0x40 MLOAD PUSH4 0xE2517D3F PUSH1 0xE0 SHL DUP2 MSTORE CALLER PUSH1 0x4 DUP3 ADD MSTORE PUSH1 0x0 PUSH1 0x24 DUP3 ADD MSTORE PUSH1 0x44 SWAP1 REVERT JUMPDEST CALLVALUE PUSH2 0x4FF JUMPI PUSH1 0x40 CALLDATASIZE PUSH1 0x3 NOT ADD SLT PUSH2 0x4FF JUMPI PUSH2 0x80D PUSH2 0xCDE JUMP JUMPDEST CALLER PUSH1 0x1 PUSH1 0x1 PUSH1 0xA0 SHL SUB DUP3 AND SUB PUSH2 0x829 JUMPI PUSH2 0x566 SWAP1 PUSH1 0x4 CALLDATALOAD PUSH2 0xD98 JUMP JUMPDEST PUSH1 0x40 MLOAD PUSH4 0x334BD919 PUSH1 0xE1 SHL DUP2 MSTORE PUSH1 0x4 SWAP1 REVERT JUMPDEST CALLVALUE PUSH2 0x4FF JUMPI PUSH1 0x40 CALLDATASIZE PUSH1 0x3 NOT ADD SLT PUSH2 0x4FF JUMPI PUSH2 0x566 PUSH1 0x4 CALLDATALOAD PUSH2 0x85A PUSH2 0xCDE JUMP JUMPDEST SWAP1 DUP1 PUSH1 0x0 MSTORE PUSH1 0x0 PUSH1 0x20 MSTORE PUSH2 0x875 PUSH1 0x1 PUSH1 0x40 PUSH1 0x0 KECCAK256 ADD SLOAD PUSH2 0xCF4 JUMP JUMPDEST PUSH2 0xD1A JUMP JUMPDEST CALLVALUE PUSH2 0x4FF JUMPI PUSH1 0x60 CALLDATASIZE PUSH1 0x3 NOT ADD SLT PUSH2 0x4FF JUMPI PUSH1 0x4 CALLDATALOAD PUSH2 0x896 PUSH2 0xCDE JUMP JUMPDEST SWAP1 PUSH1 0x44 CALLDATALOAD SWAP2 PUSH2 0x8A3 PUSH2 0xE0D JUMP JUMPDEST CALLER PUSH1 0x0 SWAP1 DUP2 MSTORE PUSH32 0x1DCBB0D5B3899D261FB4614DB5D133BC5B61DB0EBD82CBC5812CE71C4E7D082F PUSH1 0x20 SWAP1 DUP2 MSTORE PUSH1 0x40 SWAP1 SWAP2 KECCAK256 SLOAD PUSH32 0xAEF88082B8671E875D97D0D6C81D06FB9E76F97B3AD7523A55A378E5298AEEEE SWAP1 PUSH1 0xFF AND ISZERO PUSH2 0xA8E JUMPI POP DUP3 PUSH1 0x0 MSTORE PUSH1 0x3 DUP2 MSTORE PUSH1 0x40 PUSH1 0x0 KECCAK256 SWAP4 PUSH1 0x2 DUP6 ADD SWAP5 DUP6 SLOAD SWAP6 PUSH1 0xFF DUP8 PUSH1 0xE0 SHR AND PUSH1 0x6 DUP2 LT ISZERO PUSH2 0x6E1 JUMPI PUSH1 0x2 SUB PUSH2 0xA49 JUMPI DUP2 SLOAD PUSH1 0x1 PUSH1 0x1 PUSH1 0xA0 SHL SUB DUP7 DUP2 AND SWAP9 SWAP2 DUP2 AND DUP10 EQ SWAP1 DUP2 ISZERO PUSH2 0xA39 JUMPI JUMPDEST POP ISZERO PUSH2 0x9F4 JUMPI PUSH1 0xFF PUSH1 0xE0 SHL NOT AND PUSH1 0x3 PUSH1 0xE0 SHL OR SWAP1 SSTORE PUSH1 0x3 DUP2 ADD DUP1 SLOAD PUSH1 0x1 PUSH1 0x1 PUSH1 0xA0 SHL SUB NOT AND DUP8 OR SWAP1 SSTORE PUSH1 0x4 DUP2 ADD DUP3 SWAP1 SSTORE PUSH1 0x1 ADD SLOAD PUSH1 0x9F DUP2 SWAP1 SHR PUSH13 0x1FFFFFFFFFFFFFFFFFFFFFFFE AND SWAP4 SWAP1 PUSH1 0xA0 SHR DUP1 ISZERO PUSH1 0x2 SWAP2 DUP7 DIV SWAP2 SWAP1 SWAP2 EQ OR ISZERO PUSH2 0x9DE JUMPI PUSH32 0xF7FB99B901F5E16FF008292461F8AE1BD28772AB94CD347AE111293ED9773D2C SWAP4 PUSH2 0x9D1 SWAP2 PUSH2 0x1146 JUMP JUMPDEST PUSH1 0x40 MLOAD SWAP1 DUP2 MSTORE LOG3 PUSH1 0x1 DUP1 SSTORE STOP JUMPDEST PUSH4 0x4E487B71 PUSH1 0xE0 SHL PUSH1 0x0 MSTORE PUSH1 0x11 PUSH1 0x4 MSTORE PUSH1 0x24 PUSH1 0x0 REVERT JUMPDEST PUSH1 0x40 MLOAD PUSH3 0x461BCD PUSH1 0xE5 SHL DUP2 MSTORE PUSH1 0x4 DUP2 ADD DUP7 SWAP1 MSTORE PUSH1 0x1C PUSH1 0x24 DUP3 ADD MSTORE PUSH32 0x417263616465457363726F773A20696E76616C69642077696E6E657200000000 PUSH1 0x44 DUP3 ADD MSTORE PUSH1 0x64 SWAP1 REVERT JUMPDEST SWAP1 POP PUSH1 0x1 DUP5 ADD SLOAD AND DUP9 EQ DUP10 PUSH2 0x948 JUMP JUMPDEST PUSH1 0x40 MLOAD PUSH3 0x461BCD PUSH1 0xE5 SHL DUP2 MSTORE PUSH1 0x4 DUP2 ADD DUP6 SWAP1 MSTORE PUSH1 0x1A PUSH1 0x24 DUP3 ADD MSTORE PUSH32 0x417263616465457363726F773A206E6F74206163636570746564000000000000 PUSH1 0x44 DUP3 ADD MSTORE PUSH1 0x64 SWAP1 REVERT JUMPDEST PUSH1 0x44 SWAP1 PUSH1 0x40 MLOAD SWAP1 PUSH4 0xE2517D3F PUSH1 0xE0 SHL DUP3 MSTORE CALLER PUSH1 0x4 DUP4 ADD MSTORE PUSH1 0x24 DUP3 ADD MSTORE REVERT JUMPDEST CALLVALUE PUSH2 0x4FF JUMPI PUSH1 0x20 CALLDATASIZE PUSH1 0x3 NOT ADD SLT PUSH2 0x4FF JUMPI PUSH2 0xAC5 PUSH2 0xE0D JUMP JUMPDEST PUSH2 0xAD0 PUSH1 0x4 CALLDATALOAD PUSH2 0xEC1 JUMP JUMPDEST PUSH1 0x1 DUP1 SSTORE STOP JUMPDEST CALLVALUE PUSH2 0x4FF JUMPI PUSH1 0x20 CALLDATASIZE PUSH1 0x3 NOT ADD SLT PUSH2 0x4FF JUMPI PUSH1 0x4 CALLDATALOAD PUSH1 0x0 MSTORE PUSH1 0x0 PUSH1 0x20 MSTORE PUSH1 0x20 PUSH1 0x1 PUSH1 0x40 PUSH1 0x0 KECCAK256 ADD SLOAD PUSH1 0x40 MLOAD SWAP1 DUP2 MSTORE RETURN JUMPDEST PUSH1 0x20 CALLDATASIZE PUSH1 0x3 NOT ADD SLT PUSH2 0x4FF JUMPI PUSH1 0x4 CALLDATALOAD PUSH2 0xB1C PUSH2 0xE0D JUMP JUMPDEST DUP1 PUSH1 0x0 MSTORE PUSH1 0x3 PUSH1 0x20 MSTORE PUSH1 0x40 PUSH1 0x0 KECCAK256 PUSH1 0x2 DUP2 ADD SWAP1 DUP2 SLOAD SWAP1 PUSH1 0xFF DUP3 PUSH1 0xE0 SHR AND SWAP1 PUSH1 0x6 DUP3 LT ISZERO PUSH2 0x6E1 JUMPI PUSH2 0xB50 PUSH1 0x1 DUP1 SWAP4 EQ PUSH2 0xE30 JUMP JUMPDEST ADD SLOAD PUSH1 0x1 PUSH1 0x1 PUSH1 0xA0 SHL SUB DUP2 AND CALLER SUB PUSH2 0xC46 JUMPI PUSH8 0xFFFFFFFFFFFFFFFF DUP3 PUSH1 0x60 SHR AND TIMESTAMP LT ISZERO PUSH2 0xC01 JUMPI PUSH1 0xA0 SHR CALLVALUE SUB PUSH2 0xBBC JUMPI PUSH1 0xFF PUSH1 0xE0 SHL NOT AND PUSH1 0x1 PUSH1 0xE1 SHL OR SWAP1 SSTORE CALLER SWAP1 PUSH32 0xD984AC8050A068DB0ADA14B33626B418E0CDFBAD700867C1F3E0AB23CF123B33 PUSH1 0x0 DUP1 LOG3 PUSH1 0x1 DUP1 SSTORE STOP JUMPDEST PUSH1 0x40 MLOAD PUSH3 0x461BCD PUSH1 0xE5 SHL DUP2 MSTORE PUSH1 0x20 PUSH1 0x4 DUP3 ADD MSTORE PUSH1 0x1D PUSH1 0x24 DUP3 ADD MSTORE PUSH32 0x417263616465457363726F773A20696E636F7272656374207761676572000000 PUSH1 0x44 DUP3 ADD MSTORE PUSH1 0x64 SWAP1 REVERT JUMPDEST PUSH1 0x40 MLOAD PUSH3 0x461BCD PUSH1 0xE5 SHL DUP2 MSTORE PUSH1 0x20 PUSH1 0x4 DUP3 ADD MSTORE PUSH1 0x1C PUSH1 0x24 DUP3 ADD MSTORE PUSH32 0x417263616465457363726F773A20616363657074206578706972656400000000 PUSH1 0x44 DUP3 ADD MSTORE PUSH1 0x64 SWAP1 REVERT JUMPDEST PUSH1 0x40 MLOAD PUSH3 0x461BCD PUSH1 0xE5 SHL DUP2 MSTORE PUSH1 0x20 PUSH1 0x4 DUP3 ADD MSTORE PUSH1 0x1A PUSH1 0x24 DUP3 ADD MSTORE PUSH32 0x417263616465457363726F773A206E6F74206F70706F6E656E74000000000000 PUSH1 0x44 DUP3 ADD MSTORE PUSH1 0x64 SWAP1 REVERT JUMPDEST CALLVALUE PUSH2 0x4FF JUMPI PUSH1 0x20 CALLDATASIZE PUSH1 0x3 NOT ADD SLT PUSH2 0x4FF JUMPI PUSH1 0x4 CALLDATALOAD SWAP1 PUSH4 0xFFFFFFFF PUSH1 0xE0 SHL DUP3 AND DUP1 SWAP3 SUB PUSH2 0x4FF JUMPI PUSH1 0x20 SWAP2 PUSH4 0x7965DB0B PUSH1 0xE0 SHL DUP2 EQ SWAP1 DUP2 ISZERO PUSH2 0xCCD JUMPI JUMPDEST POP ISZERO ISZERO DUP2 MSTORE RETURN JUMPDEST PUSH4 0x1FFC9A7 PUSH1 0xE0 SHL EQ SWAP1 POP DUP4 PUSH2 0xCC6 JUMP JUMPDEST PUSH1 0x24 CALLDATALOAD SWAP1 PUSH1 0x1 PUSH1 0x1 PUSH1 0xA0 SHL SUB DUP3 AND DUP3 SUB PUSH2 0x4FF JUMPI JUMP JUMPDEST DUP1 PUSH1 0x0 MSTORE PUSH1 0x0 PUSH1 0x20 MSTORE PUSH1 0x40 PUSH1 0x0 KECCAK256 CALLER PUSH1 0x0 MSTORE PUSH1 0x20 MSTORE PUSH1 0xFF PUSH1 0x40 PUSH1 0x0 KECCAK256 SLOAD AND ISZERO PUSH2 0xA8E JUMPI POP JUMP JUMPDEST SWAP1 PUSH1 0x0 SWAP2 DUP1 DUP4 MSTORE DUP3 PUSH1 0x20 MSTORE PUSH1 0x40 DUP4 KECCAK256 SWAP2 PUSH1 0x1 DUP1 PUSH1 0xA0 SHL SUB AND SWAP2 DUP3 DUP5 MSTORE PUSH1 0x20 MSTORE PUSH1 0xFF PUSH1 0x40 DUP5 KECCAK256 SLOAD AND ISZERO PUSH1 0x0 EQ PUSH2 0xD93 JUMPI DUP1 DUP4 MSTORE DUP3 PUSH1 0x20 MSTORE PUSH1 0x40 DUP4 KECCAK256 DUP3 DUP5 MSTORE PUSH1 0x20 MSTORE PUSH1 0x40 DUP4 KECCAK256 PUSH1 0x1 PUSH1 0xFF NOT DUP3 SLOAD AND OR SWAP1 SSTORE PUSH32 0x2F8788117E7EFF1D82E926EC794901D17C78024A50270940304540A733656F0D CALLER SWAP4 DUP1 LOG4 PUSH1 0x1 SWAP1 JUMP JUMPDEST POP POP SWAP1 JUMP JUMPDEST SWAP1 PUSH1 0x0 SWAP2 DUP1 DUP4 MSTORE DUP3 PUSH1 0x20 MSTORE PUSH1 0x40 DUP4 KECCAK256 SWAP2 PUSH1 0x1 DUP1 PUSH1 0xA0 SHL SUB AND SWAP2 DUP3 DUP5 MSTORE PUSH1 0x20 MSTORE PUSH1 0xFF PUSH1 0x40 DUP5 KECCAK256 SLOAD AND PUSH1 0x0 EQ PUSH2 0xD93 JUMPI DUP1 DUP4 MSTORE DUP3 PUSH1 0x20 MSTORE PUSH1 0x40 DUP4 KECCAK256 DUP3 DUP5 MSTORE PUSH1 0x20 MSTORE PUSH1 0x40 DUP4 KECCAK256 PUSH1 0xFF NOT DUP2 SLOAD AND SWAP1 SSTORE PUSH32 0xF6391F5C32D9C69D2A47EA670B442974B53935D1EDC7FD64EB21E047A839171B CALLER SWAP4 DUP1 LOG4 PUSH1 0x1 SWAP1 JUMP JUMPDEST PUSH1 0x2 PUSH1 0x1 SLOAD EQ PUSH2 0xE1E JUMPI PUSH1 0x2 PUSH1 0x1 SSTORE JUMP JUMPDEST PUSH1 0x40 MLOAD PUSH4 0x3EE5AEB5 PUSH1 0xE0 SHL DUP2 MSTORE PUSH1 0x4 SWAP1 REVERT JUMPDEST ISZERO PUSH2 0xE37 JUMPI JUMP JUMPDEST PUSH1 0x40 MLOAD PUSH3 0x461BCD PUSH1 0xE5 SHL DUP2 MSTORE PUSH1 0x20 PUSH1 0x4 DUP3 ADD MSTORE PUSH1 0x16 PUSH1 0x24 DUP3 ADD MSTORE PUSH22 0x20B931B0B232A2B9B1B937BB9D103737BA1037B832B7 PUSH1 0x51 SHL PUSH1 0x44 DUP3 ADD MSTORE PUSH1 0x64 SWAP1 REVERT JUMPDEST ISZERO PUSH2 0xE7C JUMPI JUMP JUMPDEST PUSH1 0x40 MLOAD PUSH3 0x461BCD PUSH1 0xE5 SHL DUP2 MSTORE PUSH1 0x20 PUSH1 0x4 DUP3 ADD MSTORE PUSH1 0x19 PUSH1 0x24 DUP3 ADD MSTORE PUSH32 0x417263616465457363726F773A206E6F742063726561746F7200000000000000 PUSH1 0x44 DUP3 ADD MSTORE PUSH1 0x64 SWAP1 REVERT JUMPDEST SWAP1 PUSH1 0x0 SWAP2 DUP1 DUP4 MSTORE PUSH1 0x20 SWAP2 PUSH1 0x3 DUP4 MSTORE PUSH1 0x40 SWAP2 DUP3 DUP6 KECCAK256 SWAP5 PUSH1 0x2 DUP7 ADD DUP1 SLOAD PUSH1 0xFF DUP2 PUSH1 0xE0 SHR AND PUSH1 0x6 DUP2 LT ISZERO PUSH2 0x105E JUMPI PUSH1 0x1 EQ PUSH2 0x1072 JUMPI POP DUP1 SLOAD SWAP7 PUSH1 0xFF DUP9 PUSH1 0xE0 SHR AND PUSH1 0x6 DUP2 LT ISZERO PUSH2 0x105E JUMPI PUSH1 0x2 EQ PUSH2 0xF50 JUMPI PUSH1 0x64 DUP8 DUP8 MLOAD SWAP1 PUSH3 0x461BCD PUSH1 0xE5 SHL DUP3 MSTORE DUP1 PUSH1 0x4 DUP4 ADD MSTORE PUSH1 0x24 DUP3 ADD MSTORE PUSH32 0x417263616465457363726F773A20726566756E6420756E617661696C61626C65 PUSH1 0x44 DUP3 ADD MSTORE REVERT JUMPDEST PUSH8 0xFFFFFFFFFFFFFFFF DUP9 PUSH1 0xA0 SWAP9 SWAP6 SWAP7 SWAP9 SHR AND TIMESTAMP GT ISZERO PUSH2 0x1010 JUMPI DUP1 SLOAD PUSH1 0x1 PUSH1 0x1 PUSH1 0xA0 SHL SUB SWAP1 DUP2 AND SWAP9 SWAP1 SWAP3 SWAP1 PUSH2 0xF85 CALLER DUP12 EQ PUSH2 0xE75 JUMP JUMPDEST PUSH1 0xFF PUSH1 0xE0 SHL NOT AND PUSH1 0x1 PUSH1 0xE2 SHL OR SWAP1 SSTORE PUSH1 0x1 DUP2 ADD SLOAD PUSH1 0x9F DUP2 SWAP1 SHR PUSH13 0x1FFFFFFFFFFFFFFFFFFFFFFFE AND SWAP4 SWAP1 PUSH1 0xA0 SHR DUP1 ISZERO PUSH1 0x2 SWAP2 DUP7 DIV SWAP2 SWAP1 SWAP2 EQ OR ISZERO PUSH2 0xFFC JUMPI POP PUSH2 0xFF2 DUP4 PUSH32 0x7E8D9D00C67D0ECA419DA2AFAEB9897F1995CE74CA7E6E5DAB3F4C85C40721B1 SWAP7 SWAP8 SWAP9 SWAP10 PUSH2 0x1146 JUMP JUMPDEST SLOAD AND SWAP5 MLOAD SWAP1 DUP2 MSTORE LOG3 JUMP JUMPDEST PUSH4 0x4E487B71 PUSH1 0xE0 SHL DUP2 MSTORE PUSH1 0x11 PUSH1 0x4 MSTORE PUSH1 0x24 SWAP1 REVERT JUMPDEST DUP6 MLOAD PUSH3 0x461BCD PUSH1 0xE5 SHL DUP2 MSTORE PUSH1 0x4 DUP2 ADD DUP6 SWAP1 MSTORE PUSH1 0x21 PUSH1 0x24 DUP3 ADD MSTORE PUSH32 0x417263616465457363726F773A207265736F6C76652077696E646F77206F7065 PUSH1 0x44 DUP3 ADD MSTORE PUSH1 0x37 PUSH1 0xF9 SHL PUSH1 0x64 DUP3 ADD MSTORE PUSH1 0x84 SWAP1 REVERT JUMPDEST PUSH4 0x4E487B71 PUSH1 0xE0 SHL DUP5 MSTORE PUSH1 0x21 PUSH1 0x4 MSTORE PUSH1 0x24 DUP5 REVERT JUMPDEST SWAP6 SWAP4 SWAP7 SWAP1 SWAP2 POP PUSH8 0xFFFFFFFFFFFFFFFF DUP7 PUSH1 0x60 SWAP7 SWAP5 SWAP7 SHR AND TIMESTAMP GT ISZERO PUSH2 0x1104 JUMPI DUP1 SLOAD PUSH1 0x1 PUSH1 0x1 PUSH1 0xA0 SHL SUB SWAP1 DUP2 AND SWAP7 PUSH32 0x7E8D9D00C67D0ECA419DA2AFAEB9897F1995CE74CA7E6E5DAB3F4C85C40721B1 SWAP6 SWAP5 SWAP4 SWAP2 SWAP3 SWAP2 SWAP1 PUSH2 0x10D1 CALLER DUP11 EQ PUSH2 0xE75 JUMP JUMPDEST PUSH1 0xFF PUSH1 0xE0 SHL NOT AND PUSH1 0x1 PUSH1 0xE2 SHL OR SWAP1 SSTORE PUSH1 0x1 DUP2 ADD DUP1 SLOAD SWAP1 SWAP8 PUSH2 0x10F5 SWAP2 PUSH1 0xA0 SHR SWAP1 PUSH2 0x1146 JUMP JUMPDEST SLOAD AND SWAP5 SLOAD PUSH1 0xA0 SHR SWAP1 MLOAD SWAP1 DUP2 MSTORE LOG3 JUMP JUMPDEST PUSH1 0x64 DUP5 DUP5 MLOAD SWAP1 PUSH3 0x461BCD PUSH1 0xE5 SHL DUP3 MSTORE DUP1 PUSH1 0x4 DUP4 ADD MSTORE PUSH1 0x24 DUP3 ADD MSTORE PUSH32 0x417263616465457363726F773A206163636570742077696E646F77206F70656E PUSH1 0x44 DUP3 ADD MSTORE REVERT JUMPDEST PUSH1 0x0 DUP1 DUP1 DUP1 SWAP5 DUP2 SWAP5 GAS CALL SWAP1 RETURNDATASIZE ISZERO PUSH2 0x1208 JUMPI PUSH8 0xFFFFFFFFFFFFFFFF SWAP1 RETURNDATASIZE DUP3 DUP2 GT PUSH2 0x11F4 JUMPI PUSH1 0x40 MLOAD SWAP3 PUSH1 0x1F DUP3 ADD PUSH1 0x1F NOT SWAP1 DUP2 AND PUSH1 0x3F ADD AND DUP5 ADD SWAP1 DUP2 GT DUP5 DUP3 LT OR PUSH2 0x11E0 JUMPI PUSH1 0x40 MSTORE DUP3 MSTORE PUSH1 0x20 RETURNDATASIZE SWAP3 ADD RETURNDATACOPY JUMPDEST ISZERO PUSH2 0x119B JUMPI JUMP JUMPDEST PUSH1 0x40 MLOAD PUSH3 0x461BCD PUSH1 0xE5 SHL DUP2 MSTORE PUSH1 0x20 PUSH1 0x4 DUP3 ADD MSTORE PUSH1 0x1D PUSH1 0x24 DUP3 ADD MSTORE PUSH32 0x417263616465457363726F773A207472616E73666572206661696C6564000000 PUSH1 0x44 DUP3 ADD MSTORE PUSH1 0x64 SWAP1 REVERT JUMPDEST PUSH4 0x4E487B71 PUSH1 0xE0 SHL DUP4 MSTORE PUSH1 0x41 PUSH1 0x4 MSTORE PUSH1 0x24 DUP4 REVERT JUMPDEST PUSH4 0x4E487B71 PUSH1 0xE0 SHL DUP3 MSTORE PUSH1 0x41 PUSH1 0x4 MSTORE PUSH1 0x24 DUP3 REVERT JUMPDEST POP PUSH2 0x1194 JUMP INVALID LOG2 PUSH5 0x6970667358 0x22 SLT KECCAK256 ADDRESS 0xBC NUMBER 0x4B DUP10 SGT 0xF PUSH24 0xD25DA776EF139B73C97DC36F83331AC405C4105C1881026D PUSH5 0x736F6C6343 STOP ADDMOD EQ STOP CALLER 0x2F DUP8 DUP9 GT PUSH31 0x7EFF1D82E926EC794901D17C78024A50270940304540A733656F0D00000000 "},"methodIdentifiers":{"DEFAULT_ADMIN_ROLE()":"a217fddf","MIN_WAGER_WEI()":"d6adf4c8","REFEREE_ROLE()":"af74bc14","acceptChallenge(uint256)":"1b0fc106","cancel(uint256)":"40e58ee5","createChallenge(address,uint32,uint64,uint64,bytes32)":"e61daca5","finalize(uint256,address,bytes32)":"2c0d89da","getRoleAdmin(bytes32)":"248a9ca3","grantRole(bytes32,address)":"2f2ff15d","hasRole(bytes32,address)":"91d14854","matches(uint256)":"4768d4ef","nextMatchId()":"c5adf7c9","refund(uint256)":"278ecde1","renounceRole(bytes32,address)":"36568abe","revokeRole(bytes32,address)":"d547741f","supportsInterface(bytes4)":"01ffc9a7"}}}}}