{"contracts/SudokuArena.sol":{"SudokuArena":{"abi":[{"inputs":[{"internalType":"address","name":"escrowAddress","type":"address"}],"stateMutability":"nonpayable","type":"constructor"},{"anonymous":false,"inputs":[{"indexed":true,"internalType":"uint256","name":"matchId","type":"uint256"},{"indexed":true,"internalType":"address","name":"opponent","type":"address"}],"name":"MatchAccepted","type":"event"},{"anonymous":false,"inputs":[{"indexed":true,"internalType":"uint256","name":"matchId","type":"uint256"},{"indexed":true,"internalType":"address","name":"creator","type":"address"},{"indexed":true,"internalType":"address","name":"opponent","type":"address"},{"indexed":false,"internalType":"bool","name":"isPvp","type":"bool"},{"indexed":false,"internalType":"uint32","name":"gameId","type":"uint32"},{"indexed":false,"internalType":"uint64","name":"acceptBy","type":"uint64"},{"indexed":false,"internalType":"uint64","name":"resolveBy","type":"uint64"},{"indexed":false,"internalType":"uint8","name":"puzzleIndex","type":"uint8"},{"indexed":false,"internalType":"bytes32","name":"puzzleHash","type":"bytes32"}],"name":"MatchCreated","type":"event"},{"anonymous":false,"inputs":[{"indexed":true,"internalType":"uint256","name":"matchId","type":"uint256"},{"indexed":true,"internalType":"address","name":"winner","type":"address"},{"indexed":false,"internalType":"uint256","name":"winnerDelta","type":"uint256"}],"name":"MatchFinalized","type":"event"},{"anonymous":false,"inputs":[{"indexed":true,"internalType":"uint256","name":"matchId","type":"uint256"},{"indexed":false,"internalType":"enum SudokuArena.State","name":"state","type":"uint8"}],"name":"MatchStateUpdated","type":"event"},{"anonymous":false,"inputs":[{"indexed":true,"internalType":"uint256","name":"matchId","type":"uint256"},{"indexed":true,"internalType":"address","name":"player","type":"address"},{"indexed":false,"internalType":"uint8","name":"row","type":"uint8"},{"indexed":false,"internalType":"uint8","name":"col","type":"uint8"},{"indexed":false,"internalType":"uint8","name":"value","type":"uint8"}],"name":"MoveSubmitted","type":"event"},{"inputs":[{"internalType":"uint256","name":"matchId","type":"uint256"}],"name":"acceptMatch","outputs":[],"stateMutability":"nonpayable","type":"function"},{"inputs":[],"name":"admin","outputs":[{"internalType":"address","name":"","type":"address"}],"stateMutability":"view","type":"function"},{"inputs":[{"internalType":"uint32","name":"gameId","type":"uint32"}],"name":"createPveMatch","outputs":[{"internalType":"uint256","name":"matchId","type":"uint256"}],"stateMutability":"nonpayable","type":"function"},{"inputs":[{"internalType":"uint256","name":"escrowMatchId","type":"uint256"},{"internalType":"address","name":"opponent","type":"address"},{"internalType":"uint32","name":"gameId","type":"uint32"},{"internalType":"uint64","name":"acceptBy","type":"uint64"},{"internalType":"uint64","name":"resolveBy","type":"uint64"}],"name":"createPvpMatch","outputs":[{"internalType":"uint256","name":"matchId","type":"uint256"}],"stateMutability":"nonpayable","type":"function"},{"inputs":[],"name":"escrow","outputs":[{"internalType":"contract ArcadeEscrow","name":"","type":"address"}],"stateMutability":"view","type":"function"},{"inputs":[{"internalType":"uint256","name":"matchId","type":"uint256"},{"internalType":"address","name":"player","type":"address"},{"internalType":"uint8","name":"row","type":"uint8"},{"internalType":"uint8","name":"col","type":"uint8"}],"name":"getCell","outputs":[{"internalType":"uint8","name":"","type":"uint8"}],"stateMutability":"view","type":"function"},{"inputs":[{"internalType":"uint256","name":"matchId","type":"uint256"},{"internalType":"uint8","name":"row","type":"uint8"},{"internalType":"uint8","name":"col","type":"uint8"}],"name":"getGiven","outputs":[{"internalType":"uint8","name":"","type":"uint8"}],"stateMutability":"view","type":"function"},{"inputs":[{"internalType":"uint8","name":"index","type":"uint8"}],"name":"getPackedPuzzle","outputs":[{"internalType":"bytes","name":"","type":"bytes"}],"stateMutability":"view","type":"function"},{"inputs":[{"internalType":"uint256","name":"","type":"uint256"}],"name":"matches","outputs":[{"internalType":"address","name":"creator","type":"address"},{"internalType":"address","name":"opponent","type":"address"},{"internalType":"bool","name":"isPvp","type":"bool"},{"internalType":"enum SudokuArena.State","name":"state","type":"uint8"},{"internalType":"uint64","name":"createdAt","type":"uint64"},{"internalType":"uint64","name":"acceptBy","type":"uint64"},{"internalType":"uint64","name":"resolveBy","type":"uint64"},{"internalType":"uint32","name":"gameId","type":"uint32"},{"internalType":"uint256","name":"startBlock","type":"uint256"},{"internalType":"uint256","name":"creatorFinishBlock","type":"uint256"},{"internalType":"uint256","name":"opponentFinishBlock","type":"uint256"},{"internalType":"uint8","name":"puzzleIndex","type":"uint8"},{"internalType":"bytes32","name":"puzzleHash","type":"bytes32"}],"stateMutability":"view","type":"function"},{"inputs":[],"name":"nextMatchId","outputs":[{"internalType":"uint256","name":"","type":"uint256"}],"stateMutability":"view","type":"function"},{"inputs":[],"name":"puzzleCount","outputs":[{"internalType":"uint256","name":"","type":"uint256"}],"stateMutability":"view","type":"function"},{"inputs":[],"name":"relayer","outputs":[{"internalType":"address","name":"","type":"address"}],"stateMutability":"view","type":"function"},{"inputs":[{"internalType":"address","name":"nextRelayer","type":"address"}],"name":"setRelayer","outputs":[],"stateMutability":"nonpayable","type":"function"},{"inputs":[{"internalType":"uint256","name":"matchId","type":"uint256"},{"internalType":"uint8","name":"row","type":"uint8"},{"internalType":"uint8","name":"col","type":"uint8"},{"internalType":"uint8","name":"value","type":"uint8"}],"name":"submitMove","outputs":[],"stateMutability":"nonpayable","type":"function"},{"inputs":[{"internalType":"uint256","name":"matchId","type":"uint256"},{"internalType":"address","name":"player","type":"address"},{"internalType":"uint8","name":"row","type":"uint8"},{"internalType":"uint8","name":"col","type":"uint8"},{"internalType":"uint8","name":"value","type":"uint8"}],"name":"submitMoveFor","outputs":[],"stateMutability":"nonpayable","type":"function"}],"evm":{"bytecode":{"linkReferences":{},"object":"60a0346200061257601f6200276038819003918201601f19168301916001600160401b0383118484101762000617578084926020946040528339810103126200061257516001600160a01b0381169081900362000612578015620005cd5760805260018060a01b03193381600054161760005533906001541617600155620005ad620005a16200008e6200062d565b6005815260036020820152600060408201526006606082015260076080820152600060a0820152600960c0820152600160e08201526002610100820152600661012082015260076101408201526002610160820152600161018082015260006101a082015260056101c082015260036101e08201526000610200820152600861022082015260016102408201526000610260820152600861028082015260036102a082015260046102c082015260026102e08201526005610300820152600661032082015260006103408201526008610360820152600561038082015260096103a082015260006103c082015260066103e08201526001610400820152600461042082015260006104408201526003610460820152600461048082015260026104a082015260066104c082015260086104e08201526005610500820152600361052082015260006105408201526009610560820152600061058082015260076105a082015260006105c082015260036105e08201526009610600820152600261062082015260006106408201526008610660820152600561068082015260066106a082015260006106c082015260066106e08201526001610700820152600561072082015260006107408201526007610760820152600261078082015260086107a082015260046107c082015260026107e08201526008610800820152600761082082015260006108408201526001610860820152600961088082015260066108a082015260036108c082015260056108e08201526003610900820152600061092082015260056109408201526002610960820152600861098082015260066109a082015260006109c082015260076109e08201526000610a00820152620005a7620005a16200031d6200062d565b926004845260006020850152600560408501526002606085015260006080850152600960a0850152600760c0850152600860e08501526001610100850152600661012085015260086101408501526000610160850152600561018085015260076101a085015260016101c085015260006101e08501526009610200850152600361022085015260006102408501526009610260850152600761028085015260086102a085015260036102c085015260046102e08501526005610300850152600061032085015260026103408501526008610360850152600261038085015260066103a085015260006103c085015260096103e08501526005610400850152600361042085015260046104408501526000610460850152600361048085015260006104a085015260046104c085015260066104e08501526008610500850152600061052085015260096105408501526001610560850152600561058085015260096105a085015260056105c085015260006105e08501526007610600850152600061062085015260036106408501526006610660850152600261068085015260086106a085015260056106c085015260016106e08501526009610700850152600061072085015260026107408501526006610760850152600861078085015260006107a085015260046107c085015260006107e08501526004610800850152600861082085015260096108408501526005610860850152600061088085015260016108a085015260036108c085015260066108e08501526007610900850152600061092085015260036109408501526004610960850152600161098085015260086109a085015260006109c085015260056109e08501526009610a0085015262000821565b6200064e565b62000821565b604051611df790816200096982396080518181816101050152611aa10152f35b60405162461bcd60e51b815260206004820152601b60248201527f5375646f6b754172656e613a20657363726f77206973207a65726f00000000006044820152606490fd5b600080fd5b634e487b7160e01b600052604160045260246000fd5b60405190610a2082016001600160401b038111838210176200061757604052565b60035468010000000000000000811015620006175760019182820180600355821015620007f9576003600090815281517fc2575a0e9e593c00f959f8c92f12db2869c3395a3b0502d05e2516446f71f85b90930193602093929091906001600160401b038411620007e55785548381811c91168015620007da575b86821014620007c657601f81116200077b575b508491601f8511600114620007185793945084929190836200070c575b50501b916000199060031b1c1916179055565b015192503880620006f9565b86815285812093958591601f198316915b8883831062000760575050501062000746575b505050811b019055565b015160001960f88460031b161c191690553880806200073c565b85870151885590960195948501948793509081019062000729565b868352858320601f860160051c810191878710620007bb575b601f0160051c019084905b828110620007af575050620006dc565b8481550184906200079f565b909150819062000794565b634e487b7160e01b83526022600452602483fd5b90607f1690620006c9565b634e487b7160e01b82526041600452602482fd5b634e487b7160e01b600052603260045260246000fd5b908151811015620007f9570160200190565b60408051919290606083016001600160401b038111848210176200061757815260298352602081368286013760005b60ff605181831610156200095f57611fe08260051b16870151908116906009821162000911576001607f84821c16926200088b848a6200080f565b519060f891821c92861615600014620008ec5750620008c39260f0600f60ff60f81b94169160041b1617901b1660001a91876200080f565b535b600160ff80921601908111156200085057634e487b7160e01b600052601160045260246000fd5b6200090a935060f060ff60f81b931617901b1660001a91876200080f565b53620008c5565b845162461bcd60e51b815260048101859052602160248201527f5375646f6b754172656e613a20696e76616c69642070757a7a6c652076616c756044820152606560f81b6064820152608490fd5b5050505091509056fe6080604052600436101561001257600080fd5b60003560e01c8063035e0f2114610ecc5780634768d4ef14610dec5780636548e9bc14610d1a57806366d028ad14610c525780637194bb9014610c345780638406c07914610c0b57806392c6d4ee1461095b5780639973fe5f14610873578063a3f008051461083b578063a5a04d8e146103ae578063bb79b50a14610336578063bebcd21e14610152578063c5adf7c914610134578063e2fdcc17146100ef5763f851a440146100c157600080fd5b346100ea5760003660031901126100ea576000546040516001600160a01b039091168152602090f35b600080fd5b346100ea5760003660031901126100ea576040517f00000000000000000000000000000000000000000000000000000000000000006001600160a01b03168152602090f35b346100ea5760003660031901126100ea576020600254604051908152f35b346100ea576020806003193601126100ea576004359081600052600481526040600020600181019081549060ff8260a81c166008811015610320576001036102db5760ff8260a01c161561029f576001600160a01b038216330361025a57600201546001600160401b03164210156102155760ff60a81b1916600160a91b179055604051600080516020611da2833981519152919033847f3b8d451bc77cb8362426b579170661ca3515d7fa4c08b9627c660328f0311008600080a360028152a2005b60405162461bcd60e51b815260048101849052601b60248201527f5375646f6b754172656e613a20616363657074206578706972656400000000006044820152606490fd5b60405162461bcd60e51b815260048101859052601960248201527f5375646f6b754172656e613a206e6f74206f70706f6e656e74000000000000006044820152606490fd5b60405162461bcd60e51b815260048101859052601460248201527305375646f6b754172656e613a206e6f74207076760641b6044820152606490fd5b60405162461bcd60e51b815260048101859052601860248201527f5375646f6b754172656e613a206e6f74206372656174656400000000000000006044820152606490fd5b634e487b7160e01b600052602160045260246000fd5b346100ea5760603660031901126100ea5761034f610f7e565b610357610f5e565b600435600052600460205260406000209060ff600183015460a81c169260088410156103205761039d60ff60066103a3956103956020981515611116565b015416610f8e565b50611d11565b60ff60405191168152f35b346100ea5760a03660031901126100ea576103c7610f48565b6044359063ffffffff821682036100ea576064356001600160401b03811681036100ea57608435906001600160401b03821682036100ea576001600160a01b038316156107f657426001600160401b03821611156107b1576001600160401b0381166001600160401b038316111561076d57600435600052600460205260ff60016040600020015460a81c1660088110156103205761072857600019430143811161071257604051602081019140825260043560408201526001600160601b03193360601b1660608201526054815261049f81611047565b5190206003549081156106fc576104c36104bd60ff84840616610f8e565b50611062565b6020815191012093604051906104d882611015565b33825260018060a01b038716602083015260016040830152600160608301526001600160401b03421660808301526001600160401b03851660a08301526001600160401b03811660c083015263ffffffff881660e083015260006101008301526000610120830152600061014083015260ff8484061661016083015285610180830152600435600052600460205260406000209460018060a01b038351166001600160601b0360a01b87541617865560018060a01b0360208401511660018701549060ff60a01b6040860151151560a01b16916affffffffffffffffffffff60a81b16171760018701556060830151906008821015610320578660076101806001600160401b03966105f08896600160ff9d01611162565b60808101516001850154908760b01b9060b01b16908760b01b1916176001850155600284018660a08301511681549067ffffffffffffffff60401b60c085015160401b169063ffffffff60801b60e086015160801b16926001600160601b0360a01b161717179055610100810151600385015561012081015160048501556101408101516005850155600684018b610160830151168c19825416179055015191015563ffffffff6040519a60018c521660208b01521660408901521660608701520616608084015260a083015260018060a01b03169033907fbe8aae938d8f8784025f4a2713894112d436ddc89db4ec90513469021655d33260c060043592a460206040516004358152f35b634e487b7160e01b600052601260045260246000fd5b634e487b7160e01b600052601160045260246000fd5b60405162461bcd60e51b815260206004820152601960248201527f5375646f6b754172656e613a206d6174636820657869737473000000000000006044820152606490fd5b606460405162461bcd60e51b815260206004820152602060248201527f5375646f6b754172656e613a207265736f6c7665427920746f6f206561726c796044820152fd5b60405162461bcd60e51b815260206004820152601d60248201527f5375646f6b754172656e613a20616363657074427920696e20706173740000006044820152606490fd5b60405162461bcd60e51b815260206004820152601d60248201527f5375646f6b754172656e613a206f70706f6e656e74206973207a65726f0000006044820152606490fd5b346100ea5760803660031901126100ea57610871610857610f7e565b61085f610f5e565b610867610f6e565b9133600435611186565b005b346100ea5760a03660031901126100ea5761088c610f48565b610894610f5e565b61089c610f6e565b6084359160ff831683036100ea576001546001600160a01b039081163303610916578416156108d15761087193600435611186565b60405162461bcd60e51b815260206004820152601b60248201527f5375646f6b754172656e613a20706c61796572206973207a65726f00000000006044820152606490fd5b60405162461bcd60e51b815260206004820152601860248201527f5375646f6b754172656e613a206e6f742072656c6179657200000000000000006044820152606490fd5b346100ea5760203660031901126100ea5760043563ffffffff811681036100ea57600254600019808214610712576001820160025543014381116107125760405160208101914082526001830160408201526001600160601b03193360601b166060820152605481526109cd81611047565b5190206003549283156106fc576109eb6104bd60ff86850616610f8e565b60208151910120604051926109ff84611015565b33845260006020850152604084019560008752600160608601526001600160401b0342166080860152600060a0860152600060c086015263ffffffff841660e086015260006101008601526000610120860152600061014086015260ff818306166101608601528261018086015260018601600052600460205260406000209660018060a01b03808751166001600160601b0360a01b8a541617895560208701511660018901549160ff60a01b9051151560a01b16916affffffffffffffffffffff60a81b1617176001880155606085015191600883101561032057876007610180600098610af560ff97600160209e01611162565b60808101516001850154906001600160401b0360b01b9060b01b16906001600160401b0360b01b1916176001850155600284016001600160401b0360a08301511681549067ffffffffffffffff60401b60c085015160401b169063ffffffff60801b60e086015160801b16926001600160601b0360a01b1617171790556101008101516003850155610120810151600485015561014081015160058501556006840187610160830151168819825416179055015191015563ffffffff6040519587875216888601528560408601528560608601520616608083015260a082015233907fbe8aae938d8f8784025f4a2713894112d436ddc89db4ec90513469021655d33260c06001860192a4600160405191018152f35b346100ea5760003660031901126100ea576001546040516001600160a01b039091168152602090f35b346100ea5760003660031901126100ea576020600354604051908152f35b346100ea576020806003193601126100ea5760043560ff81168082036100ea576003541115610cd7576104bd610c8791610f8e565b604051828193825282519081818401526000935b828510610cbe575050604092506000838284010152601f80199101168101030190f35b8481018201518686016040015293810193859350610c9b565b6064826040519062461bcd60e51b825280600483015260248201527f5375646f6b754172656e613a2070757a7a6c65206f7574206f662072616e67656044820152fd5b346100ea5760203660031901126100ea576004356001600160a01b03818116918290036100ea57600054163303610dae578015610d69576001600160601b0360a01b6001541617600155600080f35b60405162461bcd60e51b815260206004820152601c60248201527f5375646f6b754172656e613a2072656c61796572206973207a65726f000000006044820152606490fd5b60405162461bcd60e51b815260206004820152601660248201527529bab237b5baa0b932b7309d103737ba1030b236b4b760511b6044820152606490fd5b346100ea5760203660031901126100ea576004356000526004602052604060002060018060a01b03808254169060018301549260ff8460a81c166002820154906003830154600484015491600585015493600760ff600688015416960154966040519889528916602089015260ff8960a01c16151560408901526008821015610320576101a09863ffffffff9260608a01526001600160401b03809160b01c1660808a015280821660a08a01528160401c1660c089015260801c1660e0870152610100860152610120850152610140840152610160830152610180820152f35b346100ea5760803660031901126100ea57610ee5610f48565b60ff610f2e610ef2610f5e565b92610efb610f6e565b90600435600052600560205260406000209060018060a01b0316600052602052610f29604060002094611c32565b611c1e565b16600052602052602060ff60406000205416604051908152f35b602435906001600160a01b03821682036100ea57565b6044359060ff821682036100ea57565b6064359060ff821682036100ea57565b6024359060ff821682036100ea57565b600354811015610fc55760036000527fc2575a0e9e593c00f959f8c92f12db2869c3395a3b0502d05e2516446f71f85b0190600090565b634e487b7160e01b600052603260045260246000fd5b90600182811c9216801561100b575b6020831014610ff557565b634e487b7160e01b600052602260045260246000fd5b91607f1691610fea565b6101a081019081106001600160401b0382111761103157604052565b634e487b7160e01b600052604160045260246000fd5b608081019081106001600160401b0382111761103157604052565b906040519160009080549061107682610fdb565b9081865260019283811690816000146110f557506001146110b8575b505050829003601f01601f191682016001600160401b0381118382101761103157604052565b9092506000526020918260002091836000935b8385106110e15750505050830101388080611092565b8054888601830152930192849082016110cb565b92935050506020925060ff191682850152151560051b830101388080611092565b1561111d57565b60405162461bcd60e51b815260206004820152601a60248201527f5375646f6b754172656e613a206d61746368206d697373696e670000000000006044820152606490fd5b90600881101561032057815460ff60a81b191660a89190911b60ff60a81b16179055565b919382600052600494856020526040600020946001860154600860ff8260a81c161015611779576111be60ff8260a81c161515611116565b600960ff8416108061197b575b1561193757600960ff8516116118f3576111e58588611bab565b156118af576000600560ff8360a81c16146118725760ff8260a01c1660001461180357806117ee57600260ff8360a81c161480156117db575b15611797575b6003880180541561178e575b5061177957600360ff8260a81c1603611744575b5060ff60068701541660ff61125d838561039d85610f8e565b166117005760ff84166113a4575b5060ff90856000526005602052604060002060018060a01b03861660005260205260406000208261129f83610f2987611c32565b1660005260205260406000208285168319825416179055816040519316835216602082015260ff82166040820152837f2feb471ea64204f73252192718f528b03fc60cf34d6c597d024cc6f8ceab524c606060018060a01b03861693a360ff168015159061138c575b611313575b50505050565b825461135694906001600160a01b0383811691161480611381575b611376575b5060018301546001600160a01b039182169116148061136a575b61135f57611988565b3880808061130d565b436005830155611988565b5060058201541561134d565b439084015538611333565b50808401541561132e565b5061139f8160ff60068601541684611c5c565b611308565b91939295979060005b60ff8116600981101561148f5760ff831614611486576113d1818761039d87610f8e565b876000526005602052604060002060018060a01b038716600052602052604060002060ff61140284610f298b611c32565b1660005260205260ff6040600020541660ff8216151560001461147f57505b60ff808a1691161461143b5761143690611bfa565b6113ad565b60405162461bcd60e51b81526020818b0152601960248201527f5375646f6b754172656e613a20726f7720636f6e666c696374000000000000006044820152606490fd5b9050611421565b61143690611bfa565b50509360005b60ff811660098110156115775760ff83161461156e576114b9868261039d87610f8e565b876000526005602052604060002060018060a01b038716600052602052604060002060ff6114ea89610f2986611c32565b1660005260205260ff6040600020541660ff8216151560001461156757505b60ff808a169116146115235761151e90611bfa565b611495565b60405162461bcd60e51b81526020818b0152601c60248201527f5375646f6b754172656e613a20636f6c756d6e20636f6e666c696374000000006044820152606490fd5b9050611509565b61151e90611bfa565b505090979361158b600360ff841604611c47565b61159a600360ff841604611c47565b9981965b60ff6115a984611c0c565b1660ff891610156116ee578b60ff6115c082611c0c565b1660ff821610156116d1578c60ff8a811690881614806116c2575b6116b057506115ee818a61039d8a610f8e565b60008b81526005602090815260408083206001600160a01b038d168452909152902060ff61161f84610f298e611c32565b1660005260205260ff6040600020541660ff821615156000146116a957505b60ff808d16911614611665579060ff6115c061165c8f969594611bfa565b92939495611c0c565b60405162461bcd60e51b81526020818e0152601960248201527f5375646f6b754172656e613a20626f7820636f6e666c696374000000000000006044820152606490fd5b905061163e565b939291906115c061165c60ff92611bfa565b5060ff861660ff8316146115db565b509091966115a96116e360ff92611bfa565b98939291505061159e565b9895965099505060ff9192509061126b565b60405162461bcd60e51b81526020818a0152601760248201527f5375646f6b754172656e613a2066697865642063656c6c0000000000000000006044820152606490fd5b60ff60a81b1916600360a81b176001870155604051600381528590600080516020611da283398151915290602090a238611244565b602188634e487b7160e01b6000525260246000fd5b43905538611230565b60405162461bcd60e51b81526020818b0152601960248201527f5375646f6b754172656e613a206e6f74206163636570746564000000000000006044820152606490fd5b50506000600360ff8360a81c161461121e565b602189634e487b7160e01b6000525260246000fd5b506000600160ff8360a81c1614801561185f575b6112245760405162461bcd60e51b81526020818b0152601760248201527f5375646f6b754172656e613a206e6f74206163746976650000000000000000006044820152606490fd5b50506000600360ff8360a81c1614611817565b60405162461bcd60e51b81526020818b0152601660248201527514dd591bdadd505c995b984e88199a5b985b1a5e995960521b6044820152606490fd5b60405162461bcd60e51b81526020818a0152601c60248201527f5375646f6b754172656e613a206e6f74207061727469636970616e74000000006044820152606490fd5b60405162461bcd60e51b81526020818a0152601a60248201527f5375646f6b754172656e613a20696e76616c69642076616c75650000000000006044820152606490fd5b60405162461bcd60e51b81526020818a0152601960248201527f5375646f6b754172656e613a20696e76616c69642063656c6c000000000000006044820152606490fd5b50600960ff8316106111cb565b60018201805460ff8160a01c1615611b355750909160048101549182158015611b29575b61130d576020906119c260038401548095611cf6565b946119d1856005860154611cf6565b9485871180159590611b1757546001600160a01b0316945b15611b105786925b600560a81b60ff60a81b1982541617905560409582600080516020611da283398151915286895160058152a260018060a01b0393837f30a52ee8dad51b8dd476d624034be6b22e908dc69b36a13252ca7e2cba67a7a68689169788938b51908152a386519760208901966001600160601b03199060601b1687526034890152605488015260748701526074865260a08601956001600160401b0387119481881086176110315787875281519020927f00000000000000000000000000000000000000000000000000000000000000001693843b156100ea57600094889460e486948894606497631606c4ed60e11b885260a483015260c482015201525af18015611b0557611afe57505050565b6110315752565b82513d6000823e3d90fd5b85926119f1565b5082546001600160a01b0316946119e9565b506005820154156119ac565b60ff60a81b1916600560a81b179055604051600581528190600080516020611da283398151915290602090a27f30a52ee8dad51b8dd476d624034be6b22e908dc69b36a13252ca7e2cba67a7a66020611ba260018060a01b03855416946003600482015491015490611cf6565b604051908152a3565b80546001600160a01b03928316919083168214611bf257600101549160ff8360a01c169283611be6575b505050611be157600090565b600190565b16149050388080611bd5565b505050600190565b60ff60019116019060ff821161071257565b60ff60039116019060ff821161071257565b9060ff8091169116019060ff821161071257565b60ff60099116029060ff821691820361071257565b60ff60039116029060ff821691820361071257565b909160005b60ff808216906051821015611ceb5780611c8d611c7d88610f8e565b5060099081860691860490611d11565b9286600052602090600582526040918260002060018060a01b038916600052815282600020916000525260002054169116159081611ce2575b50611cd957611cd490611bfa565b611c61565b50505050600090565b90501538611cc6565b505050505050600190565b90808210611d0a5781039081116107125790565b5050600090565b9291610f29611d1f92611c32565b8060011c92600093611d318254610fdb565b80607f83161015611d8d5790600f949560206001949310600014611d705750601f16601f03905b549060031b1c911615611d69571690565b60041c1690565b80601f9293602092522060038560061c16019116601f0390611d58565b634e487b7160e01b86526032600452602486fdfe45b5b5df6725344da5e2d0acc43327098c83ee0a91e8a864693668ffb84e5c31a2646970667358221220c583a56a77c0e799a910b812641a42ab8a82bdb5a532d8b8f2d23684604502eb64736f6c63430008140033","opcodes":"PUSH1 0xA0 CALLVALUE PUSH3 0x612 JUMPI PUSH1 0x1F PUSH3 0x2760 CODESIZE DUP2 SWAP1 SUB SWAP2 DUP3 ADD PUSH1 0x1F NOT AND DUP4 ADD SWAP2 PUSH1 0x1 PUSH1 0x1 PUSH1 0x40 SHL SUB DUP4 GT DUP5 DUP5 LT OR PUSH3 0x617 JUMPI DUP1 DUP5 SWAP3 PUSH1 0x20 SWAP5 PUSH1 0x40 MSTORE DUP4 CODECOPY DUP2 ADD SUB SLT PUSH3 0x612 JUMPI MLOAD PUSH1 0x1 PUSH1 0x1 PUSH1 0xA0 SHL SUB DUP2 AND SWAP1 DUP2 SWAP1 SUB PUSH3 0x612 JUMPI DUP1 ISZERO PUSH3 0x5CD JUMPI PUSH1 0x80 MSTORE PUSH1 0x1 DUP1 PUSH1 0xA0 SHL SUB NOT CALLER DUP2 PUSH1 0x0 SLOAD AND OR PUSH1 0x0 SSTORE CALLER SWAP1 PUSH1 0x1 SLOAD AND OR PUSH1 0x1 SSTORE PUSH3 0x5AD PUSH3 0x5A1 PUSH3 0x8E PUSH3 0x62D JUMP JUMPDEST PUSH1 0x5 DUP2 MSTORE PUSH1 0x3 PUSH1 0x20 DUP3 ADD MSTORE PUSH1 0x0 PUSH1 0x40 DUP3 ADD MSTORE PUSH1 0x6 PUSH1 0x60 DUP3 ADD MSTORE PUSH1 0x7 PUSH1 0x80 DUP3 ADD MSTORE PUSH1 0x0 PUSH1 0xA0 DUP3 ADD MSTORE PUSH1 0x9 PUSH1 0xC0 DUP3 ADD MSTORE PUSH1 0x1 PUSH1 0xE0 DUP3 ADD MSTORE PUSH1 0x2 PUSH2 0x100 DUP3 ADD MSTORE PUSH1 0x6 PUSH2 0x120 DUP3 ADD MSTORE PUSH1 0x7 PUSH2 0x140 DUP3 ADD MSTORE PUSH1 0x2 PUSH2 0x160 DUP3 ADD MSTORE PUSH1 0x1 PUSH2 0x180 DUP3 ADD MSTORE PUSH1 0x0 PUSH2 0x1A0 DUP3 ADD MSTORE PUSH1 0x5 PUSH2 0x1C0 DUP3 ADD MSTORE PUSH1 0x3 PUSH2 0x1E0 DUP3 ADD MSTORE PUSH1 0x0 PUSH2 0x200 DUP3 ADD MSTORE PUSH1 0x8 PUSH2 0x220 DUP3 ADD MSTORE PUSH1 0x1 PUSH2 0x240 DUP3 ADD MSTORE PUSH1 0x0 PUSH2 0x260 DUP3 ADD MSTORE PUSH1 0x8 PUSH2 0x280 DUP3 ADD MSTORE PUSH1 0x3 PUSH2 0x2A0 DUP3 ADD MSTORE PUSH1 0x4 PUSH2 0x2C0 DUP3 ADD MSTORE PUSH1 0x2 PUSH2 0x2E0 DUP3 ADD MSTORE PUSH1 0x5 PUSH2 0x300 DUP3 ADD MSTORE PUSH1 0x6 PUSH2 0x320 DUP3 ADD MSTORE PUSH1 0x0 PUSH2 0x340 DUP3 ADD MSTORE PUSH1 0x8 PUSH2 0x360 DUP3 ADD MSTORE PUSH1 0x5 PUSH2 0x380 DUP3 ADD MSTORE PUSH1 0x9 PUSH2 0x3A0 DUP3 ADD MSTORE PUSH1 0x0 PUSH2 0x3C0 DUP3 ADD MSTORE PUSH1 0x6 PUSH2 0x3E0 DUP3 ADD MSTORE PUSH1 0x1 PUSH2 0x400 DUP3 ADD MSTORE PUSH1 0x4 PUSH2 0x420 DUP3 ADD MSTORE PUSH1 0x0 PUSH2 0x440 DUP3 ADD MSTORE PUSH1 0x3 PUSH2 0x460 DUP3 ADD MSTORE PUSH1 0x4 PUSH2 0x480 DUP3 ADD MSTORE PUSH1 0x2 PUSH2 0x4A0 DUP3 ADD MSTORE PUSH1 0x6 PUSH2 0x4C0 DUP3 ADD MSTORE PUSH1 0x8 PUSH2 0x4E0 DUP3 ADD MSTORE PUSH1 0x5 PUSH2 0x500 DUP3 ADD MSTORE PUSH1 0x3 PUSH2 0x520 DUP3 ADD MSTORE PUSH1 0x0 PUSH2 0x540 DUP3 ADD MSTORE PUSH1 0x9 PUSH2 0x560 DUP3 ADD MSTORE PUSH1 0x0 PUSH2 0x580 DUP3 ADD MSTORE PUSH1 0x7 PUSH2 0x5A0 DUP3 ADD MSTORE PUSH1 0x0 PUSH2 0x5C0 DUP3 ADD MSTORE PUSH1 0x3 PUSH2 0x5E0 DUP3 ADD MSTORE PUSH1 0x9 PUSH2 0x600 DUP3 ADD MSTORE PUSH1 0x2 PUSH2 0x620 DUP3 ADD MSTORE PUSH1 0x0 PUSH2 0x640 DUP3 ADD MSTORE PUSH1 0x8 PUSH2 0x660 DUP3 ADD MSTORE PUSH1 0x5 PUSH2 0x680 DUP3 ADD MSTORE PUSH1 0x6 PUSH2 0x6A0 DUP3 ADD MSTORE PUSH1 0x0 PUSH2 0x6C0 DUP3 ADD MSTORE PUSH1 0x6 PUSH2 0x6E0 DUP3 ADD MSTORE PUSH1 0x1 PUSH2 0x700 DUP3 ADD MSTORE PUSH1 0x5 PUSH2 0x720 DUP3 ADD MSTORE PUSH1 0x0 PUSH2 0x740 DUP3 ADD MSTORE PUSH1 0x7 PUSH2 0x760 DUP3 ADD MSTORE PUSH1 0x2 PUSH2 0x780 DUP3 ADD MSTORE PUSH1 0x8 PUSH2 0x7A0 DUP3 ADD MSTORE PUSH1 0x4 PUSH2 0x7C0 DUP3 ADD MSTORE PUSH1 0x2 PUSH2 0x7E0 DUP3 ADD MSTORE PUSH1 0x8 PUSH2 0x800 DUP3 ADD MSTORE PUSH1 0x7 PUSH2 0x820 DUP3 ADD MSTORE PUSH1 0x0 PUSH2 0x840 DUP3 ADD MSTORE PUSH1 0x1 PUSH2 0x860 DUP3 ADD MSTORE PUSH1 0x9 PUSH2 0x880 DUP3 ADD MSTORE PUSH1 0x6 PUSH2 0x8A0 DUP3 ADD MSTORE PUSH1 0x3 PUSH2 0x8C0 DUP3 ADD MSTORE PUSH1 0x5 PUSH2 0x8E0 DUP3 ADD MSTORE PUSH1 0x3 PUSH2 0x900 DUP3 ADD MSTORE PUSH1 0x0 PUSH2 0x920 DUP3 ADD MSTORE PUSH1 0x5 PUSH2 0x940 DUP3 ADD MSTORE PUSH1 0x2 PUSH2 0x960 DUP3 ADD MSTORE PUSH1 0x8 PUSH2 0x980 DUP3 ADD MSTORE PUSH1 0x6 PUSH2 0x9A0 DUP3 ADD MSTORE PUSH1 0x0 PUSH2 0x9C0 DUP3 ADD MSTORE PUSH1 0x7 PUSH2 0x9E0 DUP3 ADD MSTORE PUSH1 0x0 PUSH2 0xA00 DUP3 ADD MSTORE PUSH3 0x5A7 PUSH3 0x5A1 PUSH3 0x31D PUSH3 0x62D JUMP JUMPDEST SWAP3 PUSH1 0x4 DUP5 MSTORE PUSH1 0x0 PUSH1 0x20 DUP6 ADD MSTORE PUSH1 0x5 PUSH1 0x40 DUP6 ADD MSTORE PUSH1 0x2 PUSH1 0x60 DUP6 ADD MSTORE PUSH1 0x0 PUSH1 0x80 DUP6 ADD MSTORE PUSH1 0x9 PUSH1 0xA0 DUP6 ADD MSTORE PUSH1 0x7 PUSH1 0xC0 DUP6 ADD MSTORE PUSH1 0x8 PUSH1 0xE0 DUP6 ADD MSTORE PUSH1 0x1 PUSH2 0x100 DUP6 ADD MSTORE PUSH1 0x6 PUSH2 0x120 DUP6 ADD MSTORE PUSH1 0x8 PUSH2 0x140 DUP6 ADD MSTORE PUSH1 0x0 PUSH2 0x160 DUP6 ADD MSTORE PUSH1 0x5 PUSH2 0x180 DUP6 ADD MSTORE PUSH1 0x7 PUSH2 0x1A0 DUP6 ADD MSTORE PUSH1 0x1 PUSH2 0x1C0 DUP6 ADD MSTORE PUSH1 0x0 PUSH2 0x1E0 DUP6 ADD MSTORE PUSH1 0x9 PUSH2 0x200 DUP6 ADD MSTORE PUSH1 0x3 PUSH2 0x220 DUP6 ADD MSTORE PUSH1 0x0 PUSH2 0x240 DUP6 ADD MSTORE PUSH1 0x9 PUSH2 0x260 DUP6 ADD MSTORE PUSH1 0x7 PUSH2 0x280 DUP6 ADD MSTORE PUSH1 0x8 PUSH2 0x2A0 DUP6 ADD MSTORE PUSH1 0x3 PUSH2 0x2C0 DUP6 ADD MSTORE PUSH1 0x4 PUSH2 0x2E0 DUP6 ADD MSTORE PUSH1 0x5 PUSH2 0x300 DUP6 ADD MSTORE PUSH1 0x0 PUSH2 0x320 DUP6 ADD MSTORE PUSH1 0x2 PUSH2 0x340 DUP6 ADD MSTORE PUSH1 0x8 PUSH2 0x360 DUP6 ADD MSTORE PUSH1 0x2 PUSH2 0x380 DUP6 ADD MSTORE PUSH1 0x6 PUSH2 0x3A0 DUP6 ADD MSTORE PUSH1 0x0 PUSH2 0x3C0 DUP6 ADD MSTORE PUSH1 0x9 PUSH2 0x3E0 DUP6 ADD MSTORE PUSH1 0x5 PUSH2 0x400 DUP6 ADD MSTORE PUSH1 0x3 PUSH2 0x420 DUP6 ADD MSTORE PUSH1 0x4 PUSH2 0x440 DUP6 ADD MSTORE PUSH1 0x0 PUSH2 0x460 DUP6 ADD MSTORE PUSH1 0x3 PUSH2 0x480 DUP6 ADD MSTORE PUSH1 0x0 PUSH2 0x4A0 DUP6 ADD MSTORE PUSH1 0x4 PUSH2 0x4C0 DUP6 ADD MSTORE PUSH1 0x6 PUSH2 0x4E0 DUP6 ADD MSTORE PUSH1 0x8 PUSH2 0x500 DUP6 ADD MSTORE PUSH1 0x0 PUSH2 0x520 DUP6 ADD MSTORE PUSH1 0x9 PUSH2 0x540 DUP6 ADD MSTORE PUSH1 0x1 PUSH2 0x560 DUP6 ADD MSTORE PUSH1 0x5 PUSH2 0x580 DUP6 ADD MSTORE PUSH1 0x9 PUSH2 0x5A0 DUP6 ADD MSTORE PUSH1 0x5 PUSH2 0x5C0 DUP6 ADD MSTORE PUSH1 0x0 PUSH2 0x5E0 DUP6 ADD MSTORE PUSH1 0x7 PUSH2 0x600 DUP6 ADD MSTORE PUSH1 0x0 PUSH2 0x620 DUP6 ADD MSTORE PUSH1 0x3 PUSH2 0x640 DUP6 ADD MSTORE PUSH1 0x6 PUSH2 0x660 DUP6 ADD MSTORE PUSH1 0x2 PUSH2 0x680 DUP6 ADD MSTORE PUSH1 0x8 PUSH2 0x6A0 DUP6 ADD MSTORE PUSH1 0x5 PUSH2 0x6C0 DUP6 ADD MSTORE PUSH1 0x1 PUSH2 0x6E0 DUP6 ADD MSTORE PUSH1 0x9 PUSH2 0x700 DUP6 ADD MSTORE PUSH1 0x0 PUSH2 0x720 DUP6 ADD MSTORE PUSH1 0x2 PUSH2 0x740 DUP6 ADD MSTORE PUSH1 0x6 PUSH2 0x760 DUP6 ADD MSTORE PUSH1 0x8 PUSH2 0x780 DUP6 ADD MSTORE PUSH1 0x0 PUSH2 0x7A0 DUP6 ADD MSTORE PUSH1 0x4 PUSH2 0x7C0 DUP6 ADD MSTORE PUSH1 0x0 PUSH2 0x7E0 DUP6 ADD MSTORE PUSH1 0x4 PUSH2 0x800 DUP6 ADD MSTORE PUSH1 0x8 PUSH2 0x820 DUP6 ADD MSTORE PUSH1 0x9 PUSH2 0x840 DUP6 ADD MSTORE PUSH1 0x5 PUSH2 0x860 DUP6 ADD MSTORE PUSH1 0x0 PUSH2 0x880 DUP6 ADD MSTORE PUSH1 0x1 PUSH2 0x8A0 DUP6 ADD MSTORE PUSH1 0x3 PUSH2 0x8C0 DUP6 ADD MSTORE PUSH1 0x6 PUSH2 0x8E0 DUP6 ADD MSTORE PUSH1 0x7 PUSH2 0x900 DUP6 ADD MSTORE PUSH1 0x0 PUSH2 0x920 DUP6 ADD MSTORE PUSH1 0x3 PUSH2 0x940 DUP6 ADD MSTORE PUSH1 0x4 PUSH2 0x960 DUP6 ADD MSTORE PUSH1 0x1 PUSH2 0x980 DUP6 ADD MSTORE PUSH1 0x8 PUSH2 0x9A0 DUP6 ADD MSTORE PUSH1 0x0 PUSH2 0x9C0 DUP6 ADD MSTORE PUSH1 0x5 PUSH2 0x9E0 DUP6 ADD MSTORE PUSH1 0x9 PUSH2 0xA00 DUP6 ADD MSTORE PUSH3 0x821 JUMP JUMPDEST PUSH3 0x64E JUMP JUMPDEST PUSH3 0x821 JUMP JUMPDEST PUSH1 0x40 MLOAD PUSH2 0x1DF7 SWAP1 DUP2 PUSH3 0x969 DUP3 CODECOPY PUSH1 0x80 MLOAD DUP2 DUP2 DUP2 PUSH2 0x105 ADD MSTORE PUSH2 0x1AA1 ADD MSTORE RETURN JUMPDEST PUSH1 0x40 MLOAD PUSH3 0x461BCD PUSH1 0xE5 SHL DUP2 MSTORE PUSH1 0x20 PUSH1 0x4 DUP3 ADD MSTORE PUSH1 0x1B PUSH1 0x24 DUP3 ADD MSTORE PUSH32 0x5375646F6B754172656E613A20657363726F77206973207A65726F0000000000 PUSH1 0x44 DUP3 ADD MSTORE PUSH1 0x64 SWAP1 REVERT JUMPDEST PUSH1 0x0 DUP1 REVERT JUMPDEST PUSH4 0x4E487B71 PUSH1 0xE0 SHL PUSH1 0x0 MSTORE PUSH1 0x41 PUSH1 0x4 MSTORE PUSH1 0x24 PUSH1 0x0 REVERT JUMPDEST PUSH1 0x40 MLOAD SWAP1 PUSH2 0xA20 DUP3 ADD PUSH1 0x1 PUSH1 0x1 PUSH1 0x40 SHL SUB DUP2 GT DUP4 DUP3 LT OR PUSH3 0x617 JUMPI PUSH1 0x40 MSTORE JUMP JUMPDEST PUSH1 0x3 SLOAD PUSH9 0x10000000000000000 DUP2 LT ISZERO PUSH3 0x617 JUMPI PUSH1 0x1 SWAP2 DUP3 DUP3 ADD DUP1 PUSH1 0x3 SSTORE DUP3 LT ISZERO PUSH3 0x7F9 JUMPI PUSH1 0x3 PUSH1 0x0 SWAP1 DUP2 MSTORE DUP2 MLOAD PUSH32 0xC2575A0E9E593C00F959F8C92F12DB2869C3395A3B0502D05E2516446F71F85B SWAP1 SWAP4 ADD SWAP4 PUSH1 0x20 SWAP4 SWAP3 SWAP1 SWAP2 SWAP1 PUSH1 0x1 PUSH1 0x1 PUSH1 0x40 SHL SUB DUP5 GT PUSH3 0x7E5 JUMPI DUP6 SLOAD DUP4 DUP2 DUP2 SHR SWAP2 AND DUP1 ISZERO PUSH3 0x7DA JUMPI JUMPDEST DUP7 DUP3 LT EQ PUSH3 0x7C6 JUMPI PUSH1 0x1F DUP2 GT PUSH3 0x77B JUMPI JUMPDEST POP DUP5 SWAP2 PUSH1 0x1F DUP6 GT PUSH1 0x1 EQ PUSH3 0x718 JUMPI SWAP4 SWAP5 POP DUP5 SWAP3 SWAP2 SWAP1 DUP4 PUSH3 0x70C JUMPI JUMPDEST POP POP SHL SWAP2 PUSH1 0x0 NOT SWAP1 PUSH1 0x3 SHL SHR NOT AND OR SWAP1 SSTORE JUMP JUMPDEST ADD MLOAD SWAP3 POP CODESIZE DUP1 PUSH3 0x6F9 JUMP JUMPDEST DUP7 DUP2 MSTORE DUP6 DUP2 KECCAK256 SWAP4 SWAP6 DUP6 SWAP2 PUSH1 0x1F NOT DUP4 AND SWAP2 JUMPDEST DUP9 DUP4 DUP4 LT PUSH3 0x760 JUMPI POP POP POP LT PUSH3 0x746 JUMPI JUMPDEST POP POP POP DUP2 SHL ADD SWAP1 SSTORE JUMP JUMPDEST ADD MLOAD PUSH1 0x0 NOT PUSH1 0xF8 DUP5 PUSH1 0x3 SHL AND SHR NOT AND SWAP1 SSTORE CODESIZE DUP1 DUP1 PUSH3 0x73C JUMP JUMPDEST DUP6 DUP8 ADD MLOAD DUP9 SSTORE SWAP1 SWAP7 ADD SWAP6 SWAP5 DUP6 ADD SWAP5 DUP8 SWAP4 POP SWAP1 DUP2 ADD SWAP1 PUSH3 0x729 JUMP JUMPDEST DUP7 DUP4 MSTORE DUP6 DUP4 KECCAK256 PUSH1 0x1F DUP7 ADD PUSH1 0x5 SHR DUP2 ADD SWAP2 DUP8 DUP8 LT PUSH3 0x7BB JUMPI JUMPDEST PUSH1 0x1F ADD PUSH1 0x5 SHR ADD SWAP1 DUP5 SWAP1 JUMPDEST DUP3 DUP2 LT PUSH3 0x7AF JUMPI POP POP PUSH3 0x6DC JUMP JUMPDEST DUP5 DUP2 SSTORE ADD DUP5 SWAP1 PUSH3 0x79F JUMP JUMPDEST SWAP1 SWAP2 POP DUP2 SWAP1 PUSH3 0x794 JUMP JUMPDEST PUSH4 0x4E487B71 PUSH1 0xE0 SHL DUP4 MSTORE PUSH1 0x22 PUSH1 0x4 MSTORE PUSH1 0x24 DUP4 REVERT JUMPDEST SWAP1 PUSH1 0x7F AND SWAP1 PUSH3 0x6C9 JUMP JUMPDEST PUSH4 0x4E487B71 PUSH1 0xE0 SHL DUP3 MSTORE PUSH1 0x41 PUSH1 0x4 MSTORE PUSH1 0x24 DUP3 REVERT JUMPDEST PUSH4 0x4E487B71 PUSH1 0xE0 SHL PUSH1 0x0 MSTORE PUSH1 0x32 PUSH1 0x4 MSTORE PUSH1 0x24 PUSH1 0x0 REVERT JUMPDEST SWAP1 DUP2 MLOAD DUP2 LT ISZERO PUSH3 0x7F9 JUMPI ADD PUSH1 0x20 ADD SWAP1 JUMP JUMPDEST PUSH1 0x40 DUP1 MLOAD SWAP2 SWAP3 SWAP1 PUSH1 0x60 DUP4 ADD PUSH1 0x1 PUSH1 0x1 PUSH1 0x40 SHL SUB DUP2 GT DUP5 DUP3 LT OR PUSH3 0x617 JUMPI DUP2 MSTORE PUSH1 0x29 DUP4 MSTORE PUSH1 0x20 DUP2 CALLDATASIZE DUP3 DUP7 ADD CALLDATACOPY PUSH1 0x0 JUMPDEST PUSH1 0xFF PUSH1 0x51 DUP2 DUP4 AND LT ISZERO PUSH3 0x95F JUMPI PUSH2 0x1FE0 DUP3 PUSH1 0x5 SHL AND DUP8 ADD MLOAD SWAP1 DUP2 AND SWAP1 PUSH1 0x9 DUP3 GT PUSH3 0x911 JUMPI PUSH1 0x1 PUSH1 0x7F DUP5 DUP3 SHR AND SWAP3 PUSH3 0x88B DUP5 DUP11 PUSH3 0x80F JUMP JUMPDEST MLOAD SWAP1 PUSH1 0xF8 SWAP2 DUP3 SHR SWAP3 DUP7 AND ISZERO PUSH1 0x0 EQ PUSH3 0x8EC JUMPI POP PUSH3 0x8C3 SWAP3 PUSH1 0xF0 PUSH1 0xF PUSH1 0xFF PUSH1 0xF8 SHL SWAP5 AND SWAP2 PUSH1 0x4 SHL AND OR SWAP1 SHL AND PUSH1 0x0 BYTE SWAP2 DUP8 PUSH3 0x80F JUMP JUMPDEST MSTORE8 JUMPDEST PUSH1 0x1 PUSH1 0xFF DUP1 SWAP3 AND ADD SWAP1 DUP2 GT ISZERO PUSH3 0x850 JUMPI PUSH4 0x4E487B71 PUSH1 0xE0 SHL PUSH1 0x0 MSTORE PUSH1 0x11 PUSH1 0x4 MSTORE PUSH1 0x24 PUSH1 0x0 REVERT JUMPDEST PUSH3 0x90A SWAP4 POP PUSH1 0xF0 PUSH1 0xFF PUSH1 0xF8 SHL SWAP4 AND OR SWAP1 SHL AND PUSH1 0x0 BYTE SWAP2 DUP8 PUSH3 0x80F JUMP JUMPDEST MSTORE8 PUSH3 0x8C5 JUMP JUMPDEST DUP5 MLOAD PUSH3 0x461BCD PUSH1 0xE5 SHL DUP2 MSTORE PUSH1 0x4 DUP2 ADD DUP6 SWAP1 MSTORE PUSH1 0x21 PUSH1 0x24 DUP3 ADD MSTORE PUSH32 0x5375646F6B754172656E613A20696E76616C69642070757A7A6C652076616C75 PUSH1 0x44 DUP3 ADD MSTORE PUSH1 0x65 PUSH1 0xF8 SHL PUSH1 0x64 DUP3 ADD MSTORE PUSH1 0x84 SWAP1 REVERT JUMPDEST POP POP POP POP SWAP2 POP SWAP1 JUMP INVALID PUSH1 0x80 PUSH1 0x40 MSTORE PUSH1 0x4 CALLDATASIZE LT ISZERO PUSH2 0x12 JUMPI PUSH1 0x0 DUP1 REVERT JUMPDEST PUSH1 0x0 CALLDATALOAD PUSH1 0xE0 SHR DUP1 PUSH4 0x35E0F21 EQ PUSH2 0xECC JUMPI DUP1 PUSH4 0x4768D4EF EQ PUSH2 0xDEC JUMPI DUP1 PUSH4 0x6548E9BC EQ PUSH2 0xD1A JUMPI DUP1 PUSH4 0x66D028AD EQ PUSH2 0xC52 JUMPI DUP1 PUSH4 0x7194BB90 EQ PUSH2 0xC34 JUMPI DUP1 PUSH4 0x8406C079 EQ PUSH2 0xC0B JUMPI DUP1 PUSH4 0x92C6D4EE EQ PUSH2 0x95B JUMPI DUP1 PUSH4 0x9973FE5F EQ PUSH2 0x873 JUMPI DUP1 PUSH4 0xA3F00805 EQ PUSH2 0x83B JUMPI DUP1 PUSH4 0xA5A04D8E EQ PUSH2 0x3AE JUMPI DUP1 PUSH4 0xBB79B50A EQ PUSH2 0x336 JUMPI DUP1 PUSH4 0xBEBCD21E EQ PUSH2 0x152 JUMPI DUP1 PUSH4 0xC5ADF7C9 EQ PUSH2 0x134 JUMPI DUP1 PUSH4 0xE2FDCC17 EQ PUSH2 0xEF JUMPI PUSH4 0xF851A440 EQ PUSH2 0xC1 JUMPI PUSH1 0x0 DUP1 REVERT JUMPDEST CALLVALUE PUSH2 0xEA JUMPI PUSH1 0x0 CALLDATASIZE PUSH1 0x3 NOT ADD SLT PUSH2 0xEA JUMPI PUSH1 0x0 SLOAD PUSH1 0x40 MLOAD PUSH1 0x1 PUSH1 0x1 PUSH1 0xA0 SHL SUB SWAP1 SWAP2 AND DUP2 MSTORE PUSH1 0x20 SWAP1 RETURN JUMPDEST PUSH1 0x0 DUP1 REVERT JUMPDEST CALLVALUE PUSH2 0xEA JUMPI PUSH1 0x0 CALLDATASIZE PUSH1 0x3 NOT ADD SLT PUSH2 0xEA JUMPI PUSH1 0x40 MLOAD PUSH32 0x0 PUSH1 0x1 PUSH1 0x1 PUSH1 0xA0 SHL SUB AND DUP2 MSTORE PUSH1 0x20 SWAP1 RETURN JUMPDEST CALLVALUE PUSH2 0xEA JUMPI PUSH1 0x0 CALLDATASIZE PUSH1 0x3 NOT ADD SLT PUSH2 0xEA JUMPI PUSH1 0x20 PUSH1 0x2 SLOAD PUSH1 0x40 MLOAD SWAP1 DUP2 MSTORE RETURN JUMPDEST CALLVALUE PUSH2 0xEA JUMPI PUSH1 0x20 DUP1 PUSH1 0x3 NOT CALLDATASIZE ADD SLT PUSH2 0xEA JUMPI PUSH1 0x4 CALLDATALOAD SWAP1 DUP2 PUSH1 0x0 MSTORE PUSH1 0x4 DUP2 MSTORE PUSH1 0x40 PUSH1 0x0 KECCAK256 PUSH1 0x1 DUP2 ADD SWAP1 DUP2 SLOAD SWAP1 PUSH1 0xFF DUP3 PUSH1 0xA8 SHR AND PUSH1 0x8 DUP2 LT ISZERO PUSH2 0x320 JUMPI PUSH1 0x1 SUB PUSH2 0x2DB JUMPI PUSH1 0xFF DUP3 PUSH1 0xA0 SHR AND ISZERO PUSH2 0x29F JUMPI PUSH1 0x1 PUSH1 0x1 PUSH1 0xA0 SHL SUB DUP3 AND CALLER SUB PUSH2 0x25A JUMPI PUSH1 0x2 ADD SLOAD PUSH1 0x1 PUSH1 0x1 PUSH1 0x40 SHL SUB AND TIMESTAMP LT ISZERO PUSH2 0x215 JUMPI PUSH1 0xFF PUSH1 0xA8 SHL NOT AND PUSH1 0x1 PUSH1 0xA9 SHL OR SWAP1 SSTORE PUSH1 0x40 MLOAD PUSH1 0x0 DUP1 MLOAD PUSH1 0x20 PUSH2 0x1DA2 DUP4 CODECOPY DUP2 MLOAD SWAP2 MSTORE SWAP2 SWAP1 CALLER DUP5 PUSH32 0x3B8D451BC77CB8362426B579170661CA3515D7FA4C08B9627C660328F0311008 PUSH1 0x0 DUP1 LOG3 PUSH1 0x2 DUP2 MSTORE LOG2 STOP JUMPDEST PUSH1 0x40 MLOAD PUSH3 0x461BCD PUSH1 0xE5 SHL DUP2 MSTORE PUSH1 0x4 DUP2 ADD DUP5 SWAP1 MSTORE PUSH1 0x1B PUSH1 0x24 DUP3 ADD MSTORE PUSH32 0x5375646F6B754172656E613A2061636365707420657870697265640000000000 PUSH1 0x44 DUP3 ADD MSTORE PUSH1 0x64 SWAP1 REVERT JUMPDEST PUSH1 0x40 MLOAD PUSH3 0x461BCD PUSH1 0xE5 SHL DUP2 MSTORE PUSH1 0x4 DUP2 ADD DUP6 SWAP1 MSTORE PUSH1 0x19 PUSH1 0x24 DUP3 ADD MSTORE PUSH32 0x5375646F6B754172656E613A206E6F74206F70706F6E656E7400000000000000 PUSH1 0x44 DUP3 ADD MSTORE PUSH1 0x64 SWAP1 REVERT JUMPDEST PUSH1 0x40 MLOAD PUSH3 0x461BCD PUSH1 0xE5 SHL DUP2 MSTORE PUSH1 0x4 DUP2 ADD DUP6 SWAP1 MSTORE PUSH1 0x14 PUSH1 0x24 DUP3 ADD MSTORE PUSH20 0x5375646F6B754172656E613A206E6F742070767 PUSH1 0x64 SHL PUSH1 0x44 DUP3 ADD MSTORE PUSH1 0x64 SWAP1 REVERT JUMPDEST PUSH1 0x40 MLOAD PUSH3 0x461BCD PUSH1 0xE5 SHL DUP2 MSTORE PUSH1 0x4 DUP2 ADD DUP6 SWAP1 MSTORE PUSH1 0x18 PUSH1 0x24 DUP3 ADD MSTORE PUSH32 0x5375646F6B754172656E613A206E6F7420637265617465640000000000000000 PUSH1 0x44 DUP3 ADD MSTORE PUSH1 0x64 SWAP1 REVERT JUMPDEST PUSH4 0x4E487B71 PUSH1 0xE0 SHL PUSH1 0x0 MSTORE PUSH1 0x21 PUSH1 0x4 MSTORE PUSH1 0x24 PUSH1 0x0 REVERT JUMPDEST CALLVALUE PUSH2 0xEA JUMPI PUSH1 0x60 CALLDATASIZE PUSH1 0x3 NOT ADD SLT PUSH2 0xEA JUMPI PUSH2 0x34F PUSH2 0xF7E JUMP JUMPDEST PUSH2 0x357 PUSH2 0xF5E JUMP JUMPDEST PUSH1 0x4 CALLDATALOAD PUSH1 0x0 MSTORE PUSH1 0x4 PUSH1 0x20 MSTORE PUSH1 0x40 PUSH1 0x0 KECCAK256 SWAP1 PUSH1 0xFF PUSH1 0x1 DUP4 ADD SLOAD PUSH1 0xA8 SHR AND SWAP3 PUSH1 0x8 DUP5 LT ISZERO PUSH2 0x320 JUMPI PUSH2 0x39D PUSH1 0xFF PUSH1 0x6 PUSH2 0x3A3 SWAP6 PUSH2 0x395 PUSH1 0x20 SWAP9 ISZERO ISZERO PUSH2 0x1116 JUMP JUMPDEST ADD SLOAD AND PUSH2 0xF8E JUMP JUMPDEST POP PUSH2 0x1D11 JUMP JUMPDEST PUSH1 0xFF PUSH1 0x40 MLOAD SWAP2 AND DUP2 MSTORE RETURN JUMPDEST CALLVALUE PUSH2 0xEA JUMPI PUSH1 0xA0 CALLDATASIZE PUSH1 0x3 NOT ADD SLT PUSH2 0xEA JUMPI PUSH2 0x3C7 PUSH2 0xF48 JUMP JUMPDEST PUSH1 0x44 CALLDATALOAD SWAP1 PUSH4 0xFFFFFFFF DUP3 AND DUP3 SUB PUSH2 0xEA JUMPI PUSH1 0x64 CALLDATALOAD PUSH1 0x1 PUSH1 0x1 PUSH1 0x40 SHL SUB DUP2 AND DUP2 SUB PUSH2 0xEA JUMPI PUSH1 0x84 CALLDATALOAD SWAP1 PUSH1 0x1 PUSH1 0x1 PUSH1 0x40 SHL SUB DUP3 AND DUP3 SUB PUSH2 0xEA JUMPI PUSH1 0x1 PUSH1 0x1 PUSH1 0xA0 SHL SUB DUP4 AND ISZERO PUSH2 0x7F6 JUMPI TIMESTAMP PUSH1 0x1 PUSH1 0x1 PUSH1 0x40 SHL SUB DUP3 AND GT ISZERO PUSH2 0x7B1 JUMPI PUSH1 0x1 PUSH1 0x1 PUSH1 0x40 SHL SUB DUP2 AND PUSH1 0x1 PUSH1 0x1 PUSH1 0x40 SHL SUB DUP4 AND GT ISZERO PUSH2 0x76D JUMPI PUSH1 0x4 CALLDATALOAD PUSH1 0x0 MSTORE PUSH1 0x4 PUSH1 0x20 MSTORE PUSH1 0xFF PUSH1 0x1 PUSH1 0x40 PUSH1 0x0 KECCAK256 ADD SLOAD PUSH1 0xA8 SHR AND PUSH1 0x8 DUP2 LT ISZERO PUSH2 0x320 JUMPI PUSH2 0x728 JUMPI PUSH1 0x0 NOT NUMBER ADD NUMBER DUP2 GT PUSH2 0x712 JUMPI PUSH1 0x40 MLOAD PUSH1 0x20 DUP2 ADD SWAP2 BLOCKHASH DUP3 MSTORE PUSH1 0x4 CALLDATALOAD PUSH1 0x40 DUP3 ADD MSTORE PUSH1 0x1 PUSH1 0x1 PUSH1 0x60 SHL SUB NOT CALLER PUSH1 0x60 SHL AND PUSH1 0x60 DUP3 ADD MSTORE PUSH1 0x54 DUP2 MSTORE PUSH2 0x49F DUP2 PUSH2 0x1047 JUMP JUMPDEST MLOAD SWAP1 KECCAK256 PUSH1 0x3 SLOAD SWAP1 DUP2 ISZERO PUSH2 0x6FC JUMPI PUSH2 0x4C3 PUSH2 0x4BD PUSH1 0xFF DUP5 DUP5 MOD AND PUSH2 0xF8E JUMP JUMPDEST POP PUSH2 0x1062 JUMP JUMPDEST PUSH1 0x20 DUP2 MLOAD SWAP2 ADD KECCAK256 SWAP4 PUSH1 0x40 MLOAD SWAP1 PUSH2 0x4D8 DUP3 PUSH2 0x1015 JUMP JUMPDEST CALLER DUP3 MSTORE PUSH1 0x1 DUP1 PUSH1 0xA0 SHL SUB DUP8 AND PUSH1 0x20 DUP4 ADD MSTORE PUSH1 0x1 PUSH1 0x40 DUP4 ADD MSTORE PUSH1 0x1 PUSH1 0x60 DUP4 ADD MSTORE PUSH1 0x1 PUSH1 0x1 PUSH1 0x40 SHL SUB TIMESTAMP AND PUSH1 0x80 DUP4 ADD MSTORE PUSH1 0x1 PUSH1 0x1 PUSH1 0x40 SHL SUB DUP6 AND PUSH1 0xA0 DUP4 ADD MSTORE PUSH1 0x1 PUSH1 0x1 PUSH1 0x40 SHL SUB DUP2 AND PUSH1 0xC0 DUP4 ADD MSTORE PUSH4 0xFFFFFFFF DUP9 AND PUSH1 0xE0 DUP4 ADD MSTORE PUSH1 0x0 PUSH2 0x100 DUP4 ADD MSTORE PUSH1 0x0 PUSH2 0x120 DUP4 ADD MSTORE PUSH1 0x0 PUSH2 0x140 DUP4 ADD MSTORE PUSH1 0xFF DUP5 DUP5 MOD AND PUSH2 0x160 DUP4 ADD MSTORE DUP6 PUSH2 0x180 DUP4 ADD MSTORE PUSH1 0x4 CALLDATALOAD PUSH1 0x0 MSTORE PUSH1 0x4 PUSH1 0x20 MSTORE PUSH1 0x40 PUSH1 0x0 KECCAK256 SWAP5 PUSH1 0x1 DUP1 PUSH1 0xA0 SHL SUB DUP4 MLOAD AND PUSH1 0x1 PUSH1 0x1 PUSH1 0x60 SHL SUB PUSH1 0xA0 SHL DUP8 SLOAD AND OR DUP7 SSTORE PUSH1 0x1 DUP1 PUSH1 0xA0 SHL SUB PUSH1 0x20 DUP5 ADD MLOAD AND PUSH1 0x1 DUP8 ADD SLOAD SWAP1 PUSH1 0xFF PUSH1 0xA0 SHL PUSH1 0x40 DUP7 ADD MLOAD ISZERO ISZERO PUSH1 0xA0 SHL AND SWAP2 PUSH11 0xFFFFFFFFFFFFFFFFFFFFFF PUSH1 0xA8 SHL AND OR OR PUSH1 0x1 DUP8 ADD SSTORE PUSH1 0x60 DUP4 ADD MLOAD SWAP1 PUSH1 0x8 DUP3 LT ISZERO PUSH2 0x320 JUMPI DUP7 PUSH1 0x7 PUSH2 0x180 PUSH1 0x1 PUSH1 0x1 PUSH1 0x40 SHL SUB SWAP7 PUSH2 0x5F0 DUP9 SWAP7 PUSH1 0x1 PUSH1 0xFF SWAP14 ADD PUSH2 0x1162 JUMP JUMPDEST PUSH1 0x80 DUP2 ADD MLOAD PUSH1 0x1 DUP6 ADD SLOAD SWAP1 DUP8 PUSH1 0xB0 SHL SWAP1 PUSH1 0xB0 SHL AND SWAP1 DUP8 PUSH1 0xB0 SHL NOT AND OR PUSH1 0x1 DUP6 ADD SSTORE PUSH1 0x2 DUP5 ADD DUP7 PUSH1 0xA0 DUP4 ADD MLOAD AND DUP2 SLOAD SWAP1 PUSH8 0xFFFFFFFFFFFFFFFF PUSH1 0x40 SHL PUSH1 0xC0 DUP6 ADD MLOAD PUSH1 0x40 SHL AND SWAP1 PUSH4 0xFFFFFFFF PUSH1 0x80 SHL PUSH1 0xE0 DUP7 ADD MLOAD PUSH1 0x80 SHL AND SWAP3 PUSH1 0x1 PUSH1 0x1 PUSH1 0x60 SHL SUB PUSH1 0xA0 SHL AND OR OR OR SWAP1 SSTORE PUSH2 0x100 DUP2 ADD MLOAD PUSH1 0x3 DUP6 ADD SSTORE PUSH2 0x120 DUP2 ADD MLOAD PUSH1 0x4 DUP6 ADD SSTORE PUSH2 0x140 DUP2 ADD MLOAD PUSH1 0x5 DUP6 ADD SSTORE PUSH1 0x6 DUP5 ADD DUP12 PUSH2 0x160 DUP4 ADD MLOAD AND DUP13 NOT DUP3 SLOAD AND OR SWAP1 SSTORE ADD MLOAD SWAP2 ADD SSTORE PUSH4 0xFFFFFFFF PUSH1 0x40 MLOAD SWAP11 PUSH1 0x1 DUP13 MSTORE AND PUSH1 0x20 DUP12 ADD MSTORE AND PUSH1 0x40 DUP10 ADD MSTORE AND PUSH1 0x60 DUP8 ADD MSTORE MOD AND PUSH1 0x80 DUP5 ADD MSTORE PUSH1 0xA0 DUP4 ADD MSTORE PUSH1 0x1 DUP1 PUSH1 0xA0 SHL SUB AND SWAP1 CALLER SWAP1 PUSH32 0xBE8AAE938D8F8784025F4A2713894112D436DDC89DB4EC90513469021655D332 PUSH1 0xC0 PUSH1 0x4 CALLDATALOAD SWAP3 LOG4 PUSH1 0x20 PUSH1 0x40 MLOAD PUSH1 0x4 CALLDATALOAD DUP2 MSTORE RETURN JUMPDEST PUSH4 0x4E487B71 PUSH1 0xE0 SHL PUSH1 0x0 MSTORE PUSH1 0x12 PUSH1 0x4 MSTORE PUSH1 0x24 PUSH1 0x0 REVERT JUMPDEST PUSH4 0x4E487B71 PUSH1 0xE0 SHL PUSH1 0x0 MSTORE PUSH1 0x11 PUSH1 0x4 MSTORE PUSH1 0x24 PUSH1 0x0 REVERT JUMPDEST PUSH1 0x40 MLOAD PUSH3 0x461BCD PUSH1 0xE5 SHL DUP2 MSTORE PUSH1 0x20 PUSH1 0x4 DUP3 ADD MSTORE PUSH1 0x19 PUSH1 0x24 DUP3 ADD MSTORE PUSH32 0x5375646F6B754172656E613A206D617463682065786973747300000000000000 PUSH1 0x44 DUP3 ADD MSTORE PUSH1 0x64 SWAP1 REVERT JUMPDEST PUSH1 0x64 PUSH1 0x40 MLOAD PUSH3 0x461BCD PUSH1 0xE5 SHL DUP2 MSTORE PUSH1 0x20 PUSH1 0x4 DUP3 ADD MSTORE PUSH1 0x20 PUSH1 0x24 DUP3 ADD MSTORE PUSH32 0x5375646F6B754172656E613A207265736F6C7665427920746F6F206561726C79 PUSH1 0x44 DUP3 ADD MSTORE REVERT JUMPDEST PUSH1 0x40 MLOAD PUSH3 0x461BCD PUSH1 0xE5 SHL DUP2 MSTORE PUSH1 0x20 PUSH1 0x4 DUP3 ADD MSTORE PUSH1 0x1D PUSH1 0x24 DUP3 ADD MSTORE PUSH32 0x5375646F6B754172656E613A20616363657074427920696E2070617374000000 PUSH1 0x44 DUP3 ADD MSTORE PUSH1 0x64 SWAP1 REVERT JUMPDEST PUSH1 0x40 MLOAD PUSH3 0x461BCD PUSH1 0xE5 SHL DUP2 MSTORE PUSH1 0x20 PUSH1 0x4 DUP3 ADD MSTORE PUSH1 0x1D PUSH1 0x24 DUP3 ADD MSTORE PUSH32 0x5375646F6B754172656E613A206F70706F6E656E74206973207A65726F000000 PUSH1 0x44 DUP3 ADD MSTORE PUSH1 0x64 SWAP1 REVERT JUMPDEST CALLVALUE PUSH2 0xEA JUMPI PUSH1 0x80 CALLDATASIZE PUSH1 0x3 NOT ADD SLT PUSH2 0xEA JUMPI PUSH2 0x871 PUSH2 0x857 PUSH2 0xF7E JUMP JUMPDEST PUSH2 0x85F PUSH2 0xF5E JUMP JUMPDEST PUSH2 0x867 PUSH2 0xF6E JUMP JUMPDEST SWAP2 CALLER PUSH1 0x4 CALLDATALOAD PUSH2 0x1186 JUMP JUMPDEST STOP JUMPDEST CALLVALUE PUSH2 0xEA JUMPI PUSH1 0xA0 CALLDATASIZE PUSH1 0x3 NOT ADD SLT PUSH2 0xEA JUMPI PUSH2 0x88C PUSH2 0xF48 JUMP JUMPDEST PUSH2 0x894 PUSH2 0xF5E JUMP JUMPDEST PUSH2 0x89C PUSH2 0xF6E JUMP JUMPDEST PUSH1 0x84 CALLDATALOAD SWAP2 PUSH1 0xFF DUP4 AND DUP4 SUB PUSH2 0xEA JUMPI PUSH1 0x1 SLOAD PUSH1 0x1 PUSH1 0x1 PUSH1 0xA0 SHL SUB SWAP1 DUP2 AND CALLER SUB PUSH2 0x916 JUMPI DUP5 AND ISZERO PUSH2 0x8D1 JUMPI PUSH2 0x871 SWAP4 PUSH1 0x4 CALLDATALOAD PUSH2 0x1186 JUMP JUMPDEST PUSH1 0x40 MLOAD PUSH3 0x461BCD PUSH1 0xE5 SHL DUP2 MSTORE PUSH1 0x20 PUSH1 0x4 DUP3 ADD MSTORE PUSH1 0x1B PUSH1 0x24 DUP3 ADD MSTORE PUSH32 0x5375646F6B754172656E613A20706C61796572206973207A65726F0000000000 PUSH1 0x44 DUP3 ADD MSTORE PUSH1 0x64 SWAP1 REVERT JUMPDEST PUSH1 0x40 MLOAD PUSH3 0x461BCD PUSH1 0xE5 SHL DUP2 MSTORE PUSH1 0x20 PUSH1 0x4 DUP3 ADD MSTORE PUSH1 0x18 PUSH1 0x24 DUP3 ADD MSTORE PUSH32 0x5375646F6B754172656E613A206E6F742072656C617965720000000000000000 PUSH1 0x44 DUP3 ADD MSTORE PUSH1 0x64 SWAP1 REVERT JUMPDEST CALLVALUE PUSH2 0xEA JUMPI PUSH1 0x20 CALLDATASIZE PUSH1 0x3 NOT ADD SLT PUSH2 0xEA JUMPI PUSH1 0x4 CALLDATALOAD PUSH4 0xFFFFFFFF DUP2 AND DUP2 SUB PUSH2 0xEA JUMPI PUSH1 0x2 SLOAD PUSH1 0x0 NOT DUP1 DUP3 EQ PUSH2 0x712 JUMPI PUSH1 0x1 DUP3 ADD PUSH1 0x2 SSTORE NUMBER ADD NUMBER DUP2 GT PUSH2 0x712 JUMPI PUSH1 0x40 MLOAD PUSH1 0x20 DUP2 ADD SWAP2 BLOCKHASH DUP3 MSTORE PUSH1 0x1 DUP4 ADD PUSH1 0x40 DUP3 ADD MSTORE PUSH1 0x1 PUSH1 0x1 PUSH1 0x60 SHL SUB NOT CALLER PUSH1 0x60 SHL AND PUSH1 0x60 DUP3 ADD MSTORE PUSH1 0x54 DUP2 MSTORE PUSH2 0x9CD DUP2 PUSH2 0x1047 JUMP JUMPDEST MLOAD SWAP1 KECCAK256 PUSH1 0x3 SLOAD SWAP3 DUP4 ISZERO PUSH2 0x6FC JUMPI PUSH2 0x9EB PUSH2 0x4BD PUSH1 0xFF DUP7 DUP6 MOD AND PUSH2 0xF8E JUMP JUMPDEST PUSH1 0x20 DUP2 MLOAD SWAP2 ADD KECCAK256 PUSH1 0x40 MLOAD SWAP3 PUSH2 0x9FF DUP5 PUSH2 0x1015 JUMP JUMPDEST CALLER DUP5 MSTORE PUSH1 0x0 PUSH1 0x20 DUP6 ADD MSTORE PUSH1 0x40 DUP5 ADD SWAP6 PUSH1 0x0 DUP8 MSTORE PUSH1 0x1 PUSH1 0x60 DUP7 ADD MSTORE PUSH1 0x1 PUSH1 0x1 PUSH1 0x40 SHL SUB TIMESTAMP AND PUSH1 0x80 DUP7 ADD MSTORE PUSH1 0x0 PUSH1 0xA0 DUP7 ADD MSTORE PUSH1 0x0 PUSH1 0xC0 DUP7 ADD MSTORE PUSH4 0xFFFFFFFF DUP5 AND PUSH1 0xE0 DUP7 ADD MSTORE PUSH1 0x0 PUSH2 0x100 DUP7 ADD MSTORE PUSH1 0x0 PUSH2 0x120 DUP7 ADD MSTORE PUSH1 0x0 PUSH2 0x140 DUP7 ADD MSTORE PUSH1 0xFF DUP2 DUP4 MOD AND PUSH2 0x160 DUP7 ADD MSTORE DUP3 PUSH2 0x180 DUP7 ADD MSTORE PUSH1 0x1 DUP7 ADD PUSH1 0x0 MSTORE PUSH1 0x4 PUSH1 0x20 MSTORE PUSH1 0x40 PUSH1 0x0 KECCAK256 SWAP7 PUSH1 0x1 DUP1 PUSH1 0xA0 SHL SUB DUP1 DUP8 MLOAD AND PUSH1 0x1 PUSH1 0x1 PUSH1 0x60 SHL SUB PUSH1 0xA0 SHL DUP11 SLOAD AND OR DUP10 SSTORE PUSH1 0x20 DUP8 ADD MLOAD AND PUSH1 0x1 DUP10 ADD SLOAD SWAP2 PUSH1 0xFF PUSH1 0xA0 SHL SWAP1 MLOAD ISZERO ISZERO PUSH1 0xA0 SHL AND SWAP2 PUSH11 0xFFFFFFFFFFFFFFFFFFFFFF PUSH1 0xA8 SHL AND OR OR PUSH1 0x1 DUP9 ADD SSTORE PUSH1 0x60 DUP6 ADD MLOAD SWAP2 PUSH1 0x8 DUP4 LT ISZERO PUSH2 0x320 JUMPI DUP8 PUSH1 0x7 PUSH2 0x180 PUSH1 0x0 SWAP9 PUSH2 0xAF5 PUSH1 0xFF SWAP8 PUSH1 0x1 PUSH1 0x20 SWAP15 ADD PUSH2 0x1162 JUMP JUMPDEST PUSH1 0x80 DUP2 ADD MLOAD PUSH1 0x1 DUP6 ADD SLOAD SWAP1 PUSH1 0x1 PUSH1 0x1 PUSH1 0x40 SHL SUB PUSH1 0xB0 SHL SWAP1 PUSH1 0xB0 SHL AND SWAP1 PUSH1 0x1 PUSH1 0x1 PUSH1 0x40 SHL SUB PUSH1 0xB0 SHL NOT AND OR PUSH1 0x1 DUP6 ADD SSTORE PUSH1 0x2 DUP5 ADD PUSH1 0x1 PUSH1 0x1 PUSH1 0x40 SHL SUB PUSH1 0xA0 DUP4 ADD MLOAD AND DUP2 SLOAD SWAP1 PUSH8 0xFFFFFFFFFFFFFFFF PUSH1 0x40 SHL PUSH1 0xC0 DUP6 ADD MLOAD PUSH1 0x40 SHL AND SWAP1 PUSH4 0xFFFFFFFF PUSH1 0x80 SHL PUSH1 0xE0 DUP7 ADD MLOAD PUSH1 0x80 SHL AND SWAP3 PUSH1 0x1 PUSH1 0x1 PUSH1 0x60 SHL SUB PUSH1 0xA0 SHL AND OR OR OR SWAP1 SSTORE PUSH2 0x100 DUP2 ADD MLOAD PUSH1 0x3 DUP6 ADD SSTORE PUSH2 0x120 DUP2 ADD MLOAD PUSH1 0x4 DUP6 ADD SSTORE PUSH2 0x140 DUP2 ADD MLOAD PUSH1 0x5 DUP6 ADD SSTORE PUSH1 0x6 DUP5 ADD DUP8 PUSH2 0x160 DUP4 ADD MLOAD AND DUP9 NOT DUP3 SLOAD AND OR SWAP1 SSTORE ADD MLOAD SWAP2 ADD SSTORE PUSH4 0xFFFFFFFF PUSH1 0x40 MLOAD SWAP6 DUP8 DUP8 MSTORE AND DUP9 DUP7 ADD MSTORE DUP6 PUSH1 0x40 DUP7 ADD MSTORE DUP6 PUSH1 0x60 DUP7 ADD MSTORE MOD AND PUSH1 0x80 DUP4 ADD MSTORE PUSH1 0xA0 DUP3 ADD MSTORE CALLER SWAP1 PUSH32 0xBE8AAE938D8F8784025F4A2713894112D436DDC89DB4EC90513469021655D332 PUSH1 0xC0 PUSH1 0x1 DUP7 ADD SWAP3 LOG4 PUSH1 0x1 PUSH1 0x40 MLOAD SWAP2 ADD DUP2 MSTORE RETURN JUMPDEST CALLVALUE PUSH2 0xEA JUMPI PUSH1 0x0 CALLDATASIZE PUSH1 0x3 NOT ADD SLT PUSH2 0xEA JUMPI PUSH1 0x1 SLOAD PUSH1 0x40 MLOAD PUSH1 0x1 PUSH1 0x1 PUSH1 0xA0 SHL SUB SWAP1 SWAP2 AND DUP2 MSTORE PUSH1 0x20 SWAP1 RETURN JUMPDEST CALLVALUE PUSH2 0xEA JUMPI PUSH1 0x0 CALLDATASIZE PUSH1 0x3 NOT ADD SLT PUSH2 0xEA JUMPI PUSH1 0x20 PUSH1 0x3 SLOAD PUSH1 0x40 MLOAD SWAP1 DUP2 MSTORE RETURN JUMPDEST CALLVALUE PUSH2 0xEA JUMPI PUSH1 0x20 DUP1 PUSH1 0x3 NOT CALLDATASIZE ADD SLT PUSH2 0xEA JUMPI PUSH1 0x4 CALLDATALOAD PUSH1 0xFF DUP2 AND DUP1 DUP3 SUB PUSH2 0xEA JUMPI PUSH1 0x3 SLOAD GT ISZERO PUSH2 0xCD7 JUMPI PUSH2 0x4BD PUSH2 0xC87 SWAP2 PUSH2 0xF8E JUMP JUMPDEST PUSH1 0x40 MLOAD DUP3 DUP2 SWAP4 DUP3 MSTORE DUP3 MLOAD SWAP1 DUP2 DUP2 DUP5 ADD MSTORE PUSH1 0x0 SWAP4 JUMPDEST DUP3 DUP6 LT PUSH2 0xCBE JUMPI POP POP PUSH1 0x40 SWAP3 POP PUSH1 0x0 DUP4 DUP3 DUP5 ADD ADD MSTORE PUSH1 0x1F DUP1 NOT SWAP2 ADD AND DUP2 ADD SUB ADD SWAP1 RETURN JUMPDEST DUP5 DUP2 ADD DUP3 ADD MLOAD DUP7 DUP7 ADD PUSH1 0x40 ADD MSTORE SWAP4 DUP2 ADD SWAP4 DUP6 SWAP4 POP PUSH2 0xC9B JUMP JUMPDEST PUSH1 0x64 DUP3 PUSH1 0x40 MLOAD SWAP1 PUSH3 0x461BCD PUSH1 0xE5 SHL DUP3 MSTORE DUP1 PUSH1 0x4 DUP4 ADD MSTORE PUSH1 0x24 DUP3 ADD MSTORE PUSH32 0x5375646F6B754172656E613A2070757A7A6C65206F7574206F662072616E6765 PUSH1 0x44 DUP3 ADD MSTORE REVERT JUMPDEST CALLVALUE PUSH2 0xEA JUMPI PUSH1 0x20 CALLDATASIZE PUSH1 0x3 NOT ADD SLT PUSH2 0xEA JUMPI PUSH1 0x4 CALLDATALOAD PUSH1 0x1 PUSH1 0x1 PUSH1 0xA0 SHL SUB DUP2 DUP2 AND SWAP2 DUP3 SWAP1 SUB PUSH2 0xEA JUMPI PUSH1 0x0 SLOAD AND CALLER SUB PUSH2 0xDAE JUMPI DUP1 ISZERO PUSH2 0xD69 JUMPI PUSH1 0x1 PUSH1 0x1 PUSH1 0x60 SHL SUB PUSH1 0xA0 SHL PUSH1 0x1 SLOAD AND OR PUSH1 0x1 SSTORE PUSH1 0x0 DUP1 RETURN JUMPDEST PUSH1 0x40 MLOAD PUSH3 0x461BCD PUSH1 0xE5 SHL DUP2 MSTORE PUSH1 0x20 PUSH1 0x4 DUP3 ADD MSTORE PUSH1 0x1C PUSH1 0x24 DUP3 ADD MSTORE PUSH32 0x5375646F6B754172656E613A2072656C61796572206973207A65726F00000000 PUSH1 0x44 DUP3 ADD MSTORE PUSH1 0x64 SWAP1 REVERT JUMPDEST PUSH1 0x40 MLOAD PUSH3 0x461BCD PUSH1 0xE5 SHL DUP2 MSTORE PUSH1 0x20 PUSH1 0x4 DUP3 ADD MSTORE PUSH1 0x16 PUSH1 0x24 DUP3 ADD MSTORE PUSH22 0x29BAB237B5BAA0B932B7309D103737BA1030B236B4B7 PUSH1 0x51 SHL PUSH1 0x44 DUP3 ADD MSTORE PUSH1 0x64 SWAP1 REVERT JUMPDEST CALLVALUE PUSH2 0xEA JUMPI PUSH1 0x20 CALLDATASIZE PUSH1 0x3 NOT ADD SLT PUSH2 0xEA JUMPI PUSH1 0x4 CALLDATALOAD PUSH1 0x0 MSTORE PUSH1 0x4 PUSH1 0x20 MSTORE PUSH1 0x40 PUSH1 0x0 KECCAK256 PUSH1 0x1 DUP1 PUSH1 0xA0 SHL SUB DUP1 DUP3 SLOAD AND SWAP1 PUSH1 0x1 DUP4 ADD SLOAD SWAP3 PUSH1 0xFF DUP5 PUSH1 0xA8 SHR AND PUSH1 0x2 DUP3 ADD SLOAD SWAP1 PUSH1 0x3 DUP4 ADD SLOAD PUSH1 0x4 DUP5 ADD SLOAD SWAP2 PUSH1 0x5 DUP6 ADD SLOAD SWAP4 PUSH1 0x7 PUSH1 0xFF PUSH1 0x6 DUP9 ADD SLOAD AND SWAP7 ADD SLOAD SWAP7 PUSH1 0x40 MLOAD SWAP9 DUP10 MSTORE DUP10 AND PUSH1 0x20 DUP10 ADD MSTORE PUSH1 0xFF DUP10 PUSH1 0xA0 SHR AND ISZERO ISZERO PUSH1 0x40 DUP10 ADD MSTORE PUSH1 0x8 DUP3 LT ISZERO PUSH2 0x320 JUMPI PUSH2 0x1A0 SWAP9 PUSH4 0xFFFFFFFF SWAP3 PUSH1 0x60 DUP11 ADD MSTORE PUSH1 0x1 PUSH1 0x1 PUSH1 0x40 SHL SUB DUP1 SWAP2 PUSH1 0xB0 SHR AND PUSH1 0x80 DUP11 ADD MSTORE DUP1 DUP3 AND PUSH1 0xA0 DUP11 ADD MSTORE DUP2 PUSH1 0x40 SHR AND PUSH1 0xC0 DUP10 ADD MSTORE PUSH1 0x80 SHR AND PUSH1 0xE0 DUP8 ADD MSTORE PUSH2 0x100 DUP7 ADD MSTORE PUSH2 0x120 DUP6 ADD MSTORE PUSH2 0x140 DUP5 ADD MSTORE PUSH2 0x160 DUP4 ADD MSTORE PUSH2 0x180 DUP3 ADD MSTORE RETURN JUMPDEST CALLVALUE PUSH2 0xEA JUMPI PUSH1 0x80 CALLDATASIZE PUSH1 0x3 NOT ADD SLT PUSH2 0xEA JUMPI PUSH2 0xEE5 PUSH2 0xF48 JUMP JUMPDEST PUSH1 0xFF PUSH2 0xF2E PUSH2 0xEF2 PUSH2 0xF5E JUMP JUMPDEST SWAP3 PUSH2 0xEFB PUSH2 0xF6E JUMP JUMPDEST SWAP1 PUSH1 0x4 CALLDATALOAD PUSH1 0x0 MSTORE PUSH1 0x5 PUSH1 0x20 MSTORE PUSH1 0x40 PUSH1 0x0 KECCAK256 SWAP1 PUSH1 0x1 DUP1 PUSH1 0xA0 SHL SUB AND PUSH1 0x0 MSTORE PUSH1 0x20 MSTORE PUSH2 0xF29 PUSH1 0x40 PUSH1 0x0 KECCAK256 SWAP5 PUSH2 0x1C32 JUMP JUMPDEST PUSH2 0x1C1E JUMP JUMPDEST AND PUSH1 0x0 MSTORE PUSH1 0x20 MSTORE PUSH1 0x20 PUSH1 0xFF PUSH1 0x40 PUSH1 0x0 KECCAK256 SLOAD AND PUSH1 0x40 MLOAD SWAP1 DUP2 MSTORE RETURN JUMPDEST PUSH1 0x24 CALLDATALOAD SWAP1 PUSH1 0x1 PUSH1 0x1 PUSH1 0xA0 SHL SUB DUP3 AND DUP3 SUB PUSH2 0xEA JUMPI JUMP JUMPDEST PUSH1 0x44 CALLDATALOAD SWAP1 PUSH1 0xFF DUP3 AND DUP3 SUB PUSH2 0xEA JUMPI JUMP JUMPDEST PUSH1 0x64 CALLDATALOAD SWAP1 PUSH1 0xFF DUP3 AND DUP3 SUB PUSH2 0xEA JUMPI JUMP JUMPDEST PUSH1 0x24 CALLDATALOAD SWAP1 PUSH1 0xFF DUP3 AND DUP3 SUB PUSH2 0xEA JUMPI JUMP JUMPDEST PUSH1 0x3 SLOAD DUP2 LT ISZERO PUSH2 0xFC5 JUMPI PUSH1 0x3 PUSH1 0x0 MSTORE PUSH32 0xC2575A0E9E593C00F959F8C92F12DB2869C3395A3B0502D05E2516446F71F85B ADD SWAP1 PUSH1 0x0 SWAP1 JUMP JUMPDEST PUSH4 0x4E487B71 PUSH1 0xE0 SHL PUSH1 0x0 MSTORE PUSH1 0x32 PUSH1 0x4 MSTORE PUSH1 0x24 PUSH1 0x0 REVERT JUMPDEST SWAP1 PUSH1 0x1 DUP3 DUP2 SHR SWAP3 AND DUP1 ISZERO PUSH2 0x100B JUMPI JUMPDEST PUSH1 0x20 DUP4 LT EQ PUSH2 0xFF5 JUMPI JUMP JUMPDEST PUSH4 0x4E487B71 PUSH1 0xE0 SHL PUSH1 0x0 MSTORE PUSH1 0x22 PUSH1 0x4 MSTORE PUSH1 0x24 PUSH1 0x0 REVERT JUMPDEST SWAP2 PUSH1 0x7F AND SWAP2 PUSH2 0xFEA JUMP JUMPDEST PUSH2 0x1A0 DUP2 ADD SWAP1 DUP2 LT PUSH1 0x1 PUSH1 0x1 PUSH1 0x40 SHL SUB DUP3 GT OR PUSH2 0x1031 JUMPI PUSH1 0x40 MSTORE JUMP JUMPDEST PUSH4 0x4E487B71 PUSH1 0xE0 SHL PUSH1 0x0 MSTORE PUSH1 0x41 PUSH1 0x4 MSTORE PUSH1 0x24 PUSH1 0x0 REVERT JUMPDEST PUSH1 0x80 DUP2 ADD SWAP1 DUP2 LT PUSH1 0x1 PUSH1 0x1 PUSH1 0x40 SHL SUB DUP3 GT OR PUSH2 0x1031 JUMPI PUSH1 0x40 MSTORE JUMP JUMPDEST SWAP1 PUSH1 0x40 MLOAD SWAP2 PUSH1 0x0 SWAP1 DUP1 SLOAD SWAP1 PUSH2 0x1076 DUP3 PUSH2 0xFDB JUMP JUMPDEST SWAP1 DUP2 DUP7 MSTORE PUSH1 0x1 SWAP3 DUP4 DUP2 AND SWAP1 DUP2 PUSH1 0x0 EQ PUSH2 0x10F5 JUMPI POP PUSH1 0x1 EQ PUSH2 0x10B8 JUMPI JUMPDEST POP POP POP DUP3 SWAP1 SUB PUSH1 0x1F ADD PUSH1 0x1F NOT AND DUP3 ADD PUSH1 0x1 PUSH1 0x1 PUSH1 0x40 SHL SUB DUP2 GT DUP4 DUP3 LT OR PUSH2 0x1031 JUMPI PUSH1 0x40 MSTORE JUMP JUMPDEST SWAP1 SWAP3 POP PUSH1 0x0 MSTORE PUSH1 0x20 SWAP2 DUP3 PUSH1 0x0 KECCAK256 SWAP2 DUP4 PUSH1 0x0 SWAP4 JUMPDEST DUP4 DUP6 LT PUSH2 0x10E1 JUMPI POP POP POP POP DUP4 ADD ADD CODESIZE DUP1 DUP1 PUSH2 0x1092 JUMP JUMPDEST DUP1 SLOAD DUP9 DUP7 ADD DUP4 ADD MSTORE SWAP4 ADD SWAP3 DUP5 SWAP1 DUP3 ADD PUSH2 0x10CB JUMP JUMPDEST SWAP3 SWAP4 POP POP POP PUSH1 0x20 SWAP3 POP PUSH1 0xFF NOT AND DUP3 DUP6 ADD MSTORE ISZERO ISZERO PUSH1 0x5 SHL DUP4 ADD ADD CODESIZE DUP1 DUP1 PUSH2 0x1092 JUMP JUMPDEST ISZERO PUSH2 0x111D JUMPI JUMP JUMPDEST PUSH1 0x40 MLOAD PUSH3 0x461BCD PUSH1 0xE5 SHL DUP2 MSTORE PUSH1 0x20 PUSH1 0x4 DUP3 ADD MSTORE PUSH1 0x1A PUSH1 0x24 DUP3 ADD MSTORE PUSH32 0x5375646F6B754172656E613A206D61746368206D697373696E67000000000000 PUSH1 0x44 DUP3 ADD MSTORE PUSH1 0x64 SWAP1 REVERT JUMPDEST SWAP1 PUSH1 0x8 DUP2 LT ISZERO PUSH2 0x320 JUMPI DUP2 SLOAD PUSH1 0xFF PUSH1 0xA8 SHL NOT AND PUSH1 0xA8 SWAP2 SWAP1 SWAP2 SHL PUSH1 0xFF PUSH1 0xA8 SHL AND OR SWAP1 SSTORE JUMP JUMPDEST SWAP2 SWAP4 DUP3 PUSH1 0x0 MSTORE PUSH1 0x4 SWAP5 DUP6 PUSH1 0x20 MSTORE PUSH1 0x40 PUSH1 0x0 KECCAK256 SWAP5 PUSH1 0x1 DUP7 ADD SLOAD PUSH1 0x8 PUSH1 0xFF DUP3 PUSH1 0xA8 SHR AND LT ISZERO PUSH2 0x1779 JUMPI PUSH2 0x11BE PUSH1 0xFF DUP3 PUSH1 0xA8 SHR AND ISZERO ISZERO PUSH2 0x1116 JUMP JUMPDEST PUSH1 0x9 PUSH1 0xFF DUP5 AND LT DUP1 PUSH2 0x197B JUMPI JUMPDEST ISZERO PUSH2 0x1937 JUMPI PUSH1 0x9 PUSH1 0xFF DUP6 AND GT PUSH2 0x18F3 JUMPI PUSH2 0x11E5 DUP6 DUP9 PUSH2 0x1BAB JUMP JUMPDEST ISZERO PUSH2 0x18AF JUMPI PUSH1 0x0 PUSH1 0x5 PUSH1 0xFF DUP4 PUSH1 0xA8 SHR AND EQ PUSH2 0x1872 JUMPI PUSH1 0xFF DUP3 PUSH1 0xA0 SHR AND PUSH1 0x0 EQ PUSH2 0x1803 JUMPI DUP1 PUSH2 0x17EE JUMPI PUSH1 0x2 PUSH1 0xFF DUP4 PUSH1 0xA8 SHR AND EQ DUP1 ISZERO PUSH2 0x17DB JUMPI JUMPDEST ISZERO PUSH2 0x1797 JUMPI JUMPDEST PUSH1 0x3 DUP9 ADD DUP1 SLOAD ISZERO PUSH2 0x178E JUMPI JUMPDEST POP PUSH2 0x1779 JUMPI PUSH1 0x3 PUSH1 0xFF DUP3 PUSH1 0xA8 SHR AND SUB PUSH2 0x1744 JUMPI JUMPDEST POP PUSH1 0xFF PUSH1 0x6 DUP8 ADD SLOAD AND PUSH1 0xFF PUSH2 0x125D DUP4 DUP6 PUSH2 0x39D DUP6 PUSH2 0xF8E JUMP JUMPDEST AND PUSH2 0x1700 JUMPI PUSH1 0xFF DUP5 AND PUSH2 0x13A4 JUMPI JUMPDEST POP PUSH1 0xFF SWAP1 DUP6 PUSH1 0x0 MSTORE PUSH1 0x5 PUSH1 0x20 MSTORE PUSH1 0x40 PUSH1 0x0 KECCAK256 PUSH1 0x1 DUP1 PUSH1 0xA0 SHL SUB DUP7 AND PUSH1 0x0 MSTORE PUSH1 0x20 MSTORE PUSH1 0x40 PUSH1 0x0 KECCAK256 DUP3 PUSH2 0x129F DUP4 PUSH2 0xF29 DUP8 PUSH2 0x1C32 JUMP JUMPDEST AND PUSH1 0x0 MSTORE PUSH1 0x20 MSTORE PUSH1 0x40 PUSH1 0x0 KECCAK256 DUP3 DUP6 AND DUP4 NOT DUP3 SLOAD AND OR SWAP1 SSTORE DUP2 PUSH1 0x40 MLOAD SWAP4 AND DUP4 MSTORE AND PUSH1 0x20 DUP3 ADD MSTORE PUSH1 0xFF DUP3 AND PUSH1 0x40 DUP3 ADD MSTORE DUP4 PUSH32 0x2FEB471EA64204F73252192718F528B03FC60CF34D6C597D024CC6F8CEAB524C PUSH1 0x60 PUSH1 0x1 DUP1 PUSH1 0xA0 SHL SUB DUP7 AND SWAP4 LOG3 PUSH1 0xFF AND DUP1 ISZERO ISZERO SWAP1 PUSH2 0x138C JUMPI JUMPDEST PUSH2 0x1313 JUMPI JUMPDEST POP POP POP POP JUMP JUMPDEST DUP3 SLOAD PUSH2 0x1356 SWAP5 SWAP1 PUSH1 0x1 PUSH1 0x1 PUSH1 0xA0 SHL SUB DUP4 DUP2 AND SWAP2 AND EQ DUP1 PUSH2 0x1381 JUMPI JUMPDEST PUSH2 0x1376 JUMPI JUMPDEST POP PUSH1 0x1 DUP4 ADD SLOAD PUSH1 0x1 PUSH1 0x1 PUSH1 0xA0 SHL SUB SWAP2 DUP3 AND SWAP2 AND EQ DUP1 PUSH2 0x136A JUMPI JUMPDEST PUSH2 0x135F JUMPI PUSH2 0x1988 JUMP JUMPDEST CODESIZE DUP1 DUP1 DUP1 PUSH2 0x130D JUMP JUMPDEST NUMBER PUSH1 0x5 DUP4 ADD SSTORE PUSH2 0x1988 JUMP JUMPDEST POP PUSH1 0x5 DUP3 ADD SLOAD ISZERO PUSH2 0x134D JUMP JUMPDEST NUMBER SWAP1 DUP5 ADD SSTORE CODESIZE PUSH2 0x1333 JUMP JUMPDEST POP DUP1 DUP5 ADD SLOAD ISZERO PUSH2 0x132E JUMP JUMPDEST POP PUSH2 0x139F DUP2 PUSH1 0xFF PUSH1 0x6 DUP7 ADD SLOAD AND DUP5 PUSH2 0x1C5C JUMP JUMPDEST PUSH2 0x1308 JUMP JUMPDEST SWAP2 SWAP4 SWAP3 SWAP6 SWAP8 SWAP1 PUSH1 0x0 JUMPDEST PUSH1 0xFF DUP2 AND PUSH1 0x9 DUP2 LT ISZERO PUSH2 0x148F JUMPI PUSH1 0xFF DUP4 AND EQ PUSH2 0x1486 JUMPI PUSH2 0x13D1 DUP2 DUP8 PUSH2 0x39D DUP8 PUSH2 0xF8E JUMP JUMPDEST DUP8 PUSH1 0x0 MSTORE PUSH1 0x5 PUSH1 0x20 MSTORE PUSH1 0x40 PUSH1 0x0 KECCAK256 PUSH1 0x1 DUP1 PUSH1 0xA0 SHL SUB DUP8 AND PUSH1 0x0 MSTORE PUSH1 0x20 MSTORE PUSH1 0x40 PUSH1 0x0 KECCAK256 PUSH1 0xFF PUSH2 0x1402 DUP5 PUSH2 0xF29 DUP12 PUSH2 0x1C32 JUMP JUMPDEST AND PUSH1 0x0 MSTORE PUSH1 0x20 MSTORE PUSH1 0xFF PUSH1 0x40 PUSH1 0x0 KECCAK256 SLOAD AND PUSH1 0xFF DUP3 AND ISZERO ISZERO PUSH1 0x0 EQ PUSH2 0x147F JUMPI POP JUMPDEST PUSH1 0xFF DUP1 DUP11 AND SWAP2 AND EQ PUSH2 0x143B JUMPI PUSH2 0x1436 SWAP1 PUSH2 0x1BFA JUMP JUMPDEST PUSH2 0x13AD JUMP JUMPDEST PUSH1 0x40 MLOAD PUSH3 0x461BCD PUSH1 0xE5 SHL DUP2 MSTORE PUSH1 0x20 DUP2 DUP12 ADD MSTORE PUSH1 0x19 PUSH1 0x24 DUP3 ADD MSTORE PUSH32 0x5375646F6B754172656E613A20726F7720636F6E666C69637400000000000000 PUSH1 0x44 DUP3 ADD MSTORE PUSH1 0x64 SWAP1 REVERT JUMPDEST SWAP1 POP PUSH2 0x1421 JUMP JUMPDEST PUSH2 0x1436 SWAP1 PUSH2 0x1BFA JUMP JUMPDEST POP POP SWAP4 PUSH1 0x0 JUMPDEST PUSH1 0xFF DUP2 AND PUSH1 0x9 DUP2 LT ISZERO PUSH2 0x1577 JUMPI PUSH1 0xFF DUP4 AND EQ PUSH2 0x156E JUMPI PUSH2 0x14B9 DUP7 DUP3 PUSH2 0x39D DUP8 PUSH2 0xF8E JUMP JUMPDEST DUP8 PUSH1 0x0 MSTORE PUSH1 0x5 PUSH1 0x20 MSTORE PUSH1 0x40 PUSH1 0x0 KECCAK256 PUSH1 0x1 DUP1 PUSH1 0xA0 SHL SUB DUP8 AND PUSH1 0x0 MSTORE PUSH1 0x20 MSTORE PUSH1 0x40 PUSH1 0x0 KECCAK256 PUSH1 0xFF PUSH2 0x14EA DUP10 PUSH2 0xF29 DUP7 PUSH2 0x1C32 JUMP JUMPDEST AND PUSH1 0x0 MSTORE PUSH1 0x20 MSTORE PUSH1 0xFF PUSH1 0x40 PUSH1 0x0 KECCAK256 SLOAD AND PUSH1 0xFF DUP3 AND ISZERO ISZERO PUSH1 0x0 EQ PUSH2 0x1567 JUMPI POP JUMPDEST PUSH1 0xFF DUP1 DUP11 AND SWAP2 AND EQ PUSH2 0x1523 JUMPI PUSH2 0x151E SWAP1 PUSH2 0x1BFA JUMP JUMPDEST PUSH2 0x1495 JUMP JUMPDEST PUSH1 0x40 MLOAD PUSH3 0x461BCD PUSH1 0xE5 SHL DUP2 MSTORE PUSH1 0x20 DUP2 DUP12 ADD MSTORE PUSH1 0x1C PUSH1 0x24 DUP3 ADD MSTORE PUSH32 0x5375646F6B754172656E613A20636F6C756D6E20636F6E666C69637400000000 PUSH1 0x44 DUP3 ADD MSTORE PUSH1 0x64 SWAP1 REVERT JUMPDEST SWAP1 POP PUSH2 0x1509 JUMP JUMPDEST PUSH2 0x151E SWAP1 PUSH2 0x1BFA JUMP JUMPDEST POP POP SWAP1 SWAP8 SWAP4 PUSH2 0x158B PUSH1 0x3 PUSH1 0xFF DUP5 AND DIV PUSH2 0x1C47 JUMP JUMPDEST PUSH2 0x159A PUSH1 0x3 PUSH1 0xFF DUP5 AND DIV PUSH2 0x1C47 JUMP JUMPDEST SWAP10 DUP2 SWAP7 JUMPDEST PUSH1 0xFF PUSH2 0x15A9 DUP5 PUSH2 0x1C0C JUMP JUMPDEST AND PUSH1 0xFF DUP10 AND LT ISZERO PUSH2 0x16EE JUMPI DUP12 PUSH1 0xFF PUSH2 0x15C0 DUP3 PUSH2 0x1C0C JUMP JUMPDEST AND PUSH1 0xFF DUP3 AND LT ISZERO PUSH2 0x16D1 JUMPI DUP13 PUSH1 0xFF DUP11 DUP2 AND SWAP1 DUP9 AND EQ DUP1 PUSH2 0x16C2 JUMPI JUMPDEST PUSH2 0x16B0 JUMPI POP PUSH2 0x15EE DUP2 DUP11 PUSH2 0x39D DUP11 PUSH2 0xF8E JUMP JUMPDEST PUSH1 0x0 DUP12 DUP2 MSTORE PUSH1 0x5 PUSH1 0x20 SWAP1 DUP2 MSTORE PUSH1 0x40 DUP1 DUP4 KECCAK256 PUSH1 0x1 PUSH1 0x1 PUSH1 0xA0 SHL SUB DUP14 AND DUP5 MSTORE SWAP1 SWAP2 MSTORE SWAP1 KECCAK256 PUSH1 0xFF PUSH2 0x161F DUP5 PUSH2 0xF29 DUP15 PUSH2 0x1C32 JUMP JUMPDEST AND PUSH1 0x0 MSTORE PUSH1 0x20 MSTORE PUSH1 0xFF PUSH1 0x40 PUSH1 0x0 KECCAK256 SLOAD AND PUSH1 0xFF DUP3 AND ISZERO ISZERO PUSH1 0x0 EQ PUSH2 0x16A9 JUMPI POP JUMPDEST PUSH1 0xFF DUP1 DUP14 AND SWAP2 AND EQ PUSH2 0x1665 JUMPI SWAP1 PUSH1 0xFF PUSH2 0x15C0 PUSH2 0x165C DUP16 SWAP7 SWAP6 SWAP5 PUSH2 0x1BFA JUMP JUMPDEST SWAP3 SWAP4 SWAP5 SWAP6 PUSH2 0x1C0C JUMP JUMPDEST PUSH1 0x40 MLOAD PUSH3 0x461BCD PUSH1 0xE5 SHL DUP2 MSTORE PUSH1 0x20 DUP2 DUP15 ADD MSTORE PUSH1 0x19 PUSH1 0x24 DUP3 ADD MSTORE PUSH32 0x5375646F6B754172656E613A20626F7820636F6E666C69637400000000000000 PUSH1 0x44 DUP3 ADD MSTORE PUSH1 0x64 SWAP1 REVERT JUMPDEST SWAP1 POP PUSH2 0x163E JUMP JUMPDEST SWAP4 SWAP3 SWAP2 SWAP1 PUSH2 0x15C0 PUSH2 0x165C PUSH1 0xFF SWAP3 PUSH2 0x1BFA JUMP JUMPDEST POP PUSH1 0xFF DUP7 AND PUSH1 0xFF DUP4 AND EQ PUSH2 0x15DB JUMP JUMPDEST POP SWAP1 SWAP2 SWAP7 PUSH2 0x15A9 PUSH2 0x16E3 PUSH1 0xFF SWAP3 PUSH2 0x1BFA JUMP JUMPDEST SWAP9 SWAP4 SWAP3 SWAP2 POP POP PUSH2 0x159E JUMP JUMPDEST SWAP9 SWAP6 SWAP7 POP SWAP10 POP POP PUSH1 0xFF SWAP2 SWAP3 POP SWAP1 PUSH2 0x126B JUMP JUMPDEST PUSH1 0x40 MLOAD PUSH3 0x461BCD PUSH1 0xE5 SHL DUP2 MSTORE PUSH1 0x20 DUP2 DUP11 ADD MSTORE PUSH1 0x17 PUSH1 0x24 DUP3 ADD MSTORE PUSH32 0x5375646F6B754172656E613A2066697865642063656C6C000000000000000000 PUSH1 0x44 DUP3 ADD MSTORE PUSH1 0x64 SWAP1 REVERT JUMPDEST PUSH1 0xFF PUSH1 0xA8 SHL NOT AND PUSH1 0x3 PUSH1 0xA8 SHL OR PUSH1 0x1 DUP8 ADD SSTORE PUSH1 0x40 MLOAD PUSH1 0x3 DUP2 MSTORE DUP6 SWAP1 PUSH1 0x0 DUP1 MLOAD PUSH1 0x20 PUSH2 0x1DA2 DUP4 CODECOPY DUP2 MLOAD SWAP2 MSTORE SWAP1 PUSH1 0x20 SWAP1 LOG2 CODESIZE PUSH2 0x1244 JUMP JUMPDEST PUSH1 0x21 DUP9 PUSH4 0x4E487B71 PUSH1 0xE0 SHL PUSH1 0x0 MSTORE MSTORE PUSH1 0x24 PUSH1 0x0 REVERT JUMPDEST NUMBER SWAP1 SSTORE CODESIZE PUSH2 0x1230 JUMP JUMPDEST PUSH1 0x40 MLOAD PUSH3 0x461BCD PUSH1 0xE5 SHL DUP2 MSTORE PUSH1 0x20 DUP2 DUP12 ADD MSTORE PUSH1 0x19 PUSH1 0x24 DUP3 ADD MSTORE PUSH32 0x5375646F6B754172656E613A206E6F7420616363657074656400000000000000 PUSH1 0x44 DUP3 ADD MSTORE PUSH1 0x64 SWAP1 REVERT JUMPDEST POP POP PUSH1 0x0 PUSH1 0x3 PUSH1 0xFF DUP4 PUSH1 0xA8 SHR AND EQ PUSH2 0x121E JUMP JUMPDEST PUSH1 0x21 DUP10 PUSH4 0x4E487B71 PUSH1 0xE0 SHL PUSH1 0x0 MSTORE MSTORE PUSH1 0x24 PUSH1 0x0 REVERT JUMPDEST POP PUSH1 0x0 PUSH1 0x1 PUSH1 0xFF DUP4 PUSH1 0xA8 SHR AND EQ DUP1 ISZERO PUSH2 0x185F JUMPI JUMPDEST PUSH2 0x1224 JUMPI PUSH1 0x40 MLOAD PUSH3 0x461BCD PUSH1 0xE5 SHL DUP2 MSTORE PUSH1 0x20 DUP2 DUP12 ADD MSTORE PUSH1 0x17 PUSH1 0x24 DUP3 ADD MSTORE PUSH32 0x5375646F6B754172656E613A206E6F7420616374697665000000000000000000 PUSH1 0x44 DUP3 ADD MSTORE PUSH1 0x64 SWAP1 REVERT JUMPDEST POP POP PUSH1 0x0 PUSH1 0x3 PUSH1 0xFF DUP4 PUSH1 0xA8 SHR AND EQ PUSH2 0x1817 JUMP JUMPDEST PUSH1 0x40 MLOAD PUSH3 0x461BCD PUSH1 0xE5 SHL DUP2 MSTORE PUSH1 0x20 DUP2 DUP12 ADD MSTORE PUSH1 0x16 PUSH1 0x24 DUP3 ADD MSTORE PUSH22 0x14DD591BDADD505C995B984E88199A5B985B1A5E9959 PUSH1 0x52 SHL PUSH1 0x44 DUP3 ADD MSTORE PUSH1 0x64 SWAP1 REVERT JUMPDEST PUSH1 0x40 MLOAD PUSH3 0x461BCD PUSH1 0xE5 SHL DUP2 MSTORE PUSH1 0x20 DUP2 DUP11 ADD MSTORE PUSH1 0x1C PUSH1 0x24 DUP3 ADD MSTORE PUSH32 0x5375646F6B754172656E613A206E6F74207061727469636970616E7400000000 PUSH1 0x44 DUP3 ADD MSTORE PUSH1 0x64 SWAP1 REVERT JUMPDEST PUSH1 0x40 MLOAD PUSH3 0x461BCD PUSH1 0xE5 SHL DUP2 MSTORE PUSH1 0x20 DUP2 DUP11 ADD MSTORE PUSH1 0x1A PUSH1 0x24 DUP3 ADD MSTORE PUSH32 0x5375646F6B754172656E613A20696E76616C69642076616C7565000000000000 PUSH1 0x44 DUP3 ADD MSTORE PUSH1 0x64 SWAP1 REVERT JUMPDEST PUSH1 0x40 MLOAD PUSH3 0x461BCD PUSH1 0xE5 SHL DUP2 MSTORE PUSH1 0x20 DUP2 DUP11 ADD MSTORE PUSH1 0x19 PUSH1 0x24 DUP3 ADD MSTORE PUSH32 0x5375646F6B754172656E613A20696E76616C69642063656C6C00000000000000 PUSH1 0x44 DUP3 ADD MSTORE PUSH1 0x64 SWAP1 REVERT JUMPDEST POP PUSH1 0x9 PUSH1 0xFF DUP4 AND LT PUSH2 0x11CB JUMP JUMPDEST PUSH1 0x1 DUP3 ADD DUP1 SLOAD PUSH1 0xFF DUP2 PUSH1 0xA0 SHR AND ISZERO PUSH2 0x1B35 JUMPI POP SWAP1 SWAP2 PUSH1 0x4 DUP2 ADD SLOAD SWAP2 DUP3 ISZERO DUP1 ISZERO PUSH2 0x1B29 JUMPI JUMPDEST PUSH2 0x130D JUMPI PUSH1 0x20 SWAP1 PUSH2 0x19C2 PUSH1 0x3 DUP5 ADD SLOAD DUP1 SWAP6 PUSH2 0x1CF6 JUMP JUMPDEST SWAP5 PUSH2 0x19D1 DUP6 PUSH1 0x5 DUP7 ADD SLOAD PUSH2 0x1CF6 JUMP JUMPDEST SWAP5 DUP6 DUP8 GT DUP1 ISZERO SWAP6 SWAP1 PUSH2 0x1B17 JUMPI SLOAD PUSH1 0x1 PUSH1 0x1 PUSH1 0xA0 SHL SUB AND SWAP5 JUMPDEST ISZERO PUSH2 0x1B10 JUMPI DUP7 SWAP3 JUMPDEST PUSH1 0x5 PUSH1 0xA8 SHL PUSH1 0xFF PUSH1 0xA8 SHL NOT DUP3 SLOAD AND OR SWAP1 SSTORE PUSH1 0x40 SWAP6 DUP3 PUSH1 0x0 DUP1 MLOAD PUSH1 0x20 PUSH2 0x1DA2 DUP4 CODECOPY DUP2 MLOAD SWAP2 MSTORE DUP7 DUP10 MLOAD PUSH1 0x5 DUP2 MSTORE LOG2 PUSH1 0x1 DUP1 PUSH1 0xA0 SHL SUB SWAP4 DUP4 PUSH32 0x30A52EE8DAD51B8DD476D624034BE6B22E908DC69B36A13252CA7E2CBA67A7A6 DUP7 DUP10 AND SWAP8 DUP9 SWAP4 DUP12 MLOAD SWAP1 DUP2 MSTORE LOG3 DUP7 MLOAD SWAP8 PUSH1 0x20 DUP10 ADD SWAP7 PUSH1 0x1 PUSH1 0x1 PUSH1 0x60 SHL SUB NOT SWAP1 PUSH1 0x60 SHL AND DUP8 MSTORE PUSH1 0x34 DUP10 ADD MSTORE PUSH1 0x54 DUP9 ADD MSTORE PUSH1 0x74 DUP8 ADD MSTORE PUSH1 0x74 DUP7 MSTORE PUSH1 0xA0 DUP7 ADD SWAP6 PUSH1 0x1 PUSH1 0x1 PUSH1 0x40 SHL SUB DUP8 GT SWAP5 DUP2 DUP9 LT DUP7 OR PUSH2 0x1031 JUMPI DUP8 DUP8 MSTORE DUP2 MLOAD SWAP1 KECCAK256 SWAP3 PUSH32 0x0 AND SWAP4 DUP5 EXTCODESIZE ISZERO PUSH2 0xEA JUMPI PUSH1 0x0 SWAP5 DUP9 SWAP5 PUSH1 0xE4 DUP7 SWAP5 DUP9 SWAP5 PUSH1 0x64 SWAP8 PUSH4 0x1606C4ED PUSH1 0xE1 SHL DUP9 MSTORE PUSH1 0xA4 DUP4 ADD MSTORE PUSH1 0xC4 DUP3 ADD MSTORE ADD MSTORE GAS CALL DUP1 ISZERO PUSH2 0x1B05 JUMPI PUSH2 0x1AFE JUMPI POP POP POP JUMP JUMPDEST PUSH2 0x1031 JUMPI MSTORE JUMP JUMPDEST DUP3 MLOAD RETURNDATASIZE PUSH1 0x0 DUP3 RETURNDATACOPY RETURNDATASIZE SWAP1 REVERT JUMPDEST DUP6 SWAP3 PUSH2 0x19F1 JUMP JUMPDEST POP DUP3 SLOAD PUSH1 0x1 PUSH1 0x1 PUSH1 0xA0 SHL SUB AND SWAP5 PUSH2 0x19E9 JUMP JUMPDEST POP PUSH1 0x5 DUP3 ADD SLOAD ISZERO PUSH2 0x19AC JUMP JUMPDEST PUSH1 0xFF PUSH1 0xA8 SHL NOT AND PUSH1 0x5 PUSH1 0xA8 SHL OR SWAP1 SSTORE PUSH1 0x40 MLOAD PUSH1 0x5 DUP2 MSTORE DUP2 SWAP1 PUSH1 0x0 DUP1 MLOAD PUSH1 0x20 PUSH2 0x1DA2 DUP4 CODECOPY DUP2 MLOAD SWAP2 MSTORE SWAP1 PUSH1 0x20 SWAP1 LOG2 PUSH32 0x30A52EE8DAD51B8DD476D624034BE6B22E908DC69B36A13252CA7E2CBA67A7A6 PUSH1 0x20 PUSH2 0x1BA2 PUSH1 0x1 DUP1 PUSH1 0xA0 SHL SUB DUP6 SLOAD AND SWAP5 PUSH1 0x3 PUSH1 0x4 DUP3 ADD SLOAD SWAP2 ADD SLOAD SWAP1 PUSH2 0x1CF6 JUMP JUMPDEST PUSH1 0x40 MLOAD SWAP1 DUP2 MSTORE LOG3 JUMP JUMPDEST DUP1 SLOAD PUSH1 0x1 PUSH1 0x1 PUSH1 0xA0 SHL SUB SWAP3 DUP4 AND SWAP2 SWAP1 DUP4 AND DUP3 EQ PUSH2 0x1BF2 JUMPI PUSH1 0x1 ADD SLOAD SWAP2 PUSH1 0xFF DUP4 PUSH1 0xA0 SHR AND SWAP3 DUP4 PUSH2 0x1BE6 JUMPI JUMPDEST POP POP POP PUSH2 0x1BE1 JUMPI PUSH1 0x0 SWAP1 JUMP JUMPDEST PUSH1 0x1 SWAP1 JUMP JUMPDEST AND EQ SWAP1 POP CODESIZE DUP1 DUP1 PUSH2 0x1BD5 JUMP JUMPDEST POP POP POP PUSH1 0x1 SWAP1 JUMP JUMPDEST PUSH1 0xFF PUSH1 0x1 SWAP2 AND ADD SWAP1 PUSH1 0xFF DUP3 GT PUSH2 0x712 JUMPI JUMP JUMPDEST PUSH1 0xFF PUSH1 0x3 SWAP2 AND ADD SWAP1 PUSH1 0xFF DUP3 GT PUSH2 0x712 JUMPI JUMP JUMPDEST SWAP1 PUSH1 0xFF DUP1 SWAP2 AND SWAP2 AND ADD SWAP1 PUSH1 0xFF DUP3 GT PUSH2 0x712 JUMPI JUMP JUMPDEST PUSH1 0xFF PUSH1 0x9 SWAP2 AND MUL SWAP1 PUSH1 0xFF DUP3 AND SWAP2 DUP3 SUB PUSH2 0x712 JUMPI JUMP JUMPDEST PUSH1 0xFF PUSH1 0x3 SWAP2 AND MUL SWAP1 PUSH1 0xFF DUP3 AND SWAP2 DUP3 SUB PUSH2 0x712 JUMPI JUMP JUMPDEST SWAP1 SWAP2 PUSH1 0x0 JUMPDEST PUSH1 0xFF DUP1 DUP3 AND SWAP1 PUSH1 0x51 DUP3 LT ISZERO PUSH2 0x1CEB JUMPI DUP1 PUSH2 0x1C8D PUSH2 0x1C7D DUP9 PUSH2 0xF8E JUMP JUMPDEST POP PUSH1 0x9 SWAP1 DUP2 DUP7 MOD SWAP2 DUP7 DIV SWAP1 PUSH2 0x1D11 JUMP JUMPDEST SWAP3 DUP7 PUSH1 0x0 MSTORE PUSH1 0x20 SWAP1 PUSH1 0x5 DUP3 MSTORE PUSH1 0x40 SWAP2 DUP3 PUSH1 0x0 KECCAK256 PUSH1 0x1 DUP1 PUSH1 0xA0 SHL SUB DUP10 AND PUSH1 0x0 MSTORE DUP2 MSTORE DUP3 PUSH1 0x0 KECCAK256 SWAP2 PUSH1 0x0 MSTORE MSTORE PUSH1 0x0 KECCAK256 SLOAD AND SWAP2 AND ISZERO SWAP1 DUP2 PUSH2 0x1CE2 JUMPI JUMPDEST POP PUSH2 0x1CD9 JUMPI PUSH2 0x1CD4 SWAP1 PUSH2 0x1BFA JUMP JUMPDEST PUSH2 0x1C61 JUMP JUMPDEST POP POP POP POP PUSH1 0x0 SWAP1 JUMP JUMPDEST SWAP1 POP ISZERO CODESIZE PUSH2 0x1CC6 JUMP JUMPDEST POP POP POP POP POP POP PUSH1 0x1 SWAP1 JUMP JUMPDEST SWAP1 DUP1 DUP3 LT PUSH2 0x1D0A JUMPI DUP2 SUB SWAP1 DUP2 GT PUSH2 0x712 JUMPI SWAP1 JUMP JUMPDEST POP POP PUSH1 0x0 SWAP1 JUMP JUMPDEST SWAP3 SWAP2 PUSH2 0xF29 PUSH2 0x1D1F SWAP3 PUSH2 0x1C32 JUMP JUMPDEST DUP1 PUSH1 0x1 SHR SWAP3 PUSH1 0x0 SWAP4 PUSH2 0x1D31 DUP3 SLOAD PUSH2 0xFDB JUMP JUMPDEST DUP1 PUSH1 0x7F DUP4 AND LT ISZERO PUSH2 0x1D8D JUMPI SWAP1 PUSH1 0xF SWAP5 SWAP6 PUSH1 0x20 PUSH1 0x1 SWAP5 SWAP4 LT PUSH1 0x0 EQ PUSH2 0x1D70 JUMPI POP PUSH1 0x1F AND PUSH1 0x1F SUB SWAP1 JUMPDEST SLOAD SWAP1 PUSH1 0x3 SHL SHR SWAP2 AND ISZERO PUSH2 0x1D69 JUMPI AND SWAP1 JUMP JUMPDEST PUSH1 0x4 SHR AND SWAP1 JUMP JUMPDEST DUP1 PUSH1 0x1F SWAP3 SWAP4 PUSH1 0x20 SWAP3 MSTORE KECCAK256 PUSH1 0x3 DUP6 PUSH1 0x6 SHR AND ADD SWAP2 AND PUSH1 0x1F SUB SWAP1 PUSH2 0x1D58 JUMP JUMPDEST PUSH4 0x4E487B71 PUSH1 0xE0 SHL DUP7 MSTORE PUSH1 0x32 PUSH1 0x4 MSTORE PUSH1 0x24 DUP7 REVERT INVALID GASLIMIT 0xB5 0xB5 0xDF PUSH8 0x25344DA5E2D0ACC4 CALLER 0x27 MULMOD DUP13 DUP4 0xEE EXP SWAP2 0xE8 0xA8 PUSH5 0x693668FFB8 0x4E 0x5C BALANCE LOG2 PUSH5 0x6970667358 0x22 SLT KECCAK256 0xC5 DUP4 0xA5 PUSH11 0x77C0E799A910B812641A42 0xAB DUP11 DUP3 0xBD 0xB5 0xA5 ORIGIN 0xD8 0xB8 CALLCODE 0xD2 CALLDATASIZE DUP5 PUSH1 0x45 MUL 0xEB PUSH5 0x736F6C6343 STOP ADDMOD EQ STOP CALLER "},"methodIdentifiers":{"acceptMatch(uint256)":"bebcd21e","admin()":"f851a440","createPveMatch(uint32)":"92c6d4ee","createPvpMatch(uint256,address,uint32,uint64,uint64)":"a5a04d8e","escrow()":"e2fdcc17","getCell(uint256,address,uint8,uint8)":"035e0f21","getGiven(uint256,uint8,uint8)":"bb79b50a","getPackedPuzzle(uint8)":"66d028ad","matches(uint256)":"4768d4ef","nextMatchId()":"c5adf7c9","puzzleCount()":"7194bb90","relayer()":"8406c079","setRelayer(address)":"6548e9bc","submitMove(uint256,uint8,uint8,uint8)":"a3f00805","submitMoveFor(uint256,address,uint8,uint8,uint8)":"9973fe5f"}}}}}