{
  "_format": "hh-sol-artifact-1",
  "contractName": "ArcadeEscrow",
  "sourceName": "contracts/ArcadeEscrow.sol",
  "abi": [
    {
      "inputs": [],
      "stateMutability": "nonpayable",
      "type": "constructor"
    },
    {
      "inputs": [],
      "name": "AccessControlBadConfirmation",
      "type": "error"
    },
    {
      "inputs": [
        {
          "internalType": "address",
          "name": "account",
          "type": "address"
        },
        {
          "internalType": "bytes32",
          "name": "neededRole",
          "type": "bytes32"
        }
      ],
      "name": "AccessControlUnauthorizedAccount",
      "type": "error"
    },
    {
      "inputs": [],
      "name": "ReentrancyGuardReentrantCall",
      "type": "error"
    },
    {
      "anonymous": false,
      "inputs": [
        {
          "indexed": true,
          "internalType": "uint256",
          "name": "matchId",
          "type": "uint256"
        },
        {
          "indexed": true,
          "internalType": "address",
          "name": "opponent",
          "type": "address"
        }
      ],
      "name": "ChallengeAccepted",
      "type": "event"
    },
    {
      "anonymous": false,
      "inputs": [
        {
          "indexed": true,
          "internalType": "uint256",
          "name": "matchId",
          "type": "uint256"
        },
        {
          "indexed": true,
          "internalType": "address",
          "name": "creator",
          "type": "address"
        },
        {
          "indexed": true,
          "internalType": "address",
          "name": "opponent",
          "type": "address"
        },
        {
          "indexed": false,
          "internalType": "uint256",
          "name": "wager",
          "type": "uint256"
        },
        {
          "indexed": false,
          "internalType": "uint32",
          "name": "gameId",
          "type": "uint32"
        },
        {
          "indexed": false,
          "internalType": "uint64",
          "name": "acceptBy",
          "type": "uint64"
        },
        {
          "indexed": false,
          "internalType": "uint64",
          "name": "resolveBy",
          "type": "uint64"
        },
        {
          "indexed": false,
          "internalType": "bytes32",
          "name": "metaHash",
          "type": "bytes32"
        }
      ],
      "name": "ChallengeCreated",
      "type": "event"
    },
    {
      "anonymous": false,
      "inputs": [
        {
          "indexed": true,
          "internalType": "uint256",
          "name": "matchId",
          "type": "uint256"
        }
      ],
      "name": "MatchCanceled",
      "type": "event"
    },
    {
      "anonymous": false,
      "inputs": [
        {
          "indexed": true,
          "internalType": "uint256",
          "name": "matchId",
          "type": "uint256"
        },
        {
          "indexed": true,
          "internalType": "address",
          "name": "winner",
          "type": "address"
        },
        {
          "indexed": false,
          "internalType": "bytes32",
          "name": "metaHash",
          "type": "bytes32"
        }
      ],
      "name": "MatchFinalized",
      "type": "event"
    },
    {
      "anonymous": false,
      "inputs": [
        {
          "indexed": true,
          "internalType": "uint256",
          "name": "matchId",
          "type": "uint256"
        },
        {
          "indexed": true,
          "internalType": "address",
          "name": "recipient",
          "type": "address"
        },
        {
          "indexed": false,
          "internalType": "uint256",
          "name": "amount",
          "type": "uint256"
        }
      ],
      "name": "MatchRefunded",
      "type": "event"
    },
    {
      "anonymous": false,
      "inputs": [
        {
          "indexed": true,
          "internalType": "bytes32",
          "name": "role",
          "type": "bytes32"
        },
        {
          "indexed": true,
          "internalType": "bytes32",
          "name": "previousAdminRole",
          "type": "bytes32"
        },
        {
          "indexed": true,
          "internalType": "bytes32",
          "name": "newAdminRole",
          "type": "bytes32"
        }
      ],
      "name": "RoleAdminChanged",
      "type": "event"
    },
    {
      "anonymous": false,
      "inputs": [
        {
          "indexed": true,
          "internalType": "bytes32",
          "name": "role",
          "type": "bytes32"
        },
        {
          "indexed": true,
          "internalType": "address",
          "name": "account",
          "type": "address"
        },
        {
          "indexed": true,
          "internalType": "address",
          "name": "sender",
          "type": "address"
        }
      ],
      "name": "RoleGranted",
      "type": "event"
    },
    {
      "anonymous": false,
      "inputs": [
        {
          "indexed": true,
          "internalType": "bytes32",
          "name": "role",
          "type": "bytes32"
        },
        {
          "indexed": true,
          "internalType": "address",
          "name": "account",
          "type": "address"
        },
        {
          "indexed": true,
          "internalType": "address",
          "name": "sender",
          "type": "address"
        }
      ],
      "name": "RoleRevoked",
      "type": "event"
    },
    {
      "inputs": [],
      "name": "DEFAULT_ADMIN_ROLE",
      "outputs": [
        {
          "internalType": "bytes32",
          "name": "",
          "type": "bytes32"
        }
      ],
      "stateMutability": "view",
      "type": "function"
    },
    {
      "inputs": [],
      "name": "MIN_WAGER_WEI",
      "outputs": [
        {
          "internalType": "uint256",
          "name": "",
          "type": "uint256"
        }
      ],
      "stateMutability": "view",
      "type": "function"
    },
    {
      "inputs": [],
      "name": "REFEREE_ROLE",
      "outputs": [
        {
          "internalType": "bytes32",
          "name": "",
          "type": "bytes32"
        }
      ],
      "stateMutability": "view",
      "type": "function"
    },
    {
      "inputs": [
        {
          "internalType": "uint256",
          "name": "matchId",
          "type": "uint256"
        }
      ],
      "name": "acceptChallenge",
      "outputs": [],
      "stateMutability": "payable",
      "type": "function"
    },
    {
      "inputs": [
        {
          "internalType": "uint256",
          "name": "matchId",
          "type": "uint256"
        }
      ],
      "name": "cancel",
      "outputs": [],
      "stateMutability": "nonpayable",
      "type": "function"
    },
    {
      "inputs": [
        {
          "internalType": "address",
          "name": "opponent",
          "type": "address"
        },
        {
          "internalType": "uint32",
          "name": "gameId",
          "type": "uint32"
        },
        {
          "internalType": "uint64",
          "name": "acceptBy",
          "type": "uint64"
        },
        {
          "internalType": "uint64",
          "name": "resolveBy",
          "type": "uint64"
        },
        {
          "internalType": "bytes32",
          "name": "metaHash",
          "type": "bytes32"
        }
      ],
      "name": "createChallenge",
      "outputs": [
        {
          "internalType": "uint256",
          "name": "matchId",
          "type": "uint256"
        }
      ],
      "stateMutability": "payable",
      "type": "function"
    },
    {
      "inputs": [
        {
          "internalType": "uint256",
          "name": "matchId",
          "type": "uint256"
        },
        {
          "internalType": "address",
          "name": "winner",
          "type": "address"
        },
        {
          "internalType": "bytes32",
          "name": "metaHash",
          "type": "bytes32"
        }
      ],
      "name": "finalize",
      "outputs": [],
      "stateMutability": "nonpayable",
      "type": "function"
    },
    {
      "inputs": [
        {
          "internalType": "bytes32",
          "name": "role",
          "type": "bytes32"
        }
      ],
      "name": "getRoleAdmin",
      "outputs": [
        {
          "internalType": "bytes32",
          "name": "",
          "type": "bytes32"
        }
      ],
      "stateMutability": "view",
      "type": "function"
    },
    {
      "inputs": [
        {
          "internalType": "bytes32",
          "name": "role",
          "type": "bytes32"
        },
        {
          "internalType": "address",
          "name": "account",
          "type": "address"
        }
      ],
      "name": "grantRole",
      "outputs": [],
      "stateMutability": "nonpayable",
      "type": "function"
    },
    {
      "inputs": [
        {
          "internalType": "bytes32",
          "name": "role",
          "type": "bytes32"
        },
        {
          "internalType": "address",
          "name": "account",
          "type": "address"
        }
      ],
      "name": "hasRole",
      "outputs": [
        {
          "internalType": "bool",
          "name": "",
          "type": "bool"
        }
      ],
      "stateMutability": "view",
      "type": "function"
    },
    {
      "inputs": [
        {
          "internalType": "uint256",
          "name": "",
          "type": "uint256"
        }
      ],
      "name": "matches",
      "outputs": [
        {
          "internalType": "address",
          "name": "creator",
          "type": "address"
        },
        {
          "internalType": "address",
          "name": "opponent",
          "type": "address"
        },
        {
          "internalType": "uint96",
          "name": "wager",
          "type": "uint96"
        },
        {
          "internalType": "uint32",
          "name": "gameId",
          "type": "uint32"
        },
        {
          "internalType": "uint64",
          "name": "createdAt",
          "type": "uint64"
        },
        {
          "internalType": "uint64",
          "name": "acceptBy",
          "type": "uint64"
        },
        {
          "internalType": "uint64",
          "name": "resolveBy",
          "type": "uint64"
        },
        {
          "internalType": "enum ArcadeEscrow.State",
          "name": "state",
          "type": "uint8"
        },
        {
          "internalType": "address",
          "name": "winner",
          "type": "address"
        },
        {
          "internalType": "bytes32",
          "name": "metaHash",
          "type": "bytes32"
        }
      ],
      "stateMutability": "view",
      "type": "function"
    },
    {
      "inputs": [],
      "name": "nextMatchId",
      "outputs": [
        {
          "internalType": "uint256",
          "name": "",
          "type": "uint256"
        }
      ],
      "stateMutability": "view",
      "type": "function"
    },
    {
      "inputs": [
        {
          "internalType": "uint256",
          "name": "matchId",
          "type": "uint256"
        }
      ],
      "name": "refund",
      "outputs": [],
      "stateMutability": "nonpayable",
      "type": "function"
    },
    {
      "inputs": [
        {
          "internalType": "bytes32",
          "name": "role",
          "type": "bytes32"
        },
        {
          "internalType": "address",
          "name": "callerConfirmation",
          "type": "address"
        }
      ],
      "name": "renounceRole",
      "outputs": [],
      "stateMutability": "nonpayable",
      "type": "function"
    },
    {
      "inputs": [
        {
          "internalType": "bytes32",
          "name": "role",
          "type": "bytes32"
        },
        {
          "internalType": "address",
          "name": "account",
          "type": "address"
        }
      ],
      "name": "revokeRole",
      "outputs": [],
      "stateMutability": "nonpayable",
      "type": "function"
    },
    {
      "inputs": [
        {
          "internalType": "bytes4",
          "name": "interfaceId",
          "type": "bytes4"
        }
      ],
      "name": "supportsInterface",
      "outputs": [
        {
          "internalType": "bool",
          "name": "",
          "type": "bool"
        }
      ],
      "stateMutability": "view",
      "type": "function"
    }
  ],
  "bytecode": "0x608060405234610030576001805561001633610035565b50610020336100b3565b5060405161124490816101548239f35b600080fd5b6001600160a01b031660008181527fad3228b676f7d3cd4284a5443f17f1962b36e491b30a40b2405849e597ba5fb5602052604081205490919060ff166100af57818052816020526040822081835260205260408220600160ff1982541617905533916000805160206113988339815191528180a4600190565b5090565b6001600160a01b031660008181527f1dcbb0d5b3899d261fb4614db5d133bc5b61db0ebd82cbc5812ce71c4e7d082f60205260408120549091907faef88082b8671e875d97d0d6c81d06fb9e76f97b3ad7523a55a378e5298aeeee9060ff1661014e57808352826020526040832082845260205260408320600160ff19825416179055600080516020611398833981519152339380a4600190565b50509056fe608080604052600436101561001357600080fd5b60003560e01c90816301ffc9a714610c8b575080631b0fc10614610b05578063248a9ca314610ad6578063278ecde114610aac5780632c0d89da1461087a5780632f2ff15d1461083b57806336568abe146107f457806340e58ee5146106f75780634768d4ef1461062a57806391d14854146105dd578063a217fddf146105c1578063af74bc1414610586578063c5adf7c914610568578063d547741f14610527578063d6adf4c8146105045763e61daca5146100cf57600080fd5b60a03660031901126104ff576004356001600160a01b03811681036104ff57602490813563ffffffff811681036104ff5760449182359367ffffffffffffffff9081861686036104ff5760649081359183831683036104ff57610130610e0d565b6001600160a01b038516156104be5742848916111561047d57838816848416111561043157670de0b6b3a764000034106103f0576001600160601b033416968734036103af57505060025495600019871461039a5760018701600255604051906101408201828110868211176103855760405233825260018060a01b0386166020830152604082015263ffffffff86166060820152834216608082015283881660a082015283831660c0820152600160e0820152600061010082015260843561012082015260018701600052600360205260406000209160018060a01b038251166001600160601b0360a01b84541617835560018060a01b036020830151166001600160601b0360a01b604084015160a01b1617600184015563ffffffff606083015116906002840154916bffffffffffffffff00000000608085015160201b1667ffffffffffffffff60601b60a086015160601b169167ffffffffffffffff60a01b60c087015160a01b169360e087015190600682101561037157506001600160e81b03199095161717171760e09190911b60ff60e01b161760028301556101008101516003830180546001600160a01b0319166001600160a01b0392831617905561012091909101516004909201919091556040805134815263ffffffff96909616602087810191909152978416908601529116606084015260843560808401521690339060018401907ff1e65d4e3be57d5a375b8ccfe5b1311c9405d79ed34d953b367e43e7b5a00b5f9060a090a460018055600160405191018152f35b634e487b7160e01b60009081526021600452fd5b83634e487b7160e01b60005260416004526000fd5b50634e487b7160e01b60009081526011600452fd5b7f417263616465457363726f773a20776167657220746f6f206c617267650000008391601d6040519362461bcd60e51b855260206004860152840152820152fd5b907f417263616465457363726f773a20776167657220746f6f20736d616c6c00000087601d6040519362461bcd60e51b855260206004860152840152820152fd5b90607960f81b6084927f417263616465457363726f773a207265736f6c7665427920746f6f206561726c8960216040519562461bcd60e51b875260206004880152860152840152820152fd5b907f417263616465457363726f773a20616363657074427920696e2070617374000087601e6040519362461bcd60e51b855260206004860152840152820152fd5b907f417263616465457363726f773a206f70706f6e656e74206973207a65726f000087601e6040519362461bcd60e51b855260206004860152840152820152fd5b600080fd5b346104ff5760003660031901126104ff576020604051670de0b6b3a76400008152f35b346104ff5760403660031901126104ff57610566600435610546610cde565b90806000526000602052610561600160406000200154610cf4565b610d98565b005b346104ff5760003660031901126104ff576020600254604051908152f35b346104ff5760003660031901126104ff5760206040517faef88082b8671e875d97d0d6c81d06fb9e76f97b3ad7523a55a378e5298aeeee8152f35b346104ff5760003660031901126104ff57602060405160008152f35b346104ff5760403660031901126104ff576105f6610cde565b600435600052600060205260406000209060018060a01b0316600052602052602060ff604060002054166040519015158152f35b346104ff5760203660031901126104ff576004356000526003602052604060002060018060a01b038082541690600183015492600281015460ff8160e01c1694600484600385015416930154936040519586528116602086015260a01c604085015263ffffffff8116606085015267ffffffffffffffff90818160201c166080860152818160601c1660a086015260a01c1660c084015260068410156106e1576101409360e0840152610100830152610120820152f35b634e487b7160e01b600052602160045260246000fd5b346104ff5760203660031901126104ff57600435610713610e0d565b3360009081527fad3228b676f7d3cd4284a5443f17f1962b36e491b30a40b2405849e597ba5fb5602052604090205460ff16156107d5578060005260036020526040600020600281019081549160ff8360e01c169260068410156106e15761078060016107aa9514610e30565b60ff60e01b1916600560e01b17905580546001919091015460a01c906001600160a01b0316611146565b7f9ec91d668286b4cab4fcb2ce5274f689be3b2b62812e94228d00a269ee768106600080a260018055005b60405163e2517d3f60e01b815233600482015260006024820152604490fd5b346104ff5760403660031901126104ff5761080d610cde565b336001600160a01b038216036108295761056690600435610d98565b60405163334bd91960e11b8152600490fd5b346104ff5760403660031901126104ff5761056660043561085a610cde565b90806000526000602052610875600160406000200154610cf4565b610d1a565b346104ff5760603660031901126104ff57600435610896610cde565b90604435916108a3610e0d565b3360009081527f1dcbb0d5b3899d261fb4614db5d133bc5b61db0ebd82cbc5812ce71c4e7d082f60209081526040909120547faef88082b8671e875d97d0d6c81d06fb9e76f97b3ad7523a55a378e5298aeeee9060ff1615610a8e57508260005260038152604060002093600285019485549560ff8760e01c1660068110156106e157600203610a495781546001600160a01b03868116989181168914908115610a39575b50156109f45760ff60e01b1916600360e01b1790556003810180546001600160a01b031916871790556004810182905560010154609f81901c6c01fffffffffffffffffffffffe16939060a01c801560029186049190911417156109de577ff7fb99b901f5e16ff008292461f8ae1bd28772ab94cd347ae111293ed9773d2c936109d191611146565b604051908152a360018055005b634e487b7160e01b600052601160045260246000fd5b60405162461bcd60e51b815260048101869052601c60248201527f417263616465457363726f773a20696e76616c69642077696e6e6572000000006044820152606490fd5b9050600184015416881489610948565b60405162461bcd60e51b815260048101859052601a60248201527f417263616465457363726f773a206e6f742061636365707465640000000000006044820152606490fd5b6044906040519063e2517d3f60e01b82523360048301526024820152fd5b346104ff5760203660031901126104ff57610ac5610e0d565b610ad0600435610ec1565b60018055005b346104ff5760203660031901126104ff5760043560005260006020526020600160406000200154604051908152f35b60203660031901126104ff57600435610b1c610e0d565b8060005260036020526040600020600281019081549060ff8260e01c169060068210156106e157610b506001809314610e30565b01546001600160a01b0381163303610c465767ffffffffffffffff8260601c16421015610c015760a01c3403610bbc5760ff60e01b1916600160e11b17905533907fd984ac8050a068db0ada14b33626b418e0cdfbad700867c1f3e0ab23cf123b33600080a360018055005b60405162461bcd60e51b815260206004820152601d60248201527f417263616465457363726f773a20696e636f72726563742077616765720000006044820152606490fd5b60405162461bcd60e51b815260206004820152601c60248201527f417263616465457363726f773a206163636570742065787069726564000000006044820152606490fd5b60405162461bcd60e51b815260206004820152601a60248201527f417263616465457363726f773a206e6f74206f70706f6e656e740000000000006044820152606490fd5b346104ff5760203660031901126104ff576004359063ffffffff60e01b82168092036104ff57602091637965db0b60e01b8114908115610ccd575b5015158152f35b6301ffc9a760e01b14905083610cc6565b602435906001600160a01b03821682036104ff57565b80600052600060205260406000203360005260205260ff6040600020541615610a8e5750565b9060009180835282602052604083209160018060a01b03169182845260205260ff60408420541615600014610d9357808352826020526040832082845260205260408320600160ff198254161790557f2f8788117e7eff1d82e926ec794901d17c78024a50270940304540a733656f0d339380a4600190565b505090565b9060009180835282602052604083209160018060a01b03169182845260205260ff604084205416600014610d935780835282602052604083208284526020526040832060ff1981541690557ff6391f5c32d9c69d2a47ea670b442974b53935d1edc7fd64eb21e047a839171b339380a4600190565b600260015414610e1e576002600155565b604051633ee5aeb560e01b8152600490fd5b15610e3757565b60405162461bcd60e51b815260206004820152601660248201527520b931b0b232a2b9b1b937bb9d103737ba1037b832b760511b6044820152606490fd5b15610e7c57565b60405162461bcd60e51b815260206004820152601960248201527f417263616465457363726f773a206e6f742063726561746f72000000000000006044820152606490fd5b90600091808352602091600383526040918285209460028601805460ff8160e01c16600681101561105e57600114611072575080549660ff8860e01c16600681101561105e57600214610f505760648787519062461bcd60e51b825280600483015260248201527f417263616465457363726f773a20726566756e6420756e617661696c61626c656044820152fd5b67ffffffffffffffff8860a0989596981c164211156110105780546001600160a01b0390811698909290610f85338b14610e75565b60ff60e01b1916600160e21b1790556001810154609f81901c6c01fffffffffffffffffffffffe16939060a01c80156002918604919091141715610ffc5750610ff2837f7e8d9d00c67d0eca419da2afaeb9897f1995ce74ca7e6e5dab3f4c85c40721b196979899611146565b54169451908152a3565b634e487b7160e01b81526011600452602490fd5b855162461bcd60e51b815260048101859052602160248201527f417263616465457363726f773a207265736f6c76652077696e646f77206f70656044820152603760f91b6064820152608490fd5b634e487b7160e01b84526021600452602484fd5b95939690915067ffffffffffffffff8660609694961c164211156111045780546001600160a01b03908116967f7e8d9d00c67d0eca419da2afaeb9897f1995ce74ca7e6e5dab3f4c85c40721b1959493919291906110d1338a14610e75565b60ff60e01b1916600160e21b17905560018101805490976110f59160a01c90611146565b5416945460a01c9051908152a3565b60648484519062461bcd60e51b825280600483015260248201527f417263616465457363726f773a206163636570742077696e646f77206f70656e6044820152fd5b60008080809481945af1903d156112085767ffffffffffffffff903d8281116111f45760405192601f8201601f19908116603f01168401908111848210176111e057604052825260203d92013e5b1561119b57565b60405162461bcd60e51b815260206004820152601d60248201527f417263616465457363726f773a207472616e73666572206661696c65640000006044820152606490fd5b634e487b7160e01b83526041600452602483fd5b634e487b7160e01b82526041600452602482fd5b5061119456fea264697066735822122030bc434b89130f77d25da776ef139b73c97dc36f83331ac405c4105c1881026d64736f6c634300081400332f8788117e7eff1d82e926ec794901d17c78024a50270940304540a733656f0d",
  "linkReferences": {},
  "deployedLinkReferences": {}
}