{
  "_format": "hh-sol-artifact-1",
  "contractName": "SudokuArena",
  "sourceName": "contracts/SudokuArena.sol",
  "abi": [
    {
      "inputs": [
        {
          "internalType": "address",
          "name": "escrowAddress",
          "type": "address"
        }
      ],
      "stateMutability": "nonpayable",
      "type": "constructor"
    },
    {
      "anonymous": false,
      "inputs": [
        {
          "indexed": true,
          "internalType": "uint256",
          "name": "matchId",
          "type": "uint256"
        },
        {
          "indexed": true,
          "internalType": "address",
          "name": "opponent",
          "type": "address"
        }
      ],
      "name": "MatchAccepted",
      "type": "event"
    },
    {
      "anonymous": false,
      "inputs": [
        {
          "indexed": true,
          "internalType": "uint256",
          "name": "matchId",
          "type": "uint256"
        },
        {
          "indexed": true,
          "internalType": "address",
          "name": "creator",
          "type": "address"
        },
        {
          "indexed": true,
          "internalType": "address",
          "name": "opponent",
          "type": "address"
        },
        {
          "indexed": false,
          "internalType": "bool",
          "name": "isPvp",
          "type": "bool"
        },
        {
          "indexed": false,
          "internalType": "uint32",
          "name": "gameId",
          "type": "uint32"
        },
        {
          "indexed": false,
          "internalType": "uint64",
          "name": "acceptBy",
          "type": "uint64"
        },
        {
          "indexed": false,
          "internalType": "uint64",
          "name": "resolveBy",
          "type": "uint64"
        },
        {
          "indexed": false,
          "internalType": "uint8",
          "name": "puzzleIndex",
          "type": "uint8"
        },
        {
          "indexed": false,
          "internalType": "bytes32",
          "name": "puzzleHash",
          "type": "bytes32"
        }
      ],
      "name": "MatchCreated",
      "type": "event"
    },
    {
      "anonymous": false,
      "inputs": [
        {
          "indexed": true,
          "internalType": "uint256",
          "name": "matchId",
          "type": "uint256"
        },
        {
          "indexed": true,
          "internalType": "address",
          "name": "winner",
          "type": "address"
        },
        {
          "indexed": false,
          "internalType": "uint256",
          "name": "winnerDelta",
          "type": "uint256"
        }
      ],
      "name": "MatchFinalized",
      "type": "event"
    },
    {
      "anonymous": false,
      "inputs": [
        {
          "indexed": true,
          "internalType": "uint256",
          "name": "matchId",
          "type": "uint256"
        },
        {
          "indexed": false,
          "internalType": "enum SudokuArena.State",
          "name": "state",
          "type": "uint8"
        }
      ],
      "name": "MatchStateUpdated",
      "type": "event"
    },
    {
      "anonymous": false,
      "inputs": [
        {
          "indexed": true,
          "internalType": "uint256",
          "name": "matchId",
          "type": "uint256"
        },
        {
          "indexed": true,
          "internalType": "address",
          "name": "player",
          "type": "address"
        },
        {
          "indexed": false,
          "internalType": "uint8",
          "name": "row",
          "type": "uint8"
        },
        {
          "indexed": false,
          "internalType": "uint8",
          "name": "col",
          "type": "uint8"
        },
        {
          "indexed": false,
          "internalType": "uint8",
          "name": "value",
          "type": "uint8"
        }
      ],
      "name": "MoveSubmitted",
      "type": "event"
    },
    {
      "inputs": [
        {
          "internalType": "uint256",
          "name": "matchId",
          "type": "uint256"
        }
      ],
      "name": "acceptMatch",
      "outputs": [],
      "stateMutability": "nonpayable",
      "type": "function"
    },
    {
      "inputs": [],
      "name": "admin",
      "outputs": [
        {
          "internalType": "address",
          "name": "",
          "type": "address"
        }
      ],
      "stateMutability": "view",
      "type": "function"
    },
    {
      "inputs": [
        {
          "internalType": "uint32",
          "name": "gameId",
          "type": "uint32"
        }
      ],
      "name": "createPveMatch",
      "outputs": [
        {
          "internalType": "uint256",
          "name": "matchId",
          "type": "uint256"
        }
      ],
      "stateMutability": "nonpayable",
      "type": "function"
    },
    {
      "inputs": [
        {
          "internalType": "uint256",
          "name": "escrowMatchId",
          "type": "uint256"
        },
        {
          "internalType": "address",
          "name": "opponent",
          "type": "address"
        },
        {
          "internalType": "uint32",
          "name": "gameId",
          "type": "uint32"
        },
        {
          "internalType": "uint64",
          "name": "acceptBy",
          "type": "uint64"
        },
        {
          "internalType": "uint64",
          "name": "resolveBy",
          "type": "uint64"
        }
      ],
      "name": "createPvpMatch",
      "outputs": [
        {
          "internalType": "uint256",
          "name": "matchId",
          "type": "uint256"
        }
      ],
      "stateMutability": "nonpayable",
      "type": "function"
    },
    {
      "inputs": [],
      "name": "escrow",
      "outputs": [
        {
          "internalType": "contract ArcadeEscrow",
          "name": "",
          "type": "address"
        }
      ],
      "stateMutability": "view",
      "type": "function"
    },
    {
      "inputs": [
        {
          "internalType": "uint256",
          "name": "matchId",
          "type": "uint256"
        },
        {
          "internalType": "address",
          "name": "player",
          "type": "address"
        },
        {
          "internalType": "uint8",
          "name": "row",
          "type": "uint8"
        },
        {
          "internalType": "uint8",
          "name": "col",
          "type": "uint8"
        }
      ],
      "name": "getCell",
      "outputs": [
        {
          "internalType": "uint8",
          "name": "",
          "type": "uint8"
        }
      ],
      "stateMutability": "view",
      "type": "function"
    },
    {
      "inputs": [
        {
          "internalType": "uint256",
          "name": "matchId",
          "type": "uint256"
        },
        {
          "internalType": "uint8",
          "name": "row",
          "type": "uint8"
        },
        {
          "internalType": "uint8",
          "name": "col",
          "type": "uint8"
        }
      ],
      "name": "getGiven",
      "outputs": [
        {
          "internalType": "uint8",
          "name": "",
          "type": "uint8"
        }
      ],
      "stateMutability": "view",
      "type": "function"
    },
    {
      "inputs": [
        {
          "internalType": "uint8",
          "name": "index",
          "type": "uint8"
        }
      ],
      "name": "getPackedPuzzle",
      "outputs": [
        {
          "internalType": "bytes",
          "name": "",
          "type": "bytes"
        }
      ],
      "stateMutability": "view",
      "type": "function"
    },
    {
      "inputs": [
        {
          "internalType": "uint256",
          "name": "",
          "type": "uint256"
        }
      ],
      "name": "matches",
      "outputs": [
        {
          "internalType": "address",
          "name": "creator",
          "type": "address"
        },
        {
          "internalType": "address",
          "name": "opponent",
          "type": "address"
        },
        {
          "internalType": "bool",
          "name": "isPvp",
          "type": "bool"
        },
        {
          "internalType": "enum SudokuArena.State",
          "name": "state",
          "type": "uint8"
        },
        {
          "internalType": "uint64",
          "name": "createdAt",
          "type": "uint64"
        },
        {
          "internalType": "uint64",
          "name": "acceptBy",
          "type": "uint64"
        },
        {
          "internalType": "uint64",
          "name": "resolveBy",
          "type": "uint64"
        },
        {
          "internalType": "uint32",
          "name": "gameId",
          "type": "uint32"
        },
        {
          "internalType": "uint256",
          "name": "startBlock",
          "type": "uint256"
        },
        {
          "internalType": "uint256",
          "name": "creatorFinishBlock",
          "type": "uint256"
        },
        {
          "internalType": "uint256",
          "name": "opponentFinishBlock",
          "type": "uint256"
        },
        {
          "internalType": "uint8",
          "name": "puzzleIndex",
          "type": "uint8"
        },
        {
          "internalType": "bytes32",
          "name": "puzzleHash",
          "type": "bytes32"
        }
      ],
      "stateMutability": "view",
      "type": "function"
    },
    {
      "inputs": [],
      "name": "nextMatchId",
      "outputs": [
        {
          "internalType": "uint256",
          "name": "",
          "type": "uint256"
        }
      ],
      "stateMutability": "view",
      "type": "function"
    },
    {
      "inputs": [],
      "name": "puzzleCount",
      "outputs": [
        {
          "internalType": "uint256",
          "name": "",
          "type": "uint256"
        }
      ],
      "stateMutability": "view",
      "type": "function"
    },
    {
      "inputs": [],
      "name": "relayer",
      "outputs": [
        {
          "internalType": "address",
          "name": "",
          "type": "address"
        }
      ],
      "stateMutability": "view",
      "type": "function"
    },
    {
      "inputs": [
        {
          "internalType": "address",
          "name": "nextRelayer",
          "type": "address"
        }
      ],
      "name": "setRelayer",
      "outputs": [],
      "stateMutability": "nonpayable",
      "type": "function"
    },
    {
      "inputs": [
        {
          "internalType": "uint256",
          "name": "matchId",
          "type": "uint256"
        },
        {
          "internalType": "uint8",
          "name": "row",
          "type": "uint8"
        },
        {
          "internalType": "uint8",
          "name": "col",
          "type": "uint8"
        },
        {
          "internalType": "uint8",
          "name": "value",
          "type": "uint8"
        }
      ],
      "name": "submitMove",
      "outputs": [],
      "stateMutability": "nonpayable",
      "type": "function"
    },
    {
      "inputs": [
        {
          "internalType": "uint256",
          "name": "matchId",
          "type": "uint256"
        },
        {
          "internalType": "address",
          "name": "player",
          "type": "address"
        },
        {
          "internalType": "uint8",
          "name": "row",
          "type": "uint8"
        },
        {
          "internalType": "uint8",
          "name": "col",
          "type": "uint8"
        },
        {
          "internalType": "uint8",
          "name": "value",
          "type": "uint8"
        }
      ],
      "name": "submitMoveFor",
      "outputs": [],
      "stateMutability": "nonpayable",
      "type": "function"
    }
  ],
  "bytecode": "0x60a0346200061257601f6200276038819003918201601f19168301916001600160401b0383118484101762000617578084926020946040528339810103126200061257516001600160a01b0381169081900362000612578015620005cd5760805260018060a01b03193381600054161760005533906001541617600155620005ad620005a16200008e6200062d565b6005815260036020820152600060408201526006606082015260076080820152600060a0820152600960c0820152600160e08201526002610100820152600661012082015260076101408201526002610160820152600161018082015260006101a082015260056101c082015260036101e08201526000610200820152600861022082015260016102408201526000610260820152600861028082015260036102a082015260046102c082015260026102e08201526005610300820152600661032082015260006103408201526008610360820152600561038082015260096103a082015260006103c082015260066103e08201526001610400820152600461042082015260006104408201526003610460820152600461048082015260026104a082015260066104c082015260086104e08201526005610500820152600361052082015260006105408201526009610560820152600061058082015260076105a082015260006105c082015260036105e08201526009610600820152600261062082015260006106408201526008610660820152600561068082015260066106a082015260006106c082015260066106e08201526001610700820152600561072082015260006107408201526007610760820152600261078082015260086107a082015260046107c082015260026107e08201526008610800820152600761082082015260006108408201526001610860820152600961088082015260066108a082015260036108c082015260056108e08201526003610900820152600061092082015260056109408201526002610960820152600861098082015260066109a082015260006109c082015260076109e08201526000610a00820152620005a7620005a16200031d6200062d565b926004845260006020850152600560408501526002606085015260006080850152600960a0850152600760c0850152600860e08501526001610100850152600661012085015260086101408501526000610160850152600561018085015260076101a085015260016101c085015260006101e08501526009610200850152600361022085015260006102408501526009610260850152600761028085015260086102a085015260036102c085015260046102e08501526005610300850152600061032085015260026103408501526008610360850152600261038085015260066103a085015260006103c085015260096103e08501526005610400850152600361042085015260046104408501526000610460850152600361048085015260006104a085015260046104c085015260066104e08501526008610500850152600061052085015260096105408501526001610560850152600561058085015260096105a085015260056105c085015260006105e08501526007610600850152600061062085015260036106408501526006610660850152600261068085015260086106a085015260056106c085015260016106e08501526009610700850152600061072085015260026107408501526006610760850152600861078085015260006107a085015260046107c085015260006107e08501526004610800850152600861082085015260096108408501526005610860850152600061088085015260016108a085015260036108c085015260066108e08501526007610900850152600061092085015260036109408501526004610960850152600161098085015260086109a085015260006109c085015260056109e08501526009610a0085015262000821565b6200064e565b62000821565b604051611df790816200096982396080518181816101050152611aa10152f35b60405162461bcd60e51b815260206004820152601b60248201527f5375646f6b754172656e613a20657363726f77206973207a65726f00000000006044820152606490fd5b600080fd5b634e487b7160e01b600052604160045260246000fd5b60405190610a2082016001600160401b038111838210176200061757604052565b60035468010000000000000000811015620006175760019182820180600355821015620007f9576003600090815281517fc2575a0e9e593c00f959f8c92f12db2869c3395a3b0502d05e2516446f71f85b90930193602093929091906001600160401b038411620007e55785548381811c91168015620007da575b86821014620007c657601f81116200077b575b508491601f8511600114620007185793945084929190836200070c575b50501b916000199060031b1c1916179055565b015192503880620006f9565b86815285812093958591601f198316915b8883831062000760575050501062000746575b505050811b019055565b015160001960f88460031b161c191690553880806200073c565b85870151885590960195948501948793509081019062000729565b868352858320601f860160051c810191878710620007bb575b601f0160051c019084905b828110620007af575050620006dc565b8481550184906200079f565b909150819062000794565b634e487b7160e01b83526022600452602483fd5b90607f1690620006c9565b634e487b7160e01b82526041600452602482fd5b634e487b7160e01b600052603260045260246000fd5b908151811015620007f9570160200190565b60408051919290606083016001600160401b038111848210176200061757815260298352602081368286013760005b60ff605181831610156200095f57611fe08260051b16870151908116906009821162000911576001607f84821c16926200088b848a6200080f565b519060f891821c92861615600014620008ec5750620008c39260f0600f60ff60f81b94169160041b1617901b1660001a91876200080f565b535b600160ff80921601908111156200085057634e487b7160e01b600052601160045260246000fd5b6200090a935060f060ff60f81b931617901b1660001a91876200080f565b53620008c5565b845162461bcd60e51b815260048101859052602160248201527f5375646f6b754172656e613a20696e76616c69642070757a7a6c652076616c756044820152606560f81b6064820152608490fd5b5050505091509056fe6080604052600436101561001257600080fd5b60003560e01c8063035e0f2114610ecc5780634768d4ef14610dec5780636548e9bc14610d1a57806366d028ad14610c525780637194bb9014610c345780638406c07914610c0b57806392c6d4ee1461095b5780639973fe5f14610873578063a3f008051461083b578063a5a04d8e146103ae578063bb79b50a14610336578063bebcd21e14610152578063c5adf7c914610134578063e2fdcc17146100ef5763f851a440146100c157600080fd5b346100ea5760003660031901126100ea576000546040516001600160a01b039091168152602090f35b600080fd5b346100ea5760003660031901126100ea576040517f00000000000000000000000000000000000000000000000000000000000000006001600160a01b03168152602090f35b346100ea5760003660031901126100ea576020600254604051908152f35b346100ea576020806003193601126100ea576004359081600052600481526040600020600181019081549060ff8260a81c166008811015610320576001036102db5760ff8260a01c161561029f576001600160a01b038216330361025a57600201546001600160401b03164210156102155760ff60a81b1916600160a91b179055604051600080516020611da2833981519152919033847f3b8d451bc77cb8362426b579170661ca3515d7fa4c08b9627c660328f0311008600080a360028152a2005b60405162461bcd60e51b815260048101849052601b60248201527f5375646f6b754172656e613a20616363657074206578706972656400000000006044820152606490fd5b60405162461bcd60e51b815260048101859052601960248201527f5375646f6b754172656e613a206e6f74206f70706f6e656e74000000000000006044820152606490fd5b60405162461bcd60e51b815260048101859052601460248201527305375646f6b754172656e613a206e6f74207076760641b6044820152606490fd5b60405162461bcd60e51b815260048101859052601860248201527f5375646f6b754172656e613a206e6f74206372656174656400000000000000006044820152606490fd5b634e487b7160e01b600052602160045260246000fd5b346100ea5760603660031901126100ea5761034f610f7e565b610357610f5e565b600435600052600460205260406000209060ff600183015460a81c169260088410156103205761039d60ff60066103a3956103956020981515611116565b015416610f8e565b50611d11565b60ff60405191168152f35b346100ea5760a03660031901126100ea576103c7610f48565b6044359063ffffffff821682036100ea576064356001600160401b03811681036100ea57608435906001600160401b03821682036100ea576001600160a01b038316156107f657426001600160401b03821611156107b1576001600160401b0381166001600160401b038316111561076d57600435600052600460205260ff60016040600020015460a81c1660088110156103205761072857600019430143811161071257604051602081019140825260043560408201526001600160601b03193360601b1660608201526054815261049f81611047565b5190206003549081156106fc576104c36104bd60ff84840616610f8e565b50611062565b6020815191012093604051906104d882611015565b33825260018060a01b038716602083015260016040830152600160608301526001600160401b03421660808301526001600160401b03851660a08301526001600160401b03811660c083015263ffffffff881660e083015260006101008301526000610120830152600061014083015260ff8484061661016083015285610180830152600435600052600460205260406000209460018060a01b038351166001600160601b0360a01b87541617865560018060a01b0360208401511660018701549060ff60a01b6040860151151560a01b16916affffffffffffffffffffff60a81b16171760018701556060830151906008821015610320578660076101806001600160401b03966105f08896600160ff9d01611162565b60808101516001850154908760b01b9060b01b16908760b01b1916176001850155600284018660a08301511681549067ffffffffffffffff60401b60c085015160401b169063ffffffff60801b60e086015160801b16926001600160601b0360a01b161717179055610100810151600385015561012081015160048501556101408101516005850155600684018b610160830151168c19825416179055015191015563ffffffff6040519a60018c521660208b01521660408901521660608701520616608084015260a083015260018060a01b03169033907fbe8aae938d8f8784025f4a2713894112d436ddc89db4ec90513469021655d33260c060043592a460206040516004358152f35b634e487b7160e01b600052601260045260246000fd5b634e487b7160e01b600052601160045260246000fd5b60405162461bcd60e51b815260206004820152601960248201527f5375646f6b754172656e613a206d6174636820657869737473000000000000006044820152606490fd5b606460405162461bcd60e51b815260206004820152602060248201527f5375646f6b754172656e613a207265736f6c7665427920746f6f206561726c796044820152fd5b60405162461bcd60e51b815260206004820152601d60248201527f5375646f6b754172656e613a20616363657074427920696e20706173740000006044820152606490fd5b60405162461bcd60e51b815260206004820152601d60248201527f5375646f6b754172656e613a206f70706f6e656e74206973207a65726f0000006044820152606490fd5b346100ea5760803660031901126100ea57610871610857610f7e565b61085f610f5e565b610867610f6e565b9133600435611186565b005b346100ea5760a03660031901126100ea5761088c610f48565b610894610f5e565b61089c610f6e565b6084359160ff831683036100ea576001546001600160a01b039081163303610916578416156108d15761087193600435611186565b60405162461bcd60e51b815260206004820152601b60248201527f5375646f6b754172656e613a20706c61796572206973207a65726f00000000006044820152606490fd5b60405162461bcd60e51b815260206004820152601860248201527f5375646f6b754172656e613a206e6f742072656c6179657200000000000000006044820152606490fd5b346100ea5760203660031901126100ea5760043563ffffffff811681036100ea57600254600019808214610712576001820160025543014381116107125760405160208101914082526001830160408201526001600160601b03193360601b166060820152605481526109cd81611047565b5190206003549283156106fc576109eb6104bd60ff86850616610f8e565b60208151910120604051926109ff84611015565b33845260006020850152604084019560008752600160608601526001600160401b0342166080860152600060a0860152600060c086015263ffffffff841660e086015260006101008601526000610120860152600061014086015260ff818306166101608601528261018086015260018601600052600460205260406000209660018060a01b03808751166001600160601b0360a01b8a541617895560208701511660018901549160ff60a01b9051151560a01b16916affffffffffffffffffffff60a81b1617176001880155606085015191600883101561032057876007610180600098610af560ff97600160209e01611162565b60808101516001850154906001600160401b0360b01b9060b01b16906001600160401b0360b01b1916176001850155600284016001600160401b0360a08301511681549067ffffffffffffffff60401b60c085015160401b169063ffffffff60801b60e086015160801b16926001600160601b0360a01b1617171790556101008101516003850155610120810151600485015561014081015160058501556006840187610160830151168819825416179055015191015563ffffffff6040519587875216888601528560408601528560608601520616608083015260a082015233907fbe8aae938d8f8784025f4a2713894112d436ddc89db4ec90513469021655d33260c06001860192a4600160405191018152f35b346100ea5760003660031901126100ea576001546040516001600160a01b039091168152602090f35b346100ea5760003660031901126100ea576020600354604051908152f35b346100ea576020806003193601126100ea5760043560ff81168082036100ea576003541115610cd7576104bd610c8791610f8e565b604051828193825282519081818401526000935b828510610cbe575050604092506000838284010152601f80199101168101030190f35b8481018201518686016040015293810193859350610c9b565b6064826040519062461bcd60e51b825280600483015260248201527f5375646f6b754172656e613a2070757a7a6c65206f7574206f662072616e67656044820152fd5b346100ea5760203660031901126100ea576004356001600160a01b03818116918290036100ea57600054163303610dae578015610d69576001600160601b0360a01b6001541617600155600080f35b60405162461bcd60e51b815260206004820152601c60248201527f5375646f6b754172656e613a2072656c61796572206973207a65726f000000006044820152606490fd5b60405162461bcd60e51b815260206004820152601660248201527529bab237b5baa0b932b7309d103737ba1030b236b4b760511b6044820152606490fd5b346100ea5760203660031901126100ea576004356000526004602052604060002060018060a01b03808254169060018301549260ff8460a81c166002820154906003830154600484015491600585015493600760ff600688015416960154966040519889528916602089015260ff8960a01c16151560408901526008821015610320576101a09863ffffffff9260608a01526001600160401b03809160b01c1660808a015280821660a08a01528160401c1660c089015260801c1660e0870152610100860152610120850152610140840152610160830152610180820152f35b346100ea5760803660031901126100ea57610ee5610f48565b60ff610f2e610ef2610f5e565b92610efb610f6e565b90600435600052600560205260406000209060018060a01b0316600052602052610f29604060002094611c32565b611c1e565b16600052602052602060ff60406000205416604051908152f35b602435906001600160a01b03821682036100ea57565b6044359060ff821682036100ea57565b6064359060ff821682036100ea57565b6024359060ff821682036100ea57565b600354811015610fc55760036000527fc2575a0e9e593c00f959f8c92f12db2869c3395a3b0502d05e2516446f71f85b0190600090565b634e487b7160e01b600052603260045260246000fd5b90600182811c9216801561100b575b6020831014610ff557565b634e487b7160e01b600052602260045260246000fd5b91607f1691610fea565b6101a081019081106001600160401b0382111761103157604052565b634e487b7160e01b600052604160045260246000fd5b608081019081106001600160401b0382111761103157604052565b906040519160009080549061107682610fdb565b9081865260019283811690816000146110f557506001146110b8575b505050829003601f01601f191682016001600160401b0381118382101761103157604052565b9092506000526020918260002091836000935b8385106110e15750505050830101388080611092565b8054888601830152930192849082016110cb565b92935050506020925060ff191682850152151560051b830101388080611092565b1561111d57565b60405162461bcd60e51b815260206004820152601a60248201527f5375646f6b754172656e613a206d61746368206d697373696e670000000000006044820152606490fd5b90600881101561032057815460ff60a81b191660a89190911b60ff60a81b16179055565b919382600052600494856020526040600020946001860154600860ff8260a81c161015611779576111be60ff8260a81c161515611116565b600960ff8416108061197b575b1561193757600960ff8516116118f3576111e58588611bab565b156118af576000600560ff8360a81c16146118725760ff8260a01c1660001461180357806117ee57600260ff8360a81c161480156117db575b15611797575b6003880180541561178e575b5061177957600360ff8260a81c1603611744575b5060ff60068701541660ff61125d838561039d85610f8e565b166117005760ff84166113a4575b5060ff90856000526005602052604060002060018060a01b03861660005260205260406000208261129f83610f2987611c32565b1660005260205260406000208285168319825416179055816040519316835216602082015260ff82166040820152837f2feb471ea64204f73252192718f528b03fc60cf34d6c597d024cc6f8ceab524c606060018060a01b03861693a360ff168015159061138c575b611313575b50505050565b825461135694906001600160a01b0383811691161480611381575b611376575b5060018301546001600160a01b039182169116148061136a575b61135f57611988565b3880808061130d565b436005830155611988565b5060058201541561134d565b439084015538611333565b50808401541561132e565b5061139f8160ff60068601541684611c5c565b611308565b91939295979060005b60ff8116600981101561148f5760ff831614611486576113d1818761039d87610f8e565b876000526005602052604060002060018060a01b038716600052602052604060002060ff61140284610f298b611c32565b1660005260205260ff6040600020541660ff8216151560001461147f57505b60ff808a1691161461143b5761143690611bfa565b6113ad565b60405162461bcd60e51b81526020818b0152601960248201527f5375646f6b754172656e613a20726f7720636f6e666c696374000000000000006044820152606490fd5b9050611421565b61143690611bfa565b50509360005b60ff811660098110156115775760ff83161461156e576114b9868261039d87610f8e565b876000526005602052604060002060018060a01b038716600052602052604060002060ff6114ea89610f2986611c32565b1660005260205260ff6040600020541660ff8216151560001461156757505b60ff808a169116146115235761151e90611bfa565b611495565b60405162461bcd60e51b81526020818b0152601c60248201527f5375646f6b754172656e613a20636f6c756d6e20636f6e666c696374000000006044820152606490fd5b9050611509565b61151e90611bfa565b505090979361158b600360ff841604611c47565b61159a600360ff841604611c47565b9981965b60ff6115a984611c0c565b1660ff891610156116ee578b60ff6115c082611c0c565b1660ff821610156116d1578c60ff8a811690881614806116c2575b6116b057506115ee818a61039d8a610f8e565b60008b81526005602090815260408083206001600160a01b038d168452909152902060ff61161f84610f298e611c32565b1660005260205260ff6040600020541660ff821615156000146116a957505b60ff808d16911614611665579060ff6115c061165c8f969594611bfa565b92939495611c0c565b60405162461bcd60e51b81526020818e0152601960248201527f5375646f6b754172656e613a20626f7820636f6e666c696374000000000000006044820152606490fd5b905061163e565b939291906115c061165c60ff92611bfa565b5060ff861660ff8316146115db565b509091966115a96116e360ff92611bfa565b98939291505061159e565b9895965099505060ff9192509061126b565b60405162461bcd60e51b81526020818a0152601760248201527f5375646f6b754172656e613a2066697865642063656c6c0000000000000000006044820152606490fd5b60ff60a81b1916600360a81b176001870155604051600381528590600080516020611da283398151915290602090a238611244565b602188634e487b7160e01b6000525260246000fd5b43905538611230565b60405162461bcd60e51b81526020818b0152601960248201527f5375646f6b754172656e613a206e6f74206163636570746564000000000000006044820152606490fd5b50506000600360ff8360a81c161461121e565b602189634e487b7160e01b6000525260246000fd5b506000600160ff8360a81c1614801561185f575b6112245760405162461bcd60e51b81526020818b0152601760248201527f5375646f6b754172656e613a206e6f74206163746976650000000000000000006044820152606490fd5b50506000600360ff8360a81c1614611817565b60405162461bcd60e51b81526020818b0152601660248201527514dd591bdadd505c995b984e88199a5b985b1a5e995960521b6044820152606490fd5b60405162461bcd60e51b81526020818a0152601c60248201527f5375646f6b754172656e613a206e6f74207061727469636970616e74000000006044820152606490fd5b60405162461bcd60e51b81526020818a0152601a60248201527f5375646f6b754172656e613a20696e76616c69642076616c75650000000000006044820152606490fd5b60405162461bcd60e51b81526020818a0152601960248201527f5375646f6b754172656e613a20696e76616c69642063656c6c000000000000006044820152606490fd5b50600960ff8316106111cb565b60018201805460ff8160a01c1615611b355750909160048101549182158015611b29575b61130d576020906119c260038401548095611cf6565b946119d1856005860154611cf6565b9485871180159590611b1757546001600160a01b0316945b15611b105786925b600560a81b60ff60a81b1982541617905560409582600080516020611da283398151915286895160058152a260018060a01b0393837f30a52ee8dad51b8dd476d624034be6b22e908dc69b36a13252ca7e2cba67a7a68689169788938b51908152a386519760208901966001600160601b03199060601b1687526034890152605488015260748701526074865260a08601956001600160401b0387119481881086176110315787875281519020927f00000000000000000000000000000000000000000000000000000000000000001693843b156100ea57600094889460e486948894606497631606c4ed60e11b885260a483015260c482015201525af18015611b0557611afe57505050565b6110315752565b82513d6000823e3d90fd5b85926119f1565b5082546001600160a01b0316946119e9565b506005820154156119ac565b60ff60a81b1916600560a81b179055604051600581528190600080516020611da283398151915290602090a27f30a52ee8dad51b8dd476d624034be6b22e908dc69b36a13252ca7e2cba67a7a66020611ba260018060a01b03855416946003600482015491015490611cf6565b604051908152a3565b80546001600160a01b03928316919083168214611bf257600101549160ff8360a01c169283611be6575b505050611be157600090565b600190565b16149050388080611bd5565b505050600190565b60ff60019116019060ff821161071257565b60ff60039116019060ff821161071257565b9060ff8091169116019060ff821161071257565b60ff60099116029060ff821691820361071257565b60ff60039116029060ff821691820361071257565b909160005b60ff808216906051821015611ceb5780611c8d611c7d88610f8e565b5060099081860691860490611d11565b9286600052602090600582526040918260002060018060a01b038916600052815282600020916000525260002054169116159081611ce2575b50611cd957611cd490611bfa565b611c61565b50505050600090565b90501538611cc6565b505050505050600190565b90808210611d0a5781039081116107125790565b5050600090565b9291610f29611d1f92611c32565b8060011c92600093611d318254610fdb565b80607f83161015611d8d5790600f949560206001949310600014611d705750601f16601f03905b549060031b1c911615611d69571690565b60041c1690565b80601f9293602092522060038560061c16019116601f0390611d58565b634e487b7160e01b86526032600452602486fdfe45b5b5df6725344da5e2d0acc43327098c83ee0a91e8a864693668ffb84e5c31a2646970667358221220c583a56a77c0e799a910b812641a42ab8a82bdb5a532d8b8f2d23684604502eb64736f6c63430008140033",
  "linkReferences": {},
  "deployedLinkReferences": {}
}